{
  "_format": "hh-sol-artifact-1",
  "contractName": "ConfidentialTransferAdapter",
  "sourceName": "contracts/fhenix/ConfidentialTransferAdapter.sol",
  "abi": [
    {
      "inputs": [
        {
          "internalType": "string",
          "name": "reason",
          "type": "string"
        }
      ],
      "name": "ExecutionFailed",
      "type": "error"
    },
    {
      "inputs": [
        {
          "internalType": "string",
          "name": "reason",
          "type": "string"
        }
      ],
      "name": "InvalidParams",
      "type": "error"
    },
    {
      "inputs": [],
      "name": "OnlyActionRegistry",
      "type": "error"
    },
    {
      "inputs": [],
      "name": "OnlyVault",
      "type": "error"
    },
    {
      "inputs": [],
      "name": "ProtocolNotSupported",
      "type": "error"
    },
    {
      "anonymous": false,
      "inputs": [
        {
          "indexed": true,
          "internalType": "address",
          "name": "vault",
          "type": "address"
        },
        {
          "indexed": true,
          "internalType": "address",
          "name": "protocol",
          "type": "address"
        },
        {
          "indexed": false,
          "internalType": "bool",
          "name": "success",
          "type": "bool"
        },
        {
          "indexed": false,
          "internalType": "bytes",
          "name": "result",
          "type": "bytes"
        }
      ],
      "name": "ActionExecuted",
      "type": "event"
    },
    {
      "inputs": [
        {
          "internalType": "bytes",
          "name": "",
          "type": "bytes"
        }
      ],
      "name": "canExecute",
      "outputs": [
        {
          "internalType": "bool",
          "name": "canExec",
          "type": "bool"
        },
        {
          "internalType": "string",
          "name": "reason",
          "type": "string"
        }
      ],
      "stateMutability": "pure",
      "type": "function"
    },
    {
      "inputs": [
        {
          "components": [
            {
              "internalType": "bytes",
              "name": "data",
              "type": "bytes"
            },
            {
              "internalType": "int32",
              "name": "securityZone",
              "type": "int32"
            }
          ],
          "internalType": "struct inEuint32",
          "name": "inThreshold",
          "type": "tuple"
        },
        {
          "components": [
            {
              "internalType": "bytes",
              "name": "data",
              "type": "bytes"
            },
            {
              "internalType": "int32",
              "name": "securityZone",
              "type": "int32"
            }
          ],
          "internalType": "struct inEuint128",
          "name": "inAmount",
          "type": "tuple"
        },
        {
          "internalType": "address",
          "name": "recipient",
          "type": "address"
        },
        {
          "internalType": "address",
          "name": "token",
          "type": "address"
        }
      ],
      "name": "createConfidentialTask",
      "outputs": [
        {
          "internalType": "uint256",
          "name": "",
          "type": "uint256"
        }
      ],
      "stateMutability": "nonpayable",
      "type": "function"
    },
    {
      "inputs": [
        {
          "internalType": "address",
          "name": "vault",
          "type": "address"
        },
        {
          "internalType": "bytes",
          "name": "params",
          "type": "bytes"
        }
      ],
      "name": "execute",
      "outputs": [
        {
          "internalType": "bool",
          "name": "success",
          "type": "bool"
        },
        {
          "internalType": "bytes",
          "name": "result",
          "type": "bytes"
        }
      ],
      "stateMutability": "nonpayable",
      "type": "function"
    },
    {
      "inputs": [
        {
          "internalType": "bytes",
          "name": "",
          "type": "bytes"
        }
      ],
      "name": "getTokenRequirements",
      "outputs": [
        {
          "internalType": "address[]",
          "name": "tokens",
          "type": "address[]"
        },
        {
          "internalType": "uint256[]",
          "name": "amounts",
          "type": "uint256[]"
        }
      ],
      "stateMutability": "pure",
      "type": "function"
    },
    {
      "inputs": [
        {
          "internalType": "address",
          "name": "",
          "type": "address"
        }
      ],
      "name": "isProtocolSupported",
      "outputs": [
        {
          "internalType": "bool",
          "name": "",
          "type": "bool"
        }
      ],
      "stateMutability": "pure",
      "type": "function"
    },
    {
      "inputs": [],
      "name": "name",
      "outputs": [
        {
          "internalType": "string",
          "name": "",
          "type": "string"
        }
      ],
      "stateMutability": "pure",
      "type": "function"
    },
    {
      "inputs": [],
      "name": "nextConfidentialTaskId",
      "outputs": [
        {
          "internalType": "uint256",
          "name": "",
          "type": "uint256"
        }
      ],
      "stateMutability": "view",
      "type": "function"
    },
    {
      "inputs": [
        {
          "internalType": "bytes",
          "name": "",
          "type": "bytes"
        }
      ],
      "name": "validateParams",
      "outputs": [
        {
          "internalType": "bool",
          "name": "isValid",
          "type": "bool"
        },
        {
          "internalType": "string",
          "name": "errorMessage",
          "type": "string"
        }
      ],
      "stateMutability": "pure",
      "type": "function"
    }
  ],
  "bytecode": "6080604052348015600e575f5ffd5b50610d058061001c5f395ff3fe608060405234801561000f575f5ffd5b5060043610610076575f3560e01c806306fdde031461007a5780631cff79cd146100c05780632d9fa4bd146100e157806354a9914d14610102578063656eee2b1461010b5780636c5be56b1461011e578063a53a180c14610131578063f7a7c56d14610167575b5f5ffd5b604080518082018252601b81527a21b7b73334b232b73a34b0b62a3930b739b332b920b230b83a32b960291b602082015290516100b7919061075d565b60405180910390f35b6100d36100ce3660046107c7565b61018b565b6040516100b7929190610815565b6100f46100ef36600461084d565b610328565b6040519081526020016100b7565b6100f460015481565b6100d36101193660046108d0565b6103e8565b6100d361012c3660046108d0565b610401565b61015961013f3660046108d0565b5050604080515f8082526020820190815281830190925291565b6040516100b792919061090e565b61017b610175366004610997565b50600190565b60405190151581526020016100b7565b5f6060818061019c85870187610ade565b5f828152602081815260409182902082516080810184528154815260018201549281019290925260028101546001600160a01b03908116938301939093526003015490911660608201819052929450909250906102305760405162461bcd60e51b815260206004820152600e60248201526d15185cdac81b9bdd08199bdd5b9960921b604482015260640160405180910390fd5b5f61023a8361042a565b90505f61024a82845f0151610442565b90505f61026482856020015161025f5f610485565b610492565b6060850151604080870151905162b54c3d60e81b81526001600160a01b0392831660048201529082166024820152604481018390529192508c169063b54c3d00906064016020604051808303815f875af11580156102c4573d5f5f3e3d5ffd5b505050506040513d601f19601f820116820180604052508101906102e89190610b21565b505060408051808201909152601581527410dbdb999a59195b9d1a585b08195e1958dd5d1959605a1b602082015260019b909a5098505050505050505050565b600180545f918291908261033b83610b38565b919050559050604051806080016040528061035e8861035990610b5c565b61042a565b815260200161037461036f88610b5c565b6104e3565b81526001600160a01b038087166020808401919091528682166040938401525f85815280825283902084518155908401516001820155918301516002830180549183166001600160a01b03199283161790556060909301516003909201805492909116919092161790559050949350505050565b60408051602081019091525f81526001905b9250929050565b5f606060016040518060600160405280602a8152602001610ca6602a9139915091509250929050565b5f61043c825f015183602001516104f5565b92915050565b5f82610454576104515f610509565b92505b81610465576104625f610509565b91505b82825f61047b60028484608063650de1cf610516565b9695505050505050565b5f61043c8260045f6105a5565b5f836104a4576104a15f61062f565b93505b826104b5576104b25f610485565b92505b816104c6576104c35f610485565b91505b8383835f6104d7600485858561063c565b98975050505050505050565b5f61043c825f015183602001516106cf565b5f610502836002846106d8565b9392505050565b5f61043c8260025f6105a5565b5f606083838861052589610705565b61052e89610705565b6040518463ffffffff1660e01b815260040161054c93929190610b67565b5f60405180830381865afa158015610566573d5f5f3e3d5ffd5b505050506040513d5f823e601f3d908101601f1916820160405261058d9190810190610b94565b905061059a816020015190565b979650505050505050565b5f6060608063ba19ac286105b887610705565b86866040518463ffffffff1660e01b81526004016105d893929190610c08565b5f60405180830381865afa1580156105f2573d5f5f3e3d5ffd5b505050506040513d5f823e601f3d908101601f191682016040526106199190810190610b94565b9050610626816020015190565b95945050505050565b5f61043c82600d5f6105a5565b5f6060608063c2d969528761065088610705565b61065988610705565b61066288610705565b6040518563ffffffff1660e01b81526004016106819493929190610c36565b5f60405180830381865afa15801561069b573d5f5f3e3d5ffd5b505050506040513d5f823e601f3d908101601f191682016040526106c29190810190610b94565b905061047b816020015190565b5f610502836004845b6040516321b50ba360e01b81525f906060906080906321b50ba3906105d890879089908890600401610c77565b60408051602080825281830190925260609160208201818036833750505060208101929092525090565b5f81518084528060208401602086015e5f602082860101526020601f19601f83011685010191505092915050565b602081525f610502602083018461072f565b80356001600160a01b0381168114610785575f5ffd5b919050565b5f5f83601f84011261079a575f5ffd5b5081356001600160401b038111156107b0575f5ffd5b6020830191508360208285010111156103fa575f5ffd5b5f5f5f604084860312156107d9575f5ffd5b6107e28461076f565b925060208401356001600160401b038111156107fc575f5ffd5b6108088682870161078a565b9497909650939450505050565b8215158152604060208201525f61082f604083018461072f565b949350505050565b5f60408284031215610847575f5ffd5b50919050565b5f5f5f5f60808587031215610860575f5ffd5b84356001600160401b03811115610875575f5ffd5b61088187828801610837565b94505060208501356001600160401b0381111561089c575f5ffd5b6108a887828801610837565b9350506108b76040860161076f565b91506108c56060860161076f565b905092959194509250565b5f5f602083850312156108e1575f5ffd5b82356001600160401b038111156108f6575f5ffd5b6109028582860161078a565b90969095509350505050565b604080825283519082018190525f9060208501906060840190835b818110156109505783516001600160a01b0316835260209384019390920191600101610929565b5050838103602080860191909152855180835291810192508501905f5b8181101561098b57825184526020938401939092019160010161096d565b50919695505050505050565b5f602082840312156109a7575f5ffd5b6105028261076f565b634e487b7160e01b5f52604160045260245ffd5b604080519081016001600160401b03811182821017156109e6576109e66109b0565b60405290565b604051601f8201601f191681016001600160401b0381118282101715610a1457610a146109b0565b604052919050565b5f6001600160401b03821115610a3457610a346109b0565b50601f01601f191660200190565b5f60408284031215610a52575f5ffd5b610a5a6109c4565b905081356001600160401b03811115610a71575f5ffd5b8201601f81018413610a81575f5ffd5b8035610a94610a8f82610a1c565b6109ec565b818152856020838501011115610aa8575f5ffd5b816020840160208301375f6020838301015280845250505060208201358060030b8114610ad3575f5ffd5b602082015292915050565b5f5f60408385031215610aef575f5ffd5b8235915060208301356001600160401b03811115610b0b575f5ffd5b610b1785828601610a42565b9150509250929050565b5f60208284031215610b31575f5ffd5b5051919050565b5f60018201610b5557634e487b7160e01b5f52601160045260245ffd5b5060010190565b5f61043c3683610a42565b60ff84168152606060208201525f610b82606083018561072f565b828103604084015261047b818561072f565b5f60208284031215610ba4575f5ffd5b81516001600160401b03811115610bb9575f5ffd5b8201601f81018413610bc9575f5ffd5b8051610bd7610a8f82610a1c565b818152856020838501011115610beb575f5ffd5b8160208401602083015e5f91810160200191909152949350505050565b606081525f610c1a606083018661072f565b905060ff841660208301528260030b6040830152949350505050565b60ff85168152608060208201525f610c51608083018661072f565b8281036040840152610c63818661072f565b9050828103606084015261059a818561072f565b60ff84168152606060208201525f610c92606083018561072f565b90508260030b604083015294935050505056fe436f6e666964656e7469616c20657865637574696f6e3a20616c7761797320617474656d707461626c65a2646970667358221220f5c4de0a78c31ff038f7aea51623039dc4f2468462e3d993c2400ede87d1acd964736f6c634300081c0033",
  "linkReferences": {},
  "deployedLinkReferences": {}
}