{
  "_format": "hh-sol-artifact-1",
  "contractName": "ExecutorHub",
  "sourceName": "contracts/core/ExecutorHub.sol",
  "abi": [
    {
      "inputs": [
        {
          "internalType": "address",
          "name": "_owner",
          "type": "address"
        }
      ],
      "stateMutability": "nonpayable",
      "type": "constructor"
    },
    {
      "inputs": [],
      "name": "AlreadyRegistered",
      "type": "error"
    },
    {
      "inputs": [],
      "name": "ExecutorBlacklisted",
      "type": "error"
    },
    {
      "inputs": [],
      "name": "InsufficientStake",
      "type": "error"
    },
    {
      "inputs": [],
      "name": "NotRegistered",
      "type": "error"
    },
    {
      "inputs": [
        {
          "internalType": "address",
          "name": "owner",
          "type": "address"
        }
      ],
      "name": "OwnableInvalidOwner",
      "type": "error"
    },
    {
      "inputs": [
        {
          "internalType": "address",
          "name": "account",
          "type": "address"
        }
      ],
      "name": "OwnableUnauthorizedAccount",
      "type": "error"
    },
    {
      "inputs": [],
      "name": "ReentrancyGuardReentrantCall",
      "type": "error"
    },
    {
      "anonymous": false,
      "inputs": [
        {
          "indexed": true,
          "internalType": "uint256",
          "name": "taskId",
          "type": "uint256"
        },
        {
          "indexed": true,
          "internalType": "address",
          "name": "executor",
          "type": "address"
        },
        {
          "indexed": false,
          "internalType": "bool",
          "name": "success",
          "type": "bool"
        }
      ],
      "name": "ExecutionCompleted",
      "type": "event"
    },
    {
      "anonymous": false,
      "inputs": [
        {
          "indexed": true,
          "internalType": "address",
          "name": "executor",
          "type": "address"
        },
        {
          "indexed": false,
          "internalType": "uint256",
          "name": "stakeAmount",
          "type": "uint256"
        }
      ],
      "name": "ExecutorRegistered",
      "type": "event"
    },
    {
      "anonymous": false,
      "inputs": [
        {
          "indexed": true,
          "internalType": "address",
          "name": "executor",
          "type": "address"
        },
        {
          "indexed": false,
          "internalType": "uint256",
          "name": "amount",
          "type": "uint256"
        },
        {
          "indexed": false,
          "internalType": "string",
          "name": "reason",
          "type": "string"
        }
      ],
      "name": "ExecutorSlashed",
      "type": "event"
    },
    {
      "anonymous": false,
      "inputs": [
        {
          "indexed": true,
          "internalType": "address",
          "name": "executor",
          "type": "address"
        }
      ],
      "name": "ExecutorUnregistered",
      "type": "event"
    },
    {
      "anonymous": false,
      "inputs": [
        {
          "indexed": true,
          "internalType": "address",
          "name": "previousOwner",
          "type": "address"
        },
        {
          "indexed": true,
          "internalType": "address",
          "name": "newOwner",
          "type": "address"
        }
      ],
      "name": "OwnershipTransferred",
      "type": "event"
    },
    {
      "anonymous": false,
      "inputs": [
        {
          "indexed": true,
          "internalType": "address",
          "name": "executor",
          "type": "address"
        },
        {
          "indexed": false,
          "internalType": "uint256",
          "name": "amount",
          "type": "uint256"
        }
      ],
      "name": "StakeAdded",
      "type": "event"
    },
    {
      "anonymous": false,
      "inputs": [
        {
          "indexed": true,
          "internalType": "address",
          "name": "executor",
          "type": "address"
        },
        {
          "indexed": false,
          "internalType": "uint256",
          "name": "amount",
          "type": "uint256"
        }
      ],
      "name": "StakeWithdrawn",
      "type": "event"
    },
    {
      "inputs": [],
      "name": "addStake",
      "outputs": [],
      "stateMutability": "payable",
      "type": "function"
    },
    {
      "inputs": [
        {
          "internalType": "address",
          "name": "",
          "type": "address"
        }
      ],
      "name": "canExecute",
      "outputs": [
        {
          "internalType": "bool",
          "name": "",
          "type": "bool"
        }
      ],
      "stateMutability": "pure",
      "type": "function"
    },
    {
      "inputs": [
        {
          "internalType": "uint256",
          "name": "taskId",
          "type": "uint256"
        }
      ],
      "name": "executeTask",
      "outputs": [
        {
          "internalType": "bool",
          "name": "success",
          "type": "bool"
        }
      ],
      "stateMutability": "nonpayable",
      "type": "function"
    },
    {
      "inputs": [
        {
          "internalType": "address",
          "name": "",
          "type": "address"
        }
      ],
      "name": "executors",
      "outputs": [
        {
          "internalType": "address",
          "name": "addr",
          "type": "address"
        },
        {
          "internalType": "uint128",
          "name": "stakedAmount",
          "type": "uint128"
        },
        {
          "internalType": "uint128",
          "name": "registeredAt",
          "type": "uint128"
        },
        {
          "internalType": "uint256",
          "name": "totalExecutions",
          "type": "uint256"
        },
        {
          "internalType": "uint256",
          "name": "successfulExecutions",
          "type": "uint256"
        },
        {
          "internalType": "uint256",
          "name": "failedExecutions",
          "type": "uint256"
        },
        {
          "internalType": "uint256",
          "name": "reputationScore",
          "type": "uint256"
        },
        {
          "internalType": "bool",
          "name": "isActive",
          "type": "bool"
        },
        {
          "internalType": "bool",
          "name": "isSlashed",
          "type": "bool"
        }
      ],
      "stateMutability": "view",
      "type": "function"
    },
    {
      "inputs": [
        {
          "internalType": "address",
          "name": "executor",
          "type": "address"
        }
      ],
      "name": "getExecutor",
      "outputs": [
        {
          "components": [
            {
              "internalType": "address",
              "name": "addr",
              "type": "address"
            },
            {
              "internalType": "uint128",
              "name": "stakedAmount",
              "type": "uint128"
            },
            {
              "internalType": "uint128",
              "name": "registeredAt",
              "type": "uint128"
            },
            {
              "internalType": "uint256",
              "name": "totalExecutions",
              "type": "uint256"
            },
            {
              "internalType": "uint256",
              "name": "successfulExecutions",
              "type": "uint256"
            },
            {
              "internalType": "uint256",
              "name": "failedExecutions",
              "type": "uint256"
            },
            {
              "internalType": "uint256",
              "name": "reputationScore",
              "type": "uint256"
            },
            {
              "internalType": "bool",
              "name": "isActive",
              "type": "bool"
            },
            {
              "internalType": "bool",
              "name": "isSlashed",
              "type": "bool"
            }
          ],
          "internalType": "struct IExecutorHub.Executor",
          "name": "",
          "type": "tuple"
        }
      ],
      "stateMutability": "view",
      "type": "function"
    },
    {
      "inputs": [],
      "name": "minStakeAmount",
      "outputs": [
        {
          "internalType": "uint256",
          "name": "",
          "type": "uint256"
        }
      ],
      "stateMutability": "view",
      "type": "function"
    },
    {
      "inputs": [],
      "name": "owner",
      "outputs": [
        {
          "internalType": "address",
          "name": "",
          "type": "address"
        }
      ],
      "stateMutability": "view",
      "type": "function"
    },
    {
      "inputs": [
        {
          "internalType": "uint256",
          "name": "taskId",
          "type": "uint256"
        },
        {
          "internalType": "address",
          "name": "executor",
          "type": "address"
        },
        {
          "internalType": "bool",
          "name": "success",
          "type": "bool"
        },
        {
          "internalType": "uint256",
          "name": "gasUsed",
          "type": "uint256"
        }
      ],
      "name": "recordExecution",
      "outputs": [],
      "stateMutability": "nonpayable",
      "type": "function"
    },
    {
      "inputs": [],
      "name": "registerExecutor",
      "outputs": [],
      "stateMutability": "payable",
      "type": "function"
    },
    {
      "inputs": [],
      "name": "renounceOwnership",
      "outputs": [],
      "stateMutability": "nonpayable",
      "type": "function"
    },
    {
      "inputs": [
        {
          "internalType": "uint256",
          "name": "_minStake",
          "type": "uint256"
        }
      ],
      "name": "setMinStakeAmount",
      "outputs": [],
      "stateMutability": "nonpayable",
      "type": "function"
    },
    {
      "inputs": [
        {
          "internalType": "address",
          "name": "_taskLogic",
          "type": "address"
        }
      ],
      "name": "setTaskLogic",
      "outputs": [],
      "stateMutability": "nonpayable",
      "type": "function"
    },
    {
      "inputs": [
        {
          "internalType": "address",
          "name": "_taskRegistry",
          "type": "address"
        }
      ],
      "name": "setTaskRegistry",
      "outputs": [],
      "stateMutability": "nonpayable",
      "type": "function"
    },
    {
      "inputs": [
        {
          "internalType": "address",
          "name": "executor",
          "type": "address"
        },
        {
          "internalType": "uint256",
          "name": "amount",
          "type": "uint256"
        },
        {
          "internalType": "string",
          "name": "reason",
          "type": "string"
        }
      ],
      "name": "slashExecutor",
      "outputs": [],
      "stateMutability": "nonpayable",
      "type": "function"
    },
    {
      "inputs": [],
      "name": "taskLogic",
      "outputs": [
        {
          "internalType": "address",
          "name": "",
          "type": "address"
        }
      ],
      "stateMutability": "view",
      "type": "function"
    },
    {
      "inputs": [],
      "name": "taskRegistry",
      "outputs": [
        {
          "internalType": "address",
          "name": "",
          "type": "address"
        }
      ],
      "stateMutability": "view",
      "type": "function"
    },
    {
      "inputs": [],
      "name": "totalExecutors",
      "outputs": [
        {
          "internalType": "uint256",
          "name": "",
          "type": "uint256"
        }
      ],
      "stateMutability": "view",
      "type": "function"
    },
    {
      "inputs": [
        {
          "internalType": "address",
          "name": "newOwner",
          "type": "address"
        }
      ],
      "name": "transferOwnership",
      "outputs": [],
      "stateMutability": "nonpayable",
      "type": "function"
    },
    {
      "inputs": [],
      "name": "unregisterExecutor",
      "outputs": [],
      "stateMutability": "nonpayable",
      "type": "function"
    },
    {
      "inputs": [
        {
          "internalType": "uint256",
          "name": "amount",
          "type": "uint256"
        }
      ],
      "name": "withdrawStake",
      "outputs": [],
      "stateMutability": "nonpayable",
      "type": "function"
    }
  ],
  "bytecode": "60803460cc57601f6112b638819003918201601f19168301916001600160401b0383118484101760d15780849260209460405283398101031260cc57516001600160a01b0381169081900360cc57801560b657600080546001600160a01b031981168317825560405192916001600160a01b03909116907f8be0079c531659141344cd1fd0a4f28419497f9722a3daafe3b4186f6b6457e09080a36001805567016345785d8a00006005556111ce90816100e88239f35b631e4fbdf760e01b600052600060045260246000fd5b600080fd5b634e487b7160e01b600052604160045260246000fdfe6080604052600436101561001257600080fd5b60003560e01c8063242a4a8914610e3757806325d5971f14610cda5780632afabb9814610b795780635a627dbc14610aa657806361119302146109585780636e3480c7146106f6578063715018a6146106af57806385c99e2b1461068a578063868a660f146105a757806386dc11be1461057e5780638da5cb5b146105555780639ac2a011146104ad5780639c31272d1461043d5780639e498f1614610414578063b2d7806914610396578063eb4af0451461033a578063f18876841461031c578063f2fde38b146102a5578063f621ff60146102875763fd3f729d146100f857600080fd5b3461028257606036600319011261028257610111610eb2565b602435906044356001600160401b0381116102825736602382011215610282576004810135916001600160401b03831161028257366024848401011161028257610159611063565b60018060a01b031692836000526002602052604060002090600682019360ff85541615610250577f51a349a0f4afba2edc157accf320ab587a00ada5aa5597d5c774813fdd6b99109460016060940160018060801b038154166101be85821015610ede565b6001600160801b03906101d49086831690610f1f565b82546001600160801b0319169116179055805461ff0019166101001790556000805461021c919081908190819087906001600160a01b03165af1610216610fc3565b50610ff3565b80602460405195869485526040602086015282604086015201848401376000828201840152601f01601f19168101030190a2005b60405162461bcd60e51b815260206004820152600a6024820152694e6f742061637469766560b01b6044820152606490fd5b600080fd5b34610282576000366003190112610282576020600654604051908152f35b34610282576020366003190112610282576102be610eb2565b6102c6611063565b6001600160a01b0316801561030657600080546001600160a01b03198116831782556001600160a01b0316906000805160206111798339815191529080a3005b631e4fbdf760e01b600052600060045260246000fd5b34610282576000366003190112610282576020600554604051908152f35b3461028257602036600319011261028257600435610356611063565b801561036157600555005b60405162461bcd60e51b815260206004820152600d60248201526c496e76616c6964207374616b6560981b6044820152606490fd5b34610282576020366003190112610282576103af610eb2565b6103b7611063565b6001600160a01b031680156103dc57600480546001600160a01b031916919091179055005b60405162461bcd60e51b815260206004820152601060248201526f496e76616c696420726567697374727960801b6044820152606490fd5b34610282576000366003190112610282576004546040516001600160a01b039091168152602090f35b3461028257608036600319011261028257610456610ec8565b5060443580151503610282576003546001600160a01b0316330361047657005b60405162461bcd60e51b815260206004820152600f60248201526e4f6e6c79207461736b206c6f67696360881b6044820152606490fd5b34610282576020366003190112610282576001600160a01b036104ce610eb2565b166000526002602052610120604060002060ff60018060a01b038254169160018101549060028101546003820154600483015491600660058501549401549460405197885260018060801b038116602089015260801c60408801526060870152608086015260a085015260c0840152818116151560e084015260081c161515610100820152f35b34610282576000366003190112610282576000546040516001600160a01b039091168152602090f35b34610282576000366003190112610282576003546040516001600160a01b039091168152602090f35b346102825760003660031901126102825733600052600260205260ff6006604060002001541615610679576105da61108c565b3360008181526002602052604081206001810180546006909201805460ff191690556001600160801b031982169055610627928291829182916001600160801b0316905af1610216610fc3565b60065480156106635760001901600655337fdd96f65ca46c65c337946f2242c6e8a2383b8733b20e36dad5b48a648ea32108600080a260018055005b634e487b7160e01b600052601160045260246000fd5b63aba4733960e01b60005260046000fd5b34610282576020366003190112610282576106a3610eb2565b50602060405160018152f35b34610282576000366003190112610282576106c8611063565b600080546001600160a01b0319811682556001600160a01b03166000805160206111798339815191528280a3005b346102825760203660031901126102825760043561071261108c565b6020906040516107228382610f85565b60008152600060405161073481610f6a565b838152848101903382526040810191838352606082019485528360c460018060a01b036003541693604051978896879586936309d5367d60e31b85528d600486015251602485015260018060a01b03905116604484015251606483015251608060848301526107b1815180928160a48601528d8686019101611040565b601f01601f191681010301925af190811561094c57600091610876575b5090336000526002835260ff60066040600020015416610828575b81511515906040519182527fd04fe33e06564527513808fb0d61ca303fe099be714088b54c167a68992663b3843393a351151560018055604051908152f35b33600052600283526040600020600281016108438154611031565b9055825115610869576003016108598154611031565b9055610864336110ae565b6107e9565b6004016108598154611031565b3d8083833e6108858183610f85565b8101908481830312610944578051906001600160401b03821161094857019160808383031261093d57604051926108bb84610f6a565b805180151581036109445784528086015186850152604080820151908501526060810151906001600160401b038211610944570182601f820112156109405780519161090683610fa8565b936109146040519586610f85565b83855287848401011161093d57509061093291868085019101611040565b6060820152836107ce565b80fd5b5080fd5b8280fd5b8380fd5b6040513d6000823e3d90fd5b3461028257602036600319011261028257610971610eb2565b600061010060405161098281610f38565b8281528260208201528260408201528260608201528260808201528260a08201528260c08201528260e0820152015260018060a01b031660005260026020526101206040600020604051906109d682610f38565b60018060a01b0381541691828152600182015491602082019260018060801b0381168452604083019060801c81526002820154606084019081526003830154906080850191825260048401549260a08601938452600660058601549560c0880196875201549660ff61010060e0890198828b1615158a52019860081c161515885260405198895260018060801b03905116602089015260018060801b0390511660408801525160608701525160808601525160a08501525160c084015251151560e0830152511515610100820152f35b60003660031901126102825733600052600260205260ff6006604060002001541615610679573415610b475733600090815260026020526040902060010180546001600160801b03908116348216019081116106635781546001600160801b0319166001600160801b039190911617905560405134815233907f7c717985ac273e663b7f3050f5b15a4388ff6ed952338954f650e2093e13937f90602090a2005b60405162461bcd60e51b815260206004820152600a6024820152695a65726f207374616b6560b01b6044820152606490fd5b60003660031901126102825733600052600260205260ff60066040600020015416610cc957604051610baa81610f38565b338082526001600160801b03348116602080850191825242831660408087019182526000606088018181526080808a0183815260a08b0184815261138860c08d01908152600160e08e018181526101008f018881529d885260029a8b9052979096209c518d546001600160a01b039091166001600160a01b0319909116178d5598519651969099166001600160801b03199690921b9590951617918901919091555192870192909255516003860155915160048501555160058401555160069283018054925161ff0090151560081b1691151560ff1661ffff199093169290921717905554610c9890611031565b6006556040513481527fcccf805510908ea6d8269aac5b6bf02dd1eb654d8da3a836e5486fc2e49f52a460203392a2005b630ea075bf60e21b60005260046000fd5b346102825760203660031901126102825760043533600052600260205260ff600660406000200154161561067957610d1061108c565b33600052600260205260406000208115610e045760010180546001600160801b0316610d3e83821015610ede565b8281038181116106635760055411801590610dfb575b15610dc6576001600160801b0390610d6f9084831690610f1f565b82546001600160801b0319169116179055610d94600080808085335af1610216610fc3565b6040519081527f8108595eb6bad3acefa9da467d90cc2217686d5c5ac85460f8b7849c840645fc60203392a260018055005b60405162461bcd60e51b815260206004820152600d60248201526c42656c6f77206d696e696d756d60981b6044820152606490fd5b50828114610d54565b60405162461bcd60e51b815260206004820152600b60248201526a16995c9bc8185b5bdd5b9d60aa1b6044820152606490fd5b3461028257602036600319011261028257610e50610eb2565b610e58611063565b6001600160a01b03168015610e7d57600380546001600160a01b031916919091179055005b60405162461bcd60e51b815260206004820152600d60248201526c496e76616c6964206c6f67696360981b6044820152606490fd5b600435906001600160a01b038216820361028257565b602435906001600160a01b038216820361028257565b15610ee557565b60405162461bcd60e51b8152602060048201526012602482015271496e73756666696369656e74207374616b6560701b6044820152606490fd5b6001600160801b03918216908216039190821161066357565b61012081019081106001600160401b03821117610f5457604052565b634e487b7160e01b600052604160045260246000fd5b608081019081106001600160401b03821117610f5457604052565b601f909101601f19168101906001600160401b03821190821017610f5457604052565b6001600160401b038111610f5457601f01601f191660200190565b3d15610fee573d90610fd482610fa8565b91610fe26040519384610f85565b82523d6000602084013e565b606090565b15610ffa57565b60405162461bcd60e51b815260206004820152600f60248201526e151c985b9cd9995c8819985a5b1959608a1b6044820152606490fd5b60001981146106635760010190565b60005b8381106110535750506000910152565b8181015183820152602001611043565b6000546001600160a01b0316330361107757565b63118cdaa760e01b6000523360045260246000fd5b60026001541461109d576002600155565b633ee5aeb560e01b60005260046000fd5b60018060a01b0316600052600260205260406000206002810154801561112e576003820154612710810290808204612710149015171561066357816110f4910491611132565b60468202918083046046149015171561066357601e810290808204601e149015171561066357810180911161066357606460059104910155565b5050565b6107d0811015611171576101f481101561116a57606481101561116357600a111561115d576103e890565b6109c490565b5061138890565b50611d4c90565b506127109056fe8be0079c531659141344cd1fd0a4f28419497f9722a3daafe3b4186f6b6457e0a264697066735822122069492e3500c02eaa6cd4b39b1cf83c293efcccafe4e41456797098598316202e64736f6c634300081c0033",
  "linkReferences": {},
  "deployedLinkReferences": {}
}