{
  "_format": "hh-sol-artifact-1",
  "contractName": "GlobalRegistry",
  "sourceName": "contracts/core/GlobalRegistry.sol",
  "abi": [
    {
      "inputs": [
        {
          "internalType": "address",
          "name": "_owner",
          "type": "address"
        }
      ],
      "stateMutability": "nonpayable",
      "type": "constructor"
    },
    {
      "inputs": [
        {
          "internalType": "address",
          "name": "owner",
          "type": "address"
        }
      ],
      "name": "OwnableInvalidOwner",
      "type": "error"
    },
    {
      "inputs": [
        {
          "internalType": "address",
          "name": "account",
          "type": "address"
        }
      ],
      "name": "OwnableUnauthorizedAccount",
      "type": "error"
    },
    {
      "anonymous": false,
      "inputs": [
        {
          "indexed": true,
          "internalType": "address",
          "name": "factory",
          "type": "address"
        }
      ],
      "name": "FactoryAuthorized",
      "type": "event"
    },
    {
      "anonymous": false,
      "inputs": [
        {
          "indexed": true,
          "internalType": "address",
          "name": "factory",
          "type": "address"
        }
      ],
      "name": "FactoryRevoked",
      "type": "event"
    },
    {
      "anonymous": false,
      "inputs": [
        {
          "indexed": true,
          "internalType": "address",
          "name": "previousOwner",
          "type": "address"
        },
        {
          "indexed": true,
          "internalType": "address",
          "name": "newOwner",
          "type": "address"
        }
      ],
      "name": "OwnershipTransferred",
      "type": "event"
    },
    {
      "anonymous": false,
      "inputs": [
        {
          "indexed": true,
          "internalType": "uint256",
          "name": "taskId",
          "type": "uint256"
        },
        {
          "indexed": true,
          "internalType": "address",
          "name": "creator",
          "type": "address"
        },
        {
          "indexed": false,
          "internalType": "address",
          "name": "taskCore",
          "type": "address"
        },
        {
          "indexed": false,
          "internalType": "address",
          "name": "taskVault",
          "type": "address"
        }
      ],
      "name": "TaskRegistered",
      "type": "event"
    },
    {
      "anonymous": false,
      "inputs": [
        {
          "indexed": true,
          "internalType": "uint256",
          "name": "taskId",
          "type": "uint256"
        },
        {
          "indexed": false,
          "internalType": "enum ITaskCore.TaskStatus",
          "name": "oldStatus",
          "type": "uint8"
        },
        {
          "indexed": false,
          "internalType": "enum ITaskCore.TaskStatus",
          "name": "newStatus",
          "type": "uint8"
        }
      ],
      "name": "TaskStatusUpdated",
      "type": "event"
    },
    {
      "inputs": [
        {
          "internalType": "uint256",
          "name": "",
          "type": "uint256"
        }
      ],
      "name": "allTaskIds",
      "outputs": [
        {
          "internalType": "uint256",
          "name": "",
          "type": "uint256"
        }
      ],
      "stateMutability": "view",
      "type": "function"
    },
    {
      "inputs": [
        {
          "internalType": "address",
          "name": "factory",
          "type": "address"
        }
      ],
      "name": "authorizeFactory",
      "outputs": [],
      "stateMutability": "nonpayable",
      "type": "function"
    },
    {
      "inputs": [
        {
          "internalType": "address",
          "name": "",
          "type": "address"
        }
      ],
      "name": "authorizedFactories",
      "outputs": [
        {
          "internalType": "bool",
          "name": "",
          "type": "bool"
        }
      ],
      "stateMutability": "view",
      "type": "function"
    },
    {
      "inputs": [
        {
          "internalType": "address[]",
          "name": "factories",
          "type": "address[]"
        }
      ],
      "name": "batchAuthorizeFactories",
      "outputs": [],
      "stateMutability": "nonpayable",
      "type": "function"
    },
    {
      "inputs": [
        {
          "internalType": "uint256",
          "name": "limit",
          "type": "uint256"
        },
        {
          "internalType": "uint256",
          "name": "offset",
          "type": "uint256"
        }
      ],
      "name": "getExecutableTasks",
      "outputs": [
        {
          "components": [
            {
              "internalType": "uint256",
              "name": "taskId",
              "type": "uint256"
            },
            {
              "internalType": "address",
              "name": "taskCore",
              "type": "address"
            },
            {
              "internalType": "address",
              "name": "taskVault",
              "type": "address"
            },
            {
              "internalType": "address",
              "name": "creator",
              "type": "address"
            },
            {
              "internalType": "uint256",
              "name": "createdAt",
              "type": "uint256"
            },
            {
              "internalType": "uint256",
              "name": "expiresAt",
              "type": "uint256"
            },
            {
              "internalType": "enum ITaskCore.TaskStatus",
              "name": "status",
              "type": "uint8"
            }
          ],
          "internalType": "struct GlobalRegistry.TaskInfo[]",
          "name": "",
          "type": "tuple[]"
        }
      ],
      "stateMutability": "view",
      "type": "function"
    },
    {
      "inputs": [
        {
          "internalType": "uint256",
          "name": "limit",
          "type": "uint256"
        },
        {
          "internalType": "uint256",
          "name": "offset",
          "type": "uint256"
        }
      ],
      "name": "getPaginatedTasks",
      "outputs": [
        {
          "components": [
            {
              "internalType": "uint256",
              "name": "taskId",
              "type": "uint256"
            },
            {
              "internalType": "address",
              "name": "taskCore",
              "type": "address"
            },
            {
              "internalType": "address",
              "name": "taskVault",
              "type": "address"
            },
            {
              "internalType": "address",
              "name": "creator",
              "type": "address"
            },
            {
              "internalType": "uint256",
              "name": "createdAt",
              "type": "uint256"
            },
            {
              "internalType": "uint256",
              "name": "expiresAt",
              "type": "uint256"
            },
            {
              "internalType": "enum ITaskCore.TaskStatus",
              "name": "status",
              "type": "uint8"
            }
          ],
          "internalType": "struct GlobalRegistry.TaskInfo[]",
          "name": "",
          "type": "tuple[]"
        },
        {
          "internalType": "uint256",
          "name": "",
          "type": "uint256"
        }
      ],
      "stateMutability": "view",
      "type": "function"
    },
    {
      "inputs": [
        {
          "internalType": "uint256",
          "name": "taskId",
          "type": "uint256"
        }
      ],
      "name": "getTaskAddresses",
      "outputs": [
        {
          "internalType": "address",
          "name": "taskCore",
          "type": "address"
        },
        {
          "internalType": "address",
          "name": "taskVault",
          "type": "address"
        }
      ],
      "stateMutability": "view",
      "type": "function"
    },
    {
      "inputs": [
        {
          "internalType": "uint256",
          "name": "taskId",
          "type": "uint256"
        }
      ],
      "name": "getTaskInfo",
      "outputs": [
        {
          "components": [
            {
              "internalType": "uint256",
              "name": "taskId",
              "type": "uint256"
            },
            {
              "internalType": "address",
              "name": "taskCore",
              "type": "address"
            },
            {
              "internalType": "address",
              "name": "taskVault",
              "type": "address"
            },
            {
              "internalType": "address",
              "name": "creator",
              "type": "address"
            },
            {
              "internalType": "uint256",
              "name": "createdAt",
              "type": "uint256"
            },
            {
              "internalType": "uint256",
              "name": "expiresAt",
              "type": "uint256"
            },
            {
              "internalType": "enum ITaskCore.TaskStatus",
              "name": "status",
              "type": "uint8"
            }
          ],
          "internalType": "struct GlobalRegistry.TaskInfo",
          "name": "",
          "type": "tuple"
        }
      ],
      "stateMutability": "view",
      "type": "function"
    },
    {
      "inputs": [
        {
          "internalType": "address",
          "name": "creator",
          "type": "address"
        }
      ],
      "name": "getTasksByCreator",
      "outputs": [
        {
          "internalType": "uint256[]",
          "name": "",
          "type": "uint256[]"
        }
      ],
      "stateMutability": "view",
      "type": "function"
    },
    {
      "inputs": [
        {
          "internalType": "enum ITaskCore.TaskStatus",
          "name": "status",
          "type": "uint8"
        }
      ],
      "name": "getTasksByStatus",
      "outputs": [
        {
          "internalType": "uint256[]",
          "name": "",
          "type": "uint256[]"
        }
      ],
      "stateMutability": "view",
      "type": "function"
    },
    {
      "inputs": [],
      "name": "owner",
      "outputs": [
        {
          "internalType": "address",
          "name": "",
          "type": "address"
        }
      ],
      "stateMutability": "view",
      "type": "function"
    },
    {
      "inputs": [
        {
          "internalType": "uint256",
          "name": "taskId",
          "type": "uint256"
        },
        {
          "internalType": "address",
          "name": "taskCore",
          "type": "address"
        },
        {
          "internalType": "address",
          "name": "taskVault",
          "type": "address"
        },
        {
          "internalType": "address",
          "name": "creator",
          "type": "address"
        }
      ],
      "name": "registerTask",
      "outputs": [],
      "stateMutability": "nonpayable",
      "type": "function"
    },
    {
      "inputs": [],
      "name": "renounceOwnership",
      "outputs": [],
      "stateMutability": "nonpayable",
      "type": "function"
    },
    {
      "inputs": [
        {
          "internalType": "address",
          "name": "factory",
          "type": "address"
        }
      ],
      "name": "revokeFactory",
      "outputs": [],
      "stateMutability": "nonpayable",
      "type": "function"
    },
    {
      "inputs": [
        {
          "internalType": "address",
          "name": "creator",
          "type": "address"
        },
        {
          "internalType": "enum ITaskCore.TaskStatus",
          "name": "status",
          "type": "uint8"
        },
        {
          "internalType": "uint256",
          "name": "minReward",
          "type": "uint256"
        },
        {
          "internalType": "uint256",
          "name": "limit",
          "type": "uint256"
        }
      ],
      "name": "searchTasks",
      "outputs": [
        {
          "components": [
            {
              "internalType": "uint256",
              "name": "taskId",
              "type": "uint256"
            },
            {
              "internalType": "address",
              "name": "taskCore",
              "type": "address"
            },
            {
              "internalType": "address",
              "name": "taskVault",
              "type": "address"
            },
            {
              "internalType": "address",
              "name": "creator",
              "type": "address"
            },
            {
              "internalType": "uint256",
              "name": "createdAt",
              "type": "uint256"
            },
            {
              "internalType": "uint256",
              "name": "expiresAt",
              "type": "uint256"
            },
            {
              "internalType": "enum ITaskCore.TaskStatus",
              "name": "status",
              "type": "uint8"
            }
          ],
          "internalType": "struct GlobalRegistry.TaskInfo[]",
          "name": "",
          "type": "tuple[]"
        }
      ],
      "stateMutability": "view",
      "type": "function"
    },
    {
      "inputs": [
        {
          "internalType": "uint256",
          "name": "",
          "type": "uint256"
        }
      ],
      "name": "tasks",
      "outputs": [
        {
          "internalType": "uint256",
          "name": "taskId",
          "type": "uint256"
        },
        {
          "internalType": "address",
          "name": "taskCore",
          "type": "address"
        },
        {
          "internalType": "address",
          "name": "taskVault",
          "type": "address"
        },
        {
          "internalType": "address",
          "name": "creator",
          "type": "address"
        },
        {
          "internalType": "uint256",
          "name": "createdAt",
          "type": "uint256"
        },
        {
          "internalType": "uint256",
          "name": "expiresAt",
          "type": "uint256"
        },
        {
          "internalType": "enum ITaskCore.TaskStatus",
          "name": "status",
          "type": "uint8"
        }
      ],
      "stateMutability": "view",
      "type": "function"
    },
    {
      "inputs": [
        {
          "internalType": "address",
          "name": "",
          "type": "address"
        },
        {
          "internalType": "uint256",
          "name": "",
          "type": "uint256"
        }
      ],
      "name": "tasksByCreator",
      "outputs": [
        {
          "internalType": "uint256",
          "name": "",
          "type": "uint256"
        }
      ],
      "stateMutability": "view",
      "type": "function"
    },
    {
      "inputs": [
        {
          "internalType": "enum ITaskCore.TaskStatus",
          "name": "",
          "type": "uint8"
        },
        {
          "internalType": "uint256",
          "name": "",
          "type": "uint256"
        }
      ],
      "name": "tasksByStatus",
      "outputs": [
        {
          "internalType": "uint256",
          "name": "",
          "type": "uint256"
        }
      ],
      "stateMutability": "view",
      "type": "function"
    },
    {
      "inputs": [],
      "name": "totalTasks",
      "outputs": [
        {
          "internalType": "uint256",
          "name": "",
          "type": "uint256"
        }
      ],
      "stateMutability": "view",
      "type": "function"
    },
    {
      "inputs": [
        {
          "internalType": "address",
          "name": "newOwner",
          "type": "address"
        }
      ],
      "name": "transferOwnership",
      "outputs": [],
      "stateMutability": "nonpayable",
      "type": "function"
    },
    {
      "inputs": [
        {
          "internalType": "uint256",
          "name": "taskId",
          "type": "uint256"
        },
        {
          "internalType": "enum ITaskCore.TaskStatus",
          "name": "newStatus",
          "type": "uint8"
        }
      ],
      "name": "updateTaskStatus",
      "outputs": [],
      "stateMutability": "nonpayable",
      "type": "function"
    }
  ],
  "bytecode": "60803460bc57601f61172338819003918201601f19168301916001600160401b0383118484101760c15780849260209460405283398101031260bc57516001600160a01b0381169081900360bc57801560a657600080546001600160a01b031981168317825560405192916001600160a01b03909116907f8be0079c531659141344cd1fd0a4f28419497f9722a3daafe3b4186f6b6457e09080a361164b90816100d88239f35b631e4fbdf760e01b600052600060045260246000fd5b600080fd5b634e487b7160e01b600052604160045260246000fdfe6080604052600436101561001257600080fd5b60003560e01c80621189dd146101665780631579259b14610161578063181fd0121461015c5780632e8132021461015757806331a40131146101525780634e4887981461014d578063629d90df146101485780636d520202146101435780636e2446511461013e578063715018a61461013957806376c3504b146101345780638d9776721461012f5780638da5cb5b1461012a57806390d7b57a14610125578063ab9b681114610120578063cf9d28df1461011b578063d1a1b99914610116578063d22c81e514610111578063ecd24a821461010c578063f2fde38b146101075763f4ef05b21461010257600080fd5b610f3a565b610ebf565b610e7d565b610e5f565b610e1c565b610dce565b610cd5565b610c88565b610c46565b610bd7565b610b42565b610aad565b6109bd565b61084a565b6106b7565b6103ba565b61037d565b610333565b61027b565b61023b565b61018d565b6001600160a01b031690565b6001600160a01b0381160361018857565b600080fd5b34610188576020366003190112610188576004356101aa81610177565b6101b261158c565b6001600160a01b03166000818152600160205260408120805460ff191690557fd25dd45a1811dc9170ab90c454ef2024f3086a79da5279a8d42f39bdda8f36d19080a2005b6006111561018857565b602060408183019282815284518094520192019060005b8181106102255750505090565b8251845260209384019390920191600101610218565b346101885760203660031901126101885761027761026b610266600435610261816101f7565b610c6f565b61103b565b60405191829182610201565b0390f35b346101885760203660031901126101885760043561029881610177565b6102a061158c565b6001600160a01b031680156102e2578060005260016020526102cd6040600020600160ff19825416179055565b6000805160206115d6833981519152600080a2005b60405162461bcd60e51b815260206004820152600f60248201526e496e76616c696420666163746f727960881b6044820152606490fd5b6001600160a01b0391821681529116602082015260400190565b346101885760203660031901126101885760043560009081526002602081905260409182902060018101549101549151918291610277916001600160a01b03908116911683610319565b346101885760203660031901126101885760043561039a81610177565b60018060a01b0316600052600460205261027761026b604060002061103b565b34610188576080366003190112610188576024356004356103da82610177565b6044356103e681610177565b606435906103f382610177565b33600052600160205260ff60406000205416156105a0576104316001600160a01b0361042a600161042387610b81565b015461016b565b1615611086565b604051637a5b4f5960e01b815291610180836004816001600160a01b0389165afa92831561059b578461052d7fcc92d2afa16d21a1e2839b0d97708cbab15c2b11df331b937f4571a0a9ab1c239561053c9360009161056c575b506040810151610517908a90610509906001600160601b031661012060608601519501948551916104bb836105d6565b6104d36104c66110c8565b958a8752602087016111c7565b6104e08c604087016111c7565b6104ed8b606087016111c7565b6001600160601b0316608085015260a084015260c083016111d6565b61051285610b81565b611219565b6105208361129a565b6105328361052d87610db4565b6112d2565b51610261816105d6565b61054f61054a60035461131d565b600355565b61056760405192839260018060a01b03169683610319565b0390a3005b61058e91506101803d8111610594575b6105868183610fcd565b810190611111565b3861048b565b503d61057c565b6111bb565b60405162461bcd60e51b815260206004820152600e60248201526d139bdd08185d5d1a1bdc9a5e995960921b6044820152606490fd5b600611156105e057565b634e487b7160e01b600052602160045260246000fd5b9060068210156105e05752565b9060c080610663938051845260018060a01b03602082015116602085015260018060a01b03604082015116604085015260018060a01b0360608201511660608501526080810151608085015260a081015160a085015201519101906105f6565b565b906020808351928381520192019060005b8181106106835750505090565b909192602060e0826106986001948851610603565b019401929101610676565b9060206106b4928181520190610665565b90565b34610188576080366003190112610188576004356106d481610177565b602435906106e1826101f7565b60443591606435916000906106f58461137f565b906001600160a01b0381161561083c5761026661071191610db4565b825b8151841080610833575b156108235761073561072f85846113cf565b51610b81565b85610744600683015460ff1690565b61074d826105d6565b610756816105d6565b141580610811575b6107e757600461018061077f61077a61077a600186015461016b565b61016b565b604051637a5b4f5960e01b815292839182905afa90811561059b578991610100916000916107f2575b500151106107e7576107e1916107c06107db926113e3565b6107ca82876113cf565b526107d581866113cf565b5061131d565b9361131d565b92610713565b50926107e19061131d565b61080b91506101803d8111610594576105868183610fcd565b386107a8565b5061081b866105d6565b85151561075e565b82526040518061027784826106a3565b5085811061071d565b50610845610ff0565b610711565b3461018857604036600319011261018857602435600435600061086c8261137f565b6000805260056020529261089f7f05b8ccbb9d4d8fb16ea74ce3c29a41f1b461fbdaff4714a0d9a8eb05499746bc61103b565b905b8151811080610998575b15610987576108bd61072f82846113cf565b6005810154801590811561097c575b506108e1575b506108dc9061131d565b6108a1565b600460206108f861077a61077a600186015461016b565b604051634a435ab360e11b815292839182905afa90811561059b5760009161094e575b50156108d2576108dc9193610932610947926113e3565b61093c82896113cf565b526107d581886113cf565b92906108d2565b61096f915060203d8111610975575b6109678183610fcd565b81019061146e565b3861091b565b503d61095d565b9050421115386108cc565b8285526040518061027787826106a3565b508383106108ab565b9291906109b8602091604086526040860190610665565b930152565b346101885760403660031901126101885760065460243560043582821015610a77576109e99082611486565b81838211610a6f575b6109fb91611493565b610a048161137f565b9160005b828110610a2157505050610277604051928392836109a1565b80610a53610a4e610a49610a3f610a3a60019688611486565b610b0a565b90549060031b1c90565b610b81565b6113e3565b610a5d82876113cf565b52610a6881866113cf565b5001610a08565b8391506109f2565b60405162461bcd60e51b815260206004820152600e60248201526d125b9d985b1a59081bd9999cd95d60921b6044820152606490fd5b3461018857600036600319011261018857610ac661158c565b600080546001600160a01b0319811682556001600160a01b03166000805160206115b68339815191528280a3005b634e487b7160e01b600052603260045260246000fd5b600654811015610b2557600660005260206000200190600090565b610af4565b8054821015610b255760005260206000200190600090565b34610188576020366003190112610188576004356006548110156101885760066000526000805160206115f68339815191520154604051908152602090f35b6000526002602052604060002090565b9081526001600160a01b03918216602082015291811660408301529091166060820152608081019190915260a081019190915260e0810192916106639160c001906105f6565b346101885760203660031901126101885760043560005260026020526040600020805461027760018060a01b036001840154169260018060a01b036002820154169060018060a01b0360038201541660048201549060ff60066005850154940154169360405197889788610b91565b34610188576000366003190112610188576000546040516001600160a01b039091168152602090f35b60068110156105e0576000526005602052604060002090565b3461018857604036600319011261018857600435610ca5816101f7565b610cb160243591610c6f565b805482101561018857602091610cc691610b2a565b90549060031b1c604051908152f35b3461018857604036600319011261018857600435602435610cf5816101f7565b600082815260026020526040902060018101549091906001600160a01b03811615610d7e577f19cbfdfbc7748abcaf8232be4851f822437450e90472e2421d2667238909cbdf92610d54610d4d61077a60069461016b565b33146114a0565b01610d6a82610d64835460ff1690565b92611201565b610d79604051928392836114dc565b0390a2005b60405162461bcd60e51b815260206004820152600e60248201526d15185cdac81b9bdd08199bdd5b9960921b6044820152606490fd5b6001600160a01b0316600090815260046020526040902090565b3461018857604036600319011261018857600435610deb81610177565b6001600160a01b031660009081526004602052604090208054602435919082101561018857602091610cc691610b2a565b3461018857602036600319011261018857600435610e38611348565b50600052600260205260e0610e5060406000206113e3565b610e5d6040518092610603565bf35b34610188576000366003190112610188576020600354604051908152f35b3461018857602036600319011261018857600435610e9a81610177565b60018060a01b03166000526001602052602060ff604060002054166040519015158152f35b3461018857602036600319011261018857600435610edc81610177565b610ee461158c565b6001600160a01b03168015610f2457600080546001600160a01b03198116831782556001600160a01b0316906000805160206115b68339815191529080a3005b631e4fbdf760e01b600052600060045260246000fd5b34610188576020366003190112610188576004356001600160401b03811161018857366023820112156101885760048101356001600160401b038111610188573660248260051b84010111610188576024610f9592016114fa565b005b634e487b7160e01b600052604160045260246000fd5b60e081019081106001600160401b03821117610fc857604052565b610f97565b601f909101601f19168101906001600160401b03821190821017610fc857604052565b604051906006548083528260208101600660005260206000209260005b81811061102257505061066392500383610fcd565b845483526001948501948794506020909301920161100d565b906040519182815491828252602082019060005260206000209260005b81811061106d57505061066392500383610fcd565b8454835260019485019487945060209093019201611058565b1561108d57565b60405162461bcd60e51b81526020600482015260136024820152725461736b20616c72656164792065786973747360681b6044820152606490fd5b6040519061066360e083610fcd565b6040519061066361018083610fcd565b519061066382610177565b51906001600160601b038216820361018857565b5190610663826101f7565b90816101809103126101885761016060009161112b6110d7565b928151845261113c602083016110e7565b602085015261114d604083016110f2565b6040850152606082015160608501526080820151608085015260a082015160a085015260c082015160c085015260e082015160e085015261010082015161010085015261119d6101208301611106565b61012085015261014082015161014085015250015161016082015290565b6040513d6000823e3d90fd5b6001600160a01b039091169052565b60068210156105e05752565b80546001600160a01b0319166001600160a01b03909216919091179055565b9060068110156105e05760ff80198354169116179055565b600660c0610663938051845561123e60018060a01b03602083015116600186016111e2565b6040810151611259906001600160a01b0316600286016111e2565b6060810151611274906001600160a01b0316600386016111e2565b6080810151600485015560a08101516005850155015191611294836105d6565b01611201565b600654600160401b811015610fc85760018101600655600654811015610b255760066000526000805160206115f68339815191520155565b8054600160401b811015610fc8576112ef91600182018155610b2a565b819291549060031b91821b91600019901b1916179055565b634e487b7160e01b600052601160045260246000fd5b600019811461132c5760010190565b611307565b6001600160401b038111610fc85760051b60200190565b6040519061135582610fad565b600060c0838281528260208201528260408201528260608201528260808201528260a08201520152565b9061138982611331565b6113966040519182610fcd565b82815280926113a7601f1991611331565b019060005b8281106113b857505050565b6020906113c3611348565b828285010152016113ac565b8051821015610b255760209160051b010190565b906106636040516113f381610fad565b60c06114676006839680548552611419600182015460018060a01b0316602087016111c7565b611432611429600283015461016b565b604087016111c7565b61144b611442600383015461016b565b606087016111c7565b60048101546080860152600581015460a0860152015460ff1690565b91016111d6565b90816020910312610188575180151581036101885790565b9190820180921161132c57565b9190820391821161132c57565b156114a757565b60405162461bcd60e51b815260206004820152600d60248201526c4f6e6c79205461736b436f726560981b6044820152606490fd5b9160206106639294936114f38160408101976105f6565b01906105f6565b9061150361158c565b60005b81811061151257505050565b80611520600192848661157c565b3561152a81610177565b828060a01b03166000528160205260406000208260ff1982541617905561155281848661157c565b3561155c81610177565b828060a01b03166000805160206115d6833981519152600080a201611506565b9190811015610b255760051b0190565b6000546001600160a01b031633036115a057565b63118cdaa760e01b6000523360045260246000fdfe8be0079c531659141344cd1fd0a4f28419497f9722a3daafe3b4186f6b6457e02fa23115f2b369fc34eda97ccf6bc2fab82882719f0547f3e45a9a400086aeaef652222313e28459528d920b65115c16c04f3efc82aaedc97be59f3f377c0d3fa26469706673582212201f0fd085632a89c472889114d8f944a22a62f0b70e1d7bccfdc591eef812f2df64736f6c634300081c0033",
  "linkReferences": {},
  "deployedLinkReferences": {}
}