{
  "_format": "hh-sol-artifact-1",
  "contractName": "MockFHERC20",
  "sourceName": "contracts/mocks/MockFHERC20.sol",
  "abi": [
    {
      "inputs": [],
      "name": "InvalidShortString",
      "type": "error"
    },
    {
      "inputs": [],
      "name": "SignerNotMessageSender",
      "type": "error"
    },
    {
      "inputs": [],
      "name": "SignerNotOwner",
      "type": "error"
    },
    {
      "inputs": [
        {
          "internalType": "string",
          "name": "str",
          "type": "string"
        }
      ],
      "name": "StringTooLong",
      "type": "error"
    },
    {
      "anonymous": false,
      "inputs": [
        {
          "indexed": true,
          "internalType": "address",
          "name": "owner",
          "type": "address"
        },
        {
          "indexed": true,
          "internalType": "address",
          "name": "spender",
          "type": "address"
        }
      ],
      "name": "ApprovalEncrypted",
      "type": "event"
    },
    {
      "anonymous": false,
      "inputs": [],
      "name": "EIP712DomainChanged",
      "type": "event"
    },
    {
      "anonymous": false,
      "inputs": [
        {
          "indexed": true,
          "internalType": "address",
          "name": "from",
          "type": "address"
        },
        {
          "indexed": true,
          "internalType": "address",
          "name": "to",
          "type": "address"
        }
      ],
      "name": "TransferEncrypted",
      "type": "event"
    },
    {
      "inputs": [
        {
          "internalType": "address",
          "name": "to",
          "type": "address"
        },
        {
          "internalType": "euint128",
          "name": "value",
          "type": "uint256"
        }
      ],
      "name": "_transferEncrypted",
      "outputs": [
        {
          "internalType": "euint128",
          "name": "",
          "type": "uint256"
        }
      ],
      "stateMutability": "nonpayable",
      "type": "function"
    },
    {
      "inputs": [
        {
          "internalType": "address",
          "name": "from",
          "type": "address"
        },
        {
          "internalType": "address",
          "name": "to",
          "type": "address"
        },
        {
          "internalType": "euint128",
          "name": "value",
          "type": "uint256"
        }
      ],
      "name": "_transferFromEncrypted",
      "outputs": [
        {
          "internalType": "euint128",
          "name": "",
          "type": "uint256"
        }
      ],
      "stateMutability": "nonpayable",
      "type": "function"
    },
    {
      "inputs": [
        {
          "internalType": "address",
          "name": "owner",
          "type": "address"
        },
        {
          "internalType": "address",
          "name": "spender",
          "type": "address"
        },
        {
          "components": [
            {
              "internalType": "bytes32",
              "name": "publicKey",
              "type": "bytes32"
            },
            {
              "internalType": "bytes",
              "name": "signature",
              "type": "bytes"
            }
          ],
          "internalType": "struct Permission",
          "name": "permission",
          "type": "tuple"
        }
      ],
      "name": "allowanceEncrypted",
      "outputs": [
        {
          "internalType": "string",
          "name": "",
          "type": "string"
        }
      ],
      "stateMutability": "view",
      "type": "function"
    },
    {
      "inputs": [
        {
          "internalType": "address",
          "name": "spender",
          "type": "address"
        },
        {
          "components": [
            {
              "internalType": "bytes",
              "name": "data",
              "type": "bytes"
            },
            {
              "internalType": "int32",
              "name": "securityZone",
              "type": "int32"
            }
          ],
          "internalType": "struct inEuint128",
          "name": "value",
          "type": "tuple"
        }
      ],
      "name": "approveEncrypted",
      "outputs": [
        {
          "internalType": "bool",
          "name": "",
          "type": "bool"
        }
      ],
      "stateMutability": "nonpayable",
      "type": "function"
    },
    {
      "inputs": [
        {
          "internalType": "address",
          "name": "account",
          "type": "address"
        },
        {
          "components": [
            {
              "internalType": "bytes32",
              "name": "publicKey",
              "type": "bytes32"
            },
            {
              "internalType": "bytes",
              "name": "signature",
              "type": "bytes"
            }
          ],
          "internalType": "struct Permission",
          "name": "auth",
          "type": "tuple"
        }
      ],
      "name": "balanceOfEncrypted",
      "outputs": [
        {
          "internalType": "string",
          "name": "",
          "type": "string"
        }
      ],
      "stateMutability": "view",
      "type": "function"
    },
    {
      "inputs": [],
      "name": "eip712Domain",
      "outputs": [
        {
          "internalType": "bytes1",
          "name": "fields",
          "type": "bytes1"
        },
        {
          "internalType": "string",
          "name": "name",
          "type": "string"
        },
        {
          "internalType": "string",
          "name": "version",
          "type": "string"
        },
        {
          "internalType": "uint256",
          "name": "chainId",
          "type": "uint256"
        },
        {
          "internalType": "address",
          "name": "verifyingContract",
          "type": "address"
        },
        {
          "internalType": "bytes32",
          "name": "salt",
          "type": "bytes32"
        },
        {
          "internalType": "uint256[]",
          "name": "extensions",
          "type": "uint256[]"
        }
      ],
      "stateMutability": "view",
      "type": "function"
    },
    {
      "inputs": [
        {
          "internalType": "address",
          "name": "to",
          "type": "address"
        },
        {
          "components": [
            {
              "internalType": "bytes",
              "name": "data",
              "type": "bytes"
            },
            {
              "internalType": "int32",
              "name": "securityZone",
              "type": "int32"
            }
          ],
          "internalType": "struct inEuint128",
          "name": "amount",
          "type": "tuple"
        }
      ],
      "name": "mint",
      "outputs": [],
      "stateMutability": "nonpayable",
      "type": "function"
    },
    {
      "inputs": [
        {
          "internalType": "address",
          "name": "to",
          "type": "address"
        },
        {
          "components": [
            {
              "internalType": "bytes",
              "name": "data",
              "type": "bytes"
            },
            {
              "internalType": "int32",
              "name": "securityZone",
              "type": "int32"
            }
          ],
          "internalType": "struct inEuint128",
          "name": "value",
          "type": "tuple"
        }
      ],
      "name": "transferEncrypted",
      "outputs": [
        {
          "internalType": "euint128",
          "name": "",
          "type": "uint256"
        }
      ],
      "stateMutability": "nonpayable",
      "type": "function"
    },
    {
      "inputs": [
        {
          "internalType": "address",
          "name": "from",
          "type": "address"
        },
        {
          "internalType": "address",
          "name": "to",
          "type": "address"
        },
        {
          "components": [
            {
              "internalType": "bytes",
              "name": "data",
              "type": "bytes"
            },
            {
              "internalType": "int32",
              "name": "securityZone",
              "type": "int32"
            }
          ],
          "internalType": "struct inEuint128",
          "name": "value",
          "type": "tuple"
        }
      ],
      "name": "transferFromEncrypted",
      "outputs": [
        {
          "internalType": "euint128",
          "name": "",
          "type": "uint256"
        }
      ],
      "stateMutability": "nonpayable",
      "type": "function"
    }
  ],
  "bytecode": "610160604052348015610010575f5ffd5b506040805180820182526011815270233432b734bc102832b936b4b9b9b4b7b760791b602080830191909152825180840190935260038352620312e360ec1b908301529061005e825f610107565b6101205261006d816001610107565b61014052815160208084019190912060e052815190820120610100524660a0526100f960e05161010051604080517f8b73c3c69bb8fe3d512ecc4cf759cc79239f7b179b0ffacaa9a75d522b39400f60208201529081019290925260608201524660808201523060a08201525f9060c00160405160208183030381529060405280519060200120905090565b60805250503060c052610329565b5f6020835110156101225761011b83610139565b9050610133565b8161012d8482610217565b5060ff90505b92915050565b5f5f829050601f8151111561016c578260405163305a27a960e01b815260040161016391906102d1565b60405180910390fd5b805161017782610306565b179392505050565b634e487b7160e01b5f52604160045260245ffd5b600181811c908216806101a757607f821691505b6020821081036101c557634e487b7160e01b5f52602260045260245ffd5b50919050565b601f82111561021257805f5260205f20601f840160051c810160208510156101f05750805b601f840160051c820191505b8181101561020f575f81556001016101fc565b50505b505050565b81516001600160401b038111156102305761023061017f565b6102448161023e8454610193565b846101cb565b6020601f821160018114610276575f831561025f5750848201515b5f19600385901b1c1916600184901b17845561020f565b5f84815260208120601f198516915b828110156102a55787850151825560209485019460019092019101610285565b50848210156102c257868401515f19600387901b60f8161c191681555b50505050600190811b01905550565b602081525f82518060208401528060208501604085015e5f604082850101526040601f19601f83011684010191505092915050565b805160208083015191908110156101c5575f1960209190910360031b1b16919050565b60805160a05160c05160e051610100516101205161014051610e2561036b5f395f6105d001525f61059f01525f50505f50505f50505f50505f5050610e255ff3fe608060405234801561000f575f5ffd5b5060043610610081575f3560e01c8063398038ac1461008557806360277204146100ad5780638468bfc0146100db57806384b0196e146100fc578063bf34a8ab14610117578063ce03f2e11461012a578063d1f3317c1461013d578063dfbe0e2c14610152578063f9e23e0514610165575b5f5ffd5b6100986100933660046108ca565b610188565b60405190151581526020015b60405180910390f35b6100ce6100bb366004610a46565b505060408051602081019091525f815290565b6040516100a49190610ab4565b6100ee6100e9366004610ac6565b610191565b6040519081526020016100a4565b61010461023d565b6040516100a49796959493929190610b00565b6100ee610125366004610b96565b61027f565b6100ee6101383660046108ca565b61031e565b61015061014b3660046108ca565b6103d4565b005b6100ee610160366004610bbe565b61045f565b6100ce610173366004610c17565b60408051602081019091525f81529392505050565b60015b92915050565b6001600160a01b0383165f908152600260205260408120546101b3908361051d565b6001600160a01b038581165f9081526002602052604080822093909355908516815220541561021b576001600160a01b0383165f908152600260205260409020546101fe9083610560565b6001600160a01b0384165f90815260026020526040902055610236565b6001600160a01b0383165f9081526002602052604090208290555b5092915050565b5f6060805f5f5f606061024e610598565b6102566105c9565b604080515f80825260208201909252600f60f81b9b939a50919850469750309650945092509050565b335f90815260026020526040812054610298908361051d565b335f90815260026020526040808220929092556001600160a01b03851681522054156102fd576001600160a01b0383165f908152600260205260409020546102e09083610560565b6001600160a01b0384165f90815260026020526040902055610318565b6001600160a01b0383165f9081526002602052604090208290555b50919050565b5f8061033161032c84610c66565b6105f6565b335f9081526002602052604090205490915061034d908261051d565b335f90815260026020526040808220929092556001600160a01b03861681522054156103b2576001600160a01b0384165f908152600260205260409020546103959082610560565b6001600160a01b0385165f908152600260205260409020556103cd565b6001600160a01b0384165f9081526002602052604090208190555b9392505050565b5f6103e161032c83610c66565b6001600160a01b0384165f9081526002602052604090205490915015610440576001600160a01b0383165f908152600260205260409020546104239082610560565b6001600160a01b0384165f90815260026020526040902055505050565b6001600160a01b0383165f908152600260205260409020819055505050565b5f8061046d61032c84610c66565b6001600160a01b0386165f90815260026020526040902054909150610492908261051d565b6001600160a01b038681165f908152600260205260408082209390935590861681522054156104fa576001600160a01b0384165f908152600260205260409020546104dd9082610560565b6001600160a01b0385165f90815260026020526040902055610515565b6001600160a01b0384165f9081526002602052604090208190555b949350505050565b5f8261052f5761052c5f610608565b92505b816105405761053d5f610608565b91505b82825f61055660048484608063cc2cbeff610615565b9695505050505050565b5f826105725761056f5f610608565b92505b81610583576105805f610608565b91505b82825f610556600484846080622df619610615565b60606105c47f00000000000000000000000000000000000000000000000000000000000000005f6106a4565b905090565b60606105c47f000000000000000000000000000000000000000000000000000000000000000060016106a4565b5f61018b825f0151836020015161074d565b5f61018b8260045f61075a565b5f6060838388610624896107e4565b61062d896107e4565b6040518463ffffffff1660e01b815260040161064b93929190610cc0565b5f60405180830381865afa158015610665573d5f5f3e3d5ffd5b505050506040513d5f823e601f3d908101601f1916820160405261068c9190810190610ced565b9050610699816020015190565b979650505050505050565b606060ff83146106be576106b78361080e565b905061018b565b8180546106ca90610d61565b80601f01602080910402602001604051908101604052809291908181526020018280546106f690610d61565b80156107415780601f1061071857610100808354040283529160200191610741565b820191905f5260205f20905b81548152906001019060200180831161072457829003601f168201915b5050505050905061018b565b5f6103cd8360048461084b565b5f6060608063ba19ac2861076d876107e4565b86866040518463ffffffff1660e01b815260040161078d93929190610d93565b5f60405180830381865afa1580156107a7573d5f5f3e3d5ffd5b505050506040513d5f823e601f3d908101601f191682016040526107ce9190810190610ced565b90506107db816020015190565b95945050505050565b60408051602080825281830190925260609160208201818036833750505060208101929092525090565b60605f61081a83610878565b6040805160208082528183019092529192505f91906020820181803683375050509182525060208101929092525090565b6040516321b50ba360e01b81525f906060906080906321b50ba39061078d90879089908890600401610dc1565b5f60ff8216601f81111561018b57604051632cd44ac360e21b815260040160405180910390fd5b80356001600160a01b03811681146108b5575f5ffd5b919050565b5f60408284031215610318575f5ffd5b5f5f604083850312156108db575f5ffd5b6108e48361089f565b915060208301356001600160401b038111156108fe575f5ffd5b61090a858286016108ba565b9150509250929050565b634e487b7160e01b5f52604160045260245ffd5b604080519081016001600160401b038111828210171561094a5761094a610914565b60405290565b604051601f8201601f191681016001600160401b038111828210171561097857610978610914565b604052919050565b5f6001600160401b0382111561099857610998610914565b50601f01601f191660200190565b5f82601f8301126109b5575f5ffd5b81356109c86109c382610980565b610950565b8181528460208386010111156109dc575f5ffd5b816020850160208301375f918101602001919091529392505050565b5f60408284031215610a08575f5ffd5b610a10610928565b82358152905060208201356001600160401b03811115610a2e575f5ffd5b610a3a848285016109a6565b60208301525092915050565b5f5f60408385031215610a57575f5ffd5b610a608361089f565b915060208301356001600160401b03811115610a7a575f5ffd5b61090a858286016109f8565b5f81518084528060208401602086015e5f602082860101526020601f19601f83011685010191505092915050565b602081525f6103cd6020830184610a86565b5f5f5f60608486031215610ad8575f5ffd5b610ae18461089f565b9250610aef6020850161089f565b929592945050506040919091013590565b60ff60f81b8816815260e060208201525f610b1e60e0830189610a86565b8281036040840152610b308189610a86565b606084018890526001600160a01b038716608085015260a0840186905283810360c0850152845180825260208087019350909101905f5b81811015610b85578351835260209384019390920191600101610b67565b50909b9a5050505050505050505050565b5f5f60408385031215610ba7575f5ffd5b610bb08361089f565b946020939093013593505050565b5f5f5f60608486031215610bd0575f5ffd5b610bd98461089f565b9250610be76020850161089f565b915060408401356001600160401b03811115610c01575f5ffd5b610c0d868287016108ba565b9150509250925092565b5f5f5f60608486031215610c29575f5ffd5b610c328461089f565b9250610c406020850161089f565b915060408401356001600160401b03811115610c5a575f5ffd5b610c0d868287016109f8565b5f60408236031215610c76575f5ffd5b610c7e610928565b82356001600160401b03811115610c93575f5ffd5b610c9f368286016109a6565b82525060208301358060030b8114610cb5575f5ffd5b602082015292915050565b60ff84168152606060208201525f610cdb6060830185610a86565b82810360408401526105568185610a86565b5f60208284031215610cfd575f5ffd5b81516001600160401b03811115610d12575f5ffd5b8201601f81018413610d22575f5ffd5b8051610d306109c382610980565b818152856020838501011115610d44575f5ffd5b8160208401602083015e5f91810160200191909152949350505050565b600181811c90821680610d7557607f821691505b60208210810361031857634e487b7160e01b5f52602260045260245ffd5b606081525f610da56060830186610a86565b905060ff841660208301528260030b6040830152949350505050565b60ff84168152606060208201525f610ddc6060830185610a86565b90508260030b604083015294935050505056fea2646970667358221220ca47c4ac6aa0bf0ab0ba5d8c71a5ff0c79824acdf6a03e23108f777a89b80bca64736f6c634300081c0033",
  "linkReferences": {},
  "deployedLinkReferences": {}
}