{
  "_format": "hh-sol-artifact-1",
  "contractName": "RewardManager",
  "sourceName": "contracts/support/RewardManager.sol",
  "abi": [
    {
      "inputs": [
        {
          "internalType": "address",
          "name": "_owner",
          "type": "address"
        }
      ],
      "stateMutability": "nonpayable",
      "type": "constructor"
    },
    {
      "inputs": [],
      "name": "InsufficientVaultBalance",
      "type": "error"
    },
    {
      "inputs": [],
      "name": "InvalidFeePercentage",
      "type": "error"
    },
    {
      "inputs": [],
      "name": "OnlyTaskLogic",
      "type": "error"
    },
    {
      "inputs": [
        {
          "internalType": "address",
          "name": "owner",
          "type": "address"
        }
      ],
      "name": "OwnableInvalidOwner",
      "type": "error"
    },
    {
      "inputs": [
        {
          "internalType": "address",
          "name": "account",
          "type": "address"
        }
      ],
      "name": "OwnableUnauthorizedAccount",
      "type": "error"
    },
    {
      "inputs": [],
      "name": "ReentrancyGuardReentrantCall",
      "type": "error"
    },
    {
      "anonymous": false,
      "inputs": [
        {
          "indexed": false,
          "internalType": "uint256",
          "name": "calc",
          "type": "uint256"
        }
      ],
      "name": "Calcuated",
      "type": "event"
    },
    {
      "anonymous": false,
      "inputs": [
        {
          "indexed": true,
          "internalType": "address",
          "name": "previousOwner",
          "type": "address"
        },
        {
          "indexed": true,
          "internalType": "address",
          "name": "newOwner",
          "type": "address"
        }
      ],
      "name": "OwnershipTransferred",
      "type": "event"
    },
    {
      "anonymous": false,
      "inputs": [
        {
          "indexed": true,
          "internalType": "address",
          "name": "recipient",
          "type": "address"
        },
        {
          "indexed": false,
          "internalType": "uint256",
          "name": "amount",
          "type": "uint256"
        }
      ],
      "name": "PlatformFeeCollected",
      "type": "event"
    },
    {
      "anonymous": false,
      "inputs": [
        {
          "indexed": false,
          "internalType": "uint256",
          "name": "oldFee",
          "type": "uint256"
        },
        {
          "indexed": false,
          "internalType": "uint256",
          "name": "newFee",
          "type": "uint256"
        }
      ],
      "name": "PlatformFeeUpdated",
      "type": "event"
    },
    {
      "anonymous": false,
      "inputs": [
        {
          "indexed": true,
          "internalType": "uint256",
          "name": "taskId",
          "type": "uint256"
        },
        {
          "indexed": true,
          "internalType": "address",
          "name": "executor",
          "type": "address"
        },
        {
          "indexed": false,
          "internalType": "uint256",
          "name": "executorReward",
          "type": "uint256"
        },
        {
          "indexed": false,
          "internalType": "uint256",
          "name": "platformFee",
          "type": "uint256"
        },
        {
          "indexed": false,
          "internalType": "uint256",
          "name": "gasReimbursement",
          "type": "uint256"
        }
      ],
      "name": "RewardDistributed",
      "type": "event"
    },
    {
      "inputs": [],
      "name": "BASIS_POINTS",
      "outputs": [
        {
          "internalType": "uint256",
          "name": "",
          "type": "uint256"
        }
      ],
      "stateMutability": "view",
      "type": "function"
    },
    {
      "inputs": [],
      "name": "MAX_PLATFORM_FEE",
      "outputs": [
        {
          "internalType": "uint256",
          "name": "",
          "type": "uint256"
        }
      ],
      "stateMutability": "view",
      "type": "function"
    },
    {
      "inputs": [
        {
          "internalType": "uint256",
          "name": "baseReward",
          "type": "uint256"
        },
        {
          "internalType": "address",
          "name": "executor",
          "type": "address"
        },
        {
          "internalType": "uint256",
          "name": "gasUsed",
          "type": "uint256"
        }
      ],
      "name": "calculateReward",
      "outputs": [
        {
          "components": [
            {
              "internalType": "uint256",
              "name": "executorReward",
              "type": "uint256"
            },
            {
              "internalType": "uint256",
              "name": "platformFee",
              "type": "uint256"
            },
            {
              "internalType": "uint256",
              "name": "gasReimbursement",
              "type": "uint256"
            },
            {
              "internalType": "uint256",
              "name": "totalFromVault",
              "type": "uint256"
            }
          ],
          "internalType": "struct IRewardManager.RewardCalculation",
          "name": "",
          "type": "tuple"
        }
      ],
      "stateMutability": "view",
      "type": "function"
    },
    {
      "inputs": [
        {
          "internalType": "address",
          "name": "recipient",
          "type": "address"
        }
      ],
      "name": "collectFees",
      "outputs": [
        {
          "internalType": "uint256",
          "name": "amount",
          "type": "uint256"
        }
      ],
      "stateMutability": "nonpayable",
      "type": "function"
    },
    {
      "inputs": [
        {
          "internalType": "address",
          "name": "vault",
          "type": "address"
        },
        {
          "internalType": "address",
          "name": "executor",
          "type": "address"
        },
        {
          "internalType": "uint256",
          "name": "baseReward",
          "type": "uint256"
        },
        {
          "internalType": "uint256",
          "name": "gasUsed",
          "type": "uint256"
        }
      ],
      "name": "distributeReward",
      "outputs": [
        {
          "internalType": "uint256",
          "name": "totalPaid",
          "type": "uint256"
        }
      ],
      "stateMutability": "nonpayable",
      "type": "function"
    },
    {
      "inputs": [],
      "name": "executorHub",
      "outputs": [
        {
          "internalType": "address",
          "name": "",
          "type": "address"
        }
      ],
      "stateMutability": "view",
      "type": "function"
    },
    {
      "inputs": [],
      "name": "gasReimbursementMultiplier",
      "outputs": [
        {
          "internalType": "uint256",
          "name": "",
          "type": "uint256"
        }
      ],
      "stateMutability": "view",
      "type": "function"
    },
    {
      "inputs": [
        {
          "internalType": "address",
          "name": "executor",
          "type": "address"
        }
      ],
      "name": "getReputationMultiplier",
      "outputs": [
        {
          "internalType": "uint256",
          "name": "",
          "type": "uint256"
        }
      ],
      "stateMutability": "view",
      "type": "function"
    },
    {
      "inputs": [],
      "name": "owner",
      "outputs": [
        {
          "internalType": "address",
          "name": "",
          "type": "address"
        }
      ],
      "stateMutability": "view",
      "type": "function"
    },
    {
      "inputs": [],
      "name": "platformFeePercentage",
      "outputs": [
        {
          "internalType": "uint256",
          "name": "",
          "type": "uint256"
        }
      ],
      "stateMutability": "view",
      "type": "function"
    },
    {
      "inputs": [],
      "name": "renounceOwnership",
      "outputs": [],
      "stateMutability": "nonpayable",
      "type": "function"
    },
    {
      "inputs": [
        {
          "internalType": "address",
          "name": "_executorHub",
          "type": "address"
        }
      ],
      "name": "setExecutorHub",
      "outputs": [],
      "stateMutability": "nonpayable",
      "type": "function"
    },
    {
      "inputs": [
        {
          "internalType": "uint256",
          "name": "_multiplier",
          "type": "uint256"
        }
      ],
      "name": "setGasReimbursementMultiplier",
      "outputs": [],
      "stateMutability": "nonpayable",
      "type": "function"
    },
    {
      "inputs": [
        {
          "internalType": "uint256",
          "name": "feePercentage",
          "type": "uint256"
        }
      ],
      "name": "setPlatformFee",
      "outputs": [],
      "stateMutability": "nonpayable",
      "type": "function"
    },
    {
      "inputs": [
        {
          "internalType": "address",
          "name": "_taskLogic",
          "type": "address"
        }
      ],
      "name": "setTaskLogic",
      "outputs": [],
      "stateMutability": "nonpayable",
      "type": "function"
    },
    {
      "inputs": [],
      "name": "taskLogic",
      "outputs": [
        {
          "internalType": "address",
          "name": "",
          "type": "address"
        }
      ],
      "stateMutability": "view",
      "type": "function"
    },
    {
      "inputs": [],
      "name": "totalFeesCollected",
      "outputs": [
        {
          "internalType": "uint256",
          "name": "",
          "type": "uint256"
        }
      ],
      "stateMutability": "view",
      "type": "function"
    },
    {
      "inputs": [
        {
          "internalType": "address",
          "name": "newOwner",
          "type": "address"
        }
      ],
      "name": "transferOwnership",
      "outputs": [],
      "stateMutability": "nonpayable",
      "type": "function"
    },
    {
      "stateMutability": "payable",
      "type": "receive"
    }
  ],
  "bytecode": "60803460ca57601f610df738819003918201601f19168301916001600160401b0383118484101760cf5780849260209460405283398101031260ca57516001600160a01b0381169081900360ca57801560b457600080546001600160a01b031981168317825560405192916001600160a01b03909116907f8be0079c531659141344cd1fd0a4f28419497f9722a3daafe3b4186f6b6457e09080a36001805560646004556078600655610d1190816100e68239f35b631e4fbdf760e01b600052600060045260246000fd5b600080fd5b634e487b7160e01b600052604160045260246000fdfe6080604052600436101561001b575b361561001957600080fd5b005b6000803560e01c806312e8e2c314610972578063242a4a89146108f55780633998a681146108d85780633ca78f841461080757806360c6d8ae146107e9578063715018a6146107a157806386dc11be146107785780638da5cb5b1461075157806393924b3d14610733578063a480ca79146105ea578063b107e88c146105be578063b2681865146102ba578063b8278f751461023f578063cce2095414610216578063cdd78cfc146101f8578063e1f1c4a7146101db578063ecfc1c66146101635763f2fde38b146100ed575061000e565b34610160576020366003190112610160576101066109e1565b61010e610c50565b6001600160a01b0316801561014c5781546001600160a01b03198116821783556001600160a01b0316600080516020610cbc8339815191528380a380f35b631e4fbdf760e01b82526004829052602482fd5b80fd5b503461016057602036600319011261016057600435610180610c50565b6064811015806101d0575b156101965760065580f35b60405162461bcd60e51b815260206004820152601260248201527124b73b30b634b21036bab63a34b83634b2b960711b6044820152606490fd5b5060c881111561018b565b503461016057806003193601126101605760206040516127108152f35b50346101605780600319360112610160576020600454604051908152f35b50346101605780600319360112610160576003546040516001600160a01b039091168152602090f35b5034610160576020366003190112610160576102596109e1565b610261610c50565b6001600160a01b0316801561028757600380546001600160a01b03191691909117905580f35b60405162461bcd60e51b815260206004820152600b60248201526a24b73b30b634b210343ab160a91b6044820152606490fd5b5034610160576080366003190112610160576102d46109e1565b6102dc6109fc565b6002549091906001600160a01b031633036105af576102f9610c79565b60405191630f29e3e160e21b8352604435600484015260018060a01b038116918260248501526064356044850152608084606481305afa9384156105a457859461053f575b50604051630fd722f760e31b8152936001600160a01b03919091169190602085600481865afa948515610534578695610500575b5060608101947f670f44d8778ee5b49277af4574123011d92d5912397a8daf5347b76c4ebb05ae60208751604051908152a18551116104f157805191866103bf6040840194855190610a8f565b853b156104ed57604051637aa0e40960e11b815292839182916103e6919060048401610c35565b038183885af180156104ca576104d9575b506020810192835180610441575b505060209592600080516020610c9c83398151915292606092519151905190604051928352888301526040820152a35160018055604051908152f35b908791813b156104d557829161046e91604051948580948193637aa0e40960e11b83523060048401610c35565b03925af180156104ca576104b1575b5082600080516020610c9c833981519152926060926104a26020999651600554610a8f565b60055592509281949750610405565b6104bc878092610a43565b6104c6573861047d565b8580fd5b6040513d89823e3d90fd5b8280fd5b866104e691979297610a43565b94386103f7565b5080fd5b6314ecd6c760e01b8652600486fd5b9094506020813d60201161052c575b8161051c60209383610a43565b810103126104c657519338610372565b3d915061050f565b6040513d88823e3d90fd5b9093506080813d60801161059c575b8161055b60809383610a43565b810103126105985760606040519161057283610a12565b80518352602081015160208401526040810151604084015201516060820152923861033e565b8480fd5b3d915061054e565b6040513d87823e3d90fd5b631792885560e11b8352600483fd5b50346101605760203660031901126101605760206105e26105dd6109e1565b610abd565b604051908152f35b5034610160576020366003190112610160576106046109e1565b61060c610c50565b610614610c79565b6001600160a01b0381169182156106fa57808080806005548096826005555af1903d156106f4573d906001600160401b0382116106e05760405191610663601f8201601f191660200184610a43565b825260203d92013e5b156106a9576020917fd0a602bb26e23a82d1071b569dda4305120744b857e3d08eb1779d5d3478c54183604051848152a260018055604051908152f35b60405162461bcd60e51b815260206004820152600f60248201526e151c985b9cd9995c8819985a5b1959608a1b6044820152606490fd5b634e487b7160e01b81526041600452602490fd5b5061066c565b60405162461bcd60e51b8152602060048201526011602482015270125b9d985b1a59081c9958da5c1a595b9d607a1b6044820152606490fd5b50346101605780600319360112610160576020600654604051908152f35b5034610160578060031936011261016057546040516001600160a01b039091168152602090f35b50346101605780600319360112610160576002546040516001600160a01b039091168152602090f35b50346101605780600319360112610160576107ba610c50565b80546001600160a01b03198116825581906001600160a01b0316600080516020610cbc8339815191528280a380f35b50346101605780600319360112610160576020600554604051908152f35b50346101605760603660031901126101605760809061271061086b8161086061085a600435956108356109fc565b90606060405161084481610a12565b8281528260208201528260408201520152610abd565b85610a66565b049260045490610a66565b04606461088661087d3a604435610a66565b60065490610a66565b0461089a816108958486610a8f565b610a8f565b9160606040516108a981610a12565b858152602081019283526040810193845201928352604051938452516020840152516040830152516060820152f35b503461016057806003193601126101605760206040516101f48152f35b50346101605760203660031901126101605761090f6109e1565b610917610c50565b6001600160a01b0316801561093d57600280546001600160a01b03191691909117905580f35b60405162461bcd60e51b815260206004820152600d60248201526c496e76616c6964206c6f67696360981b6044820152606490fd5b50346101605760203660031901126101605760043561098f610c50565b6101f481116109d25760407fd347e206f25a89b917fc9482f1a2d294d749baa4dc9bde7fb495ee11fe49164391600454908060045582519182526020820152a180f35b63390edff560e11b8252600482fd5b600435906001600160a01b03821682036109f757565b600080fd5b602435906001600160a01b03821682036109f757565b608081019081106001600160401b03821117610a2d57604052565b634e487b7160e01b600052604160045260246000fd5b601f909101601f19168101906001600160401b03821190821017610a2d57604052565b81810292918115918404141715610a7957565b634e487b7160e01b600052601160045260246000fd5b91908201809211610a7957565b51906001600160801b03821682036109f757565b519081151582036109f757565b6003546001600160a01b0316908115610c2d57604051633088c98160e11b81526001600160a01b0390911660048201529061012090829060249082905afa908115610c2157600091610b39575b5060c001516109c48102908082046109c41490151715610a79576127109004612710018061271011610a795790565b610120813d8211610c19575b81610b536101209383610a43565b810103126104ed576040519161012083016001600160401b03811184821017610c05576040528151906001600160a01b038216820361016057506101008392610bf99260c09552610ba660208201610a9c565b6020850152610bb760408201610a9c565b6040850152606081015160608501526080810151608085015260a081015160a08501528481015185850152610bee60e08201610ab0565b60e085015201610ab0565b61010082015290610b0a565b634e487b7160e01b82526041600452602482fd5b3d9150610b45565b6040513d6000823e3d90fd5b505061271090565b6001600160a01b039091168152602081019190915260400190565b6000546001600160a01b03163303610c6457565b63118cdaa760e01b6000523360045260246000fd5b600260015414610c8a576002600155565b633ee5aeb560e01b60005260046000fdfe620103005e5eb3673de8b3b045de368f3a37ce9622d29a657f1c37430865807c8be0079c531659141344cd1fd0a4f28419497f9722a3daafe3b4186f6b6457e0a26469706673582212208360e437b6d4599410f4e0d9c7645db68f1920206e15de453778333df001f3ee64736f6c634300081c0033",
  "linkReferences": {},
  "deployedLinkReferences": {}
}