{
  "_format": "hh-sol-artifact-1",
  "contractName": "TaskFactory",
  "sourceName": "contracts/core/TaskFactory.sol",
  "abi": [
    {
      "inputs": [
        {
          "internalType": "address",
          "name": "_taskCoreImpl",
          "type": "address"
        },
        {
          "internalType": "address",
          "name": "_taskVaultImpl",
          "type": "address"
        },
        {
          "internalType": "address",
          "name": "_taskLogic",
          "type": "address"
        },
        {
          "internalType": "address",
          "name": "_executorHub",
          "type": "address"
        },
        {
          "internalType": "address",
          "name": "_actionRegistry",
          "type": "address"
        },
        {
          "internalType": "address",
          "name": "_rewardManager",
          "type": "address"
        },
        {
          "internalType": "address",
          "name": "_owner",
          "type": "address"
        }
      ],
      "stateMutability": "nonpayable",
      "type": "constructor"
    },
    {
      "inputs": [],
      "name": "DeploymentFailed",
      "type": "error"
    },
    {
      "inputs": [],
      "name": "FailedDeployment",
      "type": "error"
    },
    {
      "inputs": [
        {
          "internalType": "uint256",
          "name": "balance",
          "type": "uint256"
        },
        {
          "internalType": "uint256",
          "name": "needed",
          "type": "uint256"
        }
      ],
      "name": "InsufficientBalance",
      "type": "error"
    },
    {
      "inputs": [],
      "name": "InsufficientCreationFee",
      "type": "error"
    },
    {
      "inputs": [],
      "name": "InvalidActions",
      "type": "error"
    },
    {
      "inputs": [],
      "name": "InvalidExpiration",
      "type": "error"
    },
    {
      "inputs": [],
      "name": "InvalidReward",
      "type": "error"
    },
    {
      "inputs": [
        {
          "internalType": "address",
          "name": "owner",
          "type": "address"
        }
      ],
      "name": "OwnableInvalidOwner",
      "type": "error"
    },
    {
      "inputs": [
        {
          "internalType": "address",
          "name": "account",
          "type": "address"
        }
      ],
      "name": "OwnableUnauthorizedAccount",
      "type": "error"
    },
    {
      "inputs": [],
      "name": "ReentrancyGuardReentrantCall",
      "type": "error"
    },
    {
      "inputs": [
        {
          "internalType": "address",
          "name": "token",
          "type": "address"
        }
      ],
      "name": "SafeERC20FailedOperation",
      "type": "error"
    },
    {
      "anonymous": false,
      "inputs": [
        {
          "indexed": false,
          "internalType": "uint256",
          "name": "oldFee",
          "type": "uint256"
        },
        {
          "indexed": false,
          "internalType": "uint256",
          "name": "newFee",
          "type": "uint256"
        }
      ],
      "name": "CreationFeeUpdated",
      "type": "event"
    },
    {
      "anonymous": false,
      "inputs": [
        {
          "indexed": false,
          "internalType": "uint256",
          "name": "oldMin",
          "type": "uint256"
        },
        {
          "indexed": false,
          "internalType": "uint256",
          "name": "newMin",
          "type": "uint256"
        }
      ],
      "name": "MinTaskRewardUpdated",
      "type": "event"
    },
    {
      "anonymous": false,
      "inputs": [
        {
          "indexed": true,
          "internalType": "address",
          "name": "previousOwner",
          "type": "address"
        },
        {
          "indexed": true,
          "internalType": "address",
          "name": "newOwner",
          "type": "address"
        }
      ],
      "name": "OwnershipTransferred",
      "type": "event"
    },
    {
      "anonymous": false,
      "inputs": [
        {
          "indexed": true,
          "internalType": "uint256",
          "name": "taskId",
          "type": "uint256"
        },
        {
          "indexed": true,
          "internalType": "address",
          "name": "creator",
          "type": "address"
        },
        {
          "indexed": true,
          "internalType": "address",
          "name": "taskCore",
          "type": "address"
        },
        {
          "indexed": false,
          "internalType": "address",
          "name": "taskVault",
          "type": "address"
        },
        {
          "indexed": false,
          "internalType": "uint256",
          "name": "reward",
          "type": "uint256"
        },
        {
          "indexed": false,
          "internalType": "uint256",
          "name": "maxExecutions",
          "type": "uint256"
        }
      ],
      "name": "TaskCreated",
      "type": "event"
    },
    {
      "inputs": [],
      "name": "actionRegistry",
      "outputs": [
        {
          "internalType": "address",
          "name": "",
          "type": "address"
        }
      ],
      "stateMutability": "view",
      "type": "function"
    },
    {
      "inputs": [
        {
          "components": [
            {
              "internalType": "uint256",
              "name": "expiresAt",
              "type": "uint256"
            },
            {
              "internalType": "uint256",
              "name": "maxExecutions",
              "type": "uint256"
            },
            {
              "internalType": "uint256",
              "name": "recurringInterval",
              "type": "uint256"
            },
            {
              "internalType": "uint256",
              "name": "rewardPerExecution",
              "type": "uint256"
            },
            {
              "internalType": "bytes32",
              "name": "seedCommitment",
              "type": "bytes32"
            }
          ],
          "internalType": "struct ITaskFactory.TaskParams",
          "name": "params",
          "type": "tuple"
        },
        {
          "components": [
            {
              "internalType": "bytes4",
              "name": "selector",
              "type": "bytes4"
            },
            {
              "internalType": "address",
              "name": "protocol",
              "type": "address"
            },
            {
              "internalType": "bytes",
              "name": "params",
              "type": "bytes"
            }
          ],
          "internalType": "struct ITaskFactory.ActionParams[]",
          "name": "actions",
          "type": "tuple[]"
        }
      ],
      "name": "createTask",
      "outputs": [
        {
          "internalType": "uint256",
          "name": "taskId",
          "type": "uint256"
        },
        {
          "internalType": "address",
          "name": "taskCore",
          "type": "address"
        },
        {
          "internalType": "address",
          "name": "taskVault",
          "type": "address"
        }
      ],
      "stateMutability": "payable",
      "type": "function"
    },
    {
      "inputs": [
        {
          "components": [
            {
              "internalType": "uint256",
              "name": "expiresAt",
              "type": "uint256"
            },
            {
              "internalType": "uint256",
              "name": "maxExecutions",
              "type": "uint256"
            },
            {
              "internalType": "uint256",
              "name": "recurringInterval",
              "type": "uint256"
            },
            {
              "internalType": "uint256",
              "name": "rewardPerExecution",
              "type": "uint256"
            },
            {
              "internalType": "bytes32",
              "name": "seedCommitment",
              "type": "bytes32"
            }
          ],
          "internalType": "struct ITaskFactory.TaskParams",
          "name": "params",
          "type": "tuple"
        },
        {
          "components": [
            {
              "internalType": "bytes4",
              "name": "selector",
              "type": "bytes4"
            },
            {
              "internalType": "address",
              "name": "protocol",
              "type": "address"
            },
            {
              "internalType": "bytes",
              "name": "params",
              "type": "bytes"
            }
          ],
          "internalType": "struct ITaskFactory.ActionParams[]",
          "name": "actions",
          "type": "tuple[]"
        },
        {
          "components": [
            {
              "internalType": "address",
              "name": "token",
              "type": "address"
            },
            {
              "internalType": "uint256",
              "name": "amount",
              "type": "uint256"
            }
          ],
          "internalType": "struct ITaskFactory.TokenDeposit[]",
          "name": "deposits",
          "type": "tuple[]"
        }
      ],
      "name": "createTaskWithTokens",
      "outputs": [
        {
          "internalType": "uint256",
          "name": "taskId",
          "type": "uint256"
        },
        {
          "internalType": "address",
          "name": "taskCore",
          "type": "address"
        },
        {
          "internalType": "address",
          "name": "taskVault",
          "type": "address"
        }
      ],
      "stateMutability": "payable",
      "type": "function"
    },
    {
      "inputs": [],
      "name": "creationFee",
      "outputs": [
        {
          "internalType": "uint256",
          "name": "",
          "type": "uint256"
        }
      ],
      "stateMutability": "view",
      "type": "function"
    },
    {
      "inputs": [],
      "name": "executorHub",
      "outputs": [
        {
          "internalType": "address",
          "name": "",
          "type": "address"
        }
      ],
      "stateMutability": "view",
      "type": "function"
    },
    {
      "inputs": [
        {
          "internalType": "uint256",
          "name": "taskId",
          "type": "uint256"
        }
      ],
      "name": "getTask",
      "outputs": [
        {
          "components": [
            {
              "internalType": "uint256",
              "name": "taskId",
              "type": "uint256"
            },
            {
              "internalType": "address",
              "name": "taskCore",
              "type": "address"
            },
            {
              "internalType": "address",
              "name": "taskVault",
              "type": "address"
            },
            {
              "internalType": "address",
              "name": "creator",
              "type": "address"
            }
          ],
          "internalType": "struct ITaskFactory.DeployedTask",
          "name": "",
          "type": "tuple"
        }
      ],
      "stateMutability": "view",
      "type": "function"
    },
    {
      "inputs": [
        {
          "internalType": "uint256",
          "name": "taskId",
          "type": "uint256"
        }
      ],
      "name": "getTaskAddresses",
      "outputs": [
        {
          "internalType": "address",
          "name": "taskCore",
          "type": "address"
        },
        {
          "internalType": "address",
          "name": "taskVault",
          "type": "address"
        }
      ],
      "stateMutability": "view",
      "type": "function"
    },
    {
      "inputs": [],
      "name": "globalRegistry",
      "outputs": [
        {
          "internalType": "address",
          "name": "",
          "type": "address"
        }
      ],
      "stateMutability": "view",
      "type": "function"
    },
    {
      "inputs": [],
      "name": "maxTaskDuration",
      "outputs": [
        {
          "internalType": "uint256",
          "name": "",
          "type": "uint256"
        }
      ],
      "stateMutability": "view",
      "type": "function"
    },
    {
      "inputs": [],
      "name": "minTaskReward",
      "outputs": [
        {
          "internalType": "uint256",
          "name": "",
          "type": "uint256"
        }
      ],
      "stateMutability": "view",
      "type": "function"
    },
    {
      "inputs": [],
      "name": "nextTaskId",
      "outputs": [
        {
          "internalType": "uint256",
          "name": "",
          "type": "uint256"
        }
      ],
      "stateMutability": "view",
      "type": "function"
    },
    {
      "inputs": [],
      "name": "owner",
      "outputs": [
        {
          "internalType": "address",
          "name": "",
          "type": "address"
        }
      ],
      "stateMutability": "view",
      "type": "function"
    },
    {
      "inputs": [],
      "name": "renounceOwnership",
      "outputs": [],
      "stateMutability": "nonpayable",
      "type": "function"
    },
    {
      "inputs": [],
      "name": "rewardManager",
      "outputs": [
        {
          "internalType": "address",
          "name": "",
          "type": "address"
        }
      ],
      "stateMutability": "view",
      "type": "function"
    },
    {
      "inputs": [
        {
          "internalType": "uint256",
          "name": "_fee",
          "type": "uint256"
        }
      ],
      "name": "setCreationFee",
      "outputs": [],
      "stateMutability": "nonpayable",
      "type": "function"
    },
    {
      "inputs": [
        {
          "internalType": "address",
          "name": "_globalRegistry",
          "type": "address"
        }
      ],
      "name": "setGlobalRegistry",
      "outputs": [],
      "stateMutability": "nonpayable",
      "type": "function"
    },
    {
      "inputs": [
        {
          "internalType": "uint256",
          "name": "_duration",
          "type": "uint256"
        }
      ],
      "name": "setMaxTaskDuration",
      "outputs": [],
      "stateMutability": "nonpayable",
      "type": "function"
    },
    {
      "inputs": [
        {
          "internalType": "uint256",
          "name": "_minReward",
          "type": "uint256"
        }
      ],
      "name": "setMinTaskReward",
      "outputs": [],
      "stateMutability": "nonpayable",
      "type": "function"
    },
    {
      "inputs": [],
      "name": "taskCoreImplementation",
      "outputs": [
        {
          "internalType": "address",
          "name": "",
          "type": "address"
        }
      ],
      "stateMutability": "view",
      "type": "function"
    },
    {
      "inputs": [],
      "name": "taskLogic",
      "outputs": [
        {
          "internalType": "address",
          "name": "",
          "type": "address"
        }
      ],
      "stateMutability": "view",
      "type": "function"
    },
    {
      "inputs": [],
      "name": "taskVaultImplementation",
      "outputs": [
        {
          "internalType": "address",
          "name": "",
          "type": "address"
        }
      ],
      "stateMutability": "view",
      "type": "function"
    },
    {
      "inputs": [
        {
          "internalType": "address",
          "name": "newOwner",
          "type": "address"
        }
      ],
      "name": "transferOwnership",
      "outputs": [],
      "stateMutability": "nonpayable",
      "type": "function"
    },
    {
      "inputs": [
        {
          "internalType": "address",
          "name": "recipient",
          "type": "address"
        }
      ],
      "name": "withdrawFees",
      "outputs": [],
      "stateMutability": "nonpayable",
      "type": "function"
    },
    {
      "stateMutability": "payable",
      "type": "receive"
    }
  ],
  "bytecode": "6101403461036057601f61275b38819003918201601f19168301916001600160401b038311848410176103655780849260e094604052833981010312610360576100488161037b565b6100546020830161037b565b6100606040840161037b565b61006c6060850161037b565b916100796080860161037b565b9361008660a0870161037b565b956001600160a01b039061009c9060c00161037b565b16801561034a57600080546001600160a01b031981168317825560405192916001600160a01b03909116907f8be0079c531659141344cd1fd0a4f28419497f9722a3daafe3b4186f6b6457e09080a36001805566038d7ea4c680006003556301e1338060045560006005556001600160a01b0382161561031457506001600160a01b038216156102da576001600160a01b038316156102a5576001600160a01b03841615610272576001600160a01b0385161561023a576001600160a01b038616156101f55760805260a05260c05260e05261010052610120526040516123cb908161039082396080518181816102c8015281816111a10152611d5c015260a0518181816102f1015281816111cb0152612007015260c0518181816104350152818161108001526112fb015260e05181610f98015261010051816101fc0152610120518181816105ff015281816114c00152611fc10152f35b60405162461bcd60e51b815260206004820152601660248201527f496e76616c696420726577617264206d616e61676572000000000000000000006044820152606490fd5b60405162461bcd60e51b815260206004820152601060248201526f496e76616c696420726567697374727960801b6044820152606490fd5b60405162461bcd60e51b815260206004820152600b60248201526a24b73b30b634b210343ab160a91b6044820152606490fd5b60405162461bcd60e51b815260206004820152600d60248201526c496e76616c6964206c6f67696360981b6044820152606490fd5b60405162461bcd60e51b8152602060048201526012602482015271125b9d985b1a59081d985d5b1d081a5b5c1b60721b6044820152606490fd5b62461bcd60e51b8152602060048201526011602482015270125b9d985b1a590818dbdc99481a5b5c1b607a1b6044820152606490fd5b631e4fbdf760e01b600052600060045260246000fd5b600080fd5b634e487b7160e01b600052604160045260246000fd5b51906001600160a01b03821682036103605756fe60e0604052600436101561001b575b361561001957600080fd5b005b60006080526080513560e01c8062ac1d8a1461203657806302c47a8914611ff05780630f4ef8a614611faa578063164e68de14611ee85780631d65e77e14611e2e5780632e81320214611de35780634be5270d14611d8b578063645e6d5914611d45578063715018a614611cf8578063852bd26b146110af57806386dc11be146110695780638da5cb5b1461103e578063b7d8622514610fe6578063c0be15ec14610fc7578063cce2095414610f81578063daa8bfdd14610f57578063dc4590be14610ef4578063dce0b4e414610ed5578063e4828b7e1461022b578063e4e39678146101e5578063f0992c97146101c6578063f2fde38b146101475763fdc3d8d70361000e573461014157608051366003190112610141576020600654604051908152f35b60805180fd5b34610141576020366003190112610141576101606120b8565b610168612224565b6001600160a01b031680156101ad5760805180546001600160a01b03198116831782556001600160a01b0316906000805160206123568339815191529080a360805180f35b631e4fbdf760e01b608051526080516004526024608051fd5b3461014157608051366003190112610141576020600354604051908152f35b3461014157608051366003190112610141576040517f00000000000000000000000000000000000000000000000000000000000000006001600160a01b03168152602090f35b366003190160c081126101415760a0136101415760a4356001600160401b0381116101415761025e9036906004016120e7565b9060c05261026a61224d565b602060a08190526040519190610280908361219f565b608051825260035460643510610ec257600435610e8f575b80158015610e85575b610e725760055480610e24575b50600654916000198314610ddb57600183016006556102ec7f00000000000000000000000000000000000000000000000000000000000000006122ee565b6103157f00000000000000000000000000000000000000000000000000000000000000006122ee565b93602435610df3576064355b600554903482340311610ddb5781340310610d975760405160a051810190866040820160a051845252606081018160608960051b82010160c05192608051605e1960c051360301915b8c8210610cd557505050610387925003601f19810183528261219f565b519020946040519561039887612168565b8387523360a05188015260018060601b03421660408801526004356060880152602435608088015260805160a088015260805160c088015260443560e088015260643561010088015260805161012088015261014087015260843561016087015260018060a01b0384163b15610141576040805163254110d560e11b8152600481018590523360248201526001600160a01b0389811660448301527f0000000000000000000000000000000000000000000000000000000000000000811660648301528851608483015260a080518a015190911660a4830152918801516001600160601b031660c4820152606088015160e482015260808801516101048201529087015161012482015260c087015161014482015260e08701516101648201526101008701516101848201526101208701516006811015610cbd576101a48201526101408701516101c48201526101608701516101e48201526080518161020481836001600160a01b038a165af1801561083957610ca4575b5061051b8161220d565b90610529604051928361219f565b808252601f196105388261220d565b016080515b818110610c725750506080515b818110610b645750506001600160a01b0384163b15610141576040519063465859e960e01b82526024820160a05160048401528151809152604483019060448160051b8501019260a0510191608051905b828210610ad057505060805192849250829003905081836001600160a01b0389165af1801561083957610ab7575b506001600160a01b0386163b156101415760405163c0c53b8b60e01b81526001600160a01b0384811660048301523360248301527f000000000000000000000000000000000000000000000000000000000000000081166044830152608051908290606490829084908c165af1801561083957610a9e575b50803403610a43575b506080515b835181101561089d576001600160a01b0361066a828661226f565b51511660a05161067a838761226f565b51015160405160a0518101916323b872dd60e01b83523360248301523060448301526064820152606481526106b060848261219f565b60a0516080519151909282855af11561083957608051513d6108945750803b155b61087e57506001600160a01b036106e8828661226f565b51511660a0516106f8838761226f565b510151604051809263095ea7b360e01b8252818061071d60a051958d600484016122b1565b0391608051905af180156108395761085f575b506001600160a01b03610743828661226f565b51511660a051610753838761226f565b510151906001600160a01b0388163b156101415761078991604051809381926319c5aef560e11b835260805194600484016122b1565b038160805160018060a01b038c165af1801561083957610846575b506001600160a01b036107b7828661226f565b515160405163095ea7b360e01b81526001600160a01b038916600482015260808051602483015260a0519051919493909285926044928492165af191821561083957600192610808575b500161064f565b61082b9060a0513d60a05111610832575b610823818361219f565b810190612299565b5087610801565b503d610819565b6040513d608051823e3d90fd5b6080516108529161219f565b60805161014157866107a4565b6108799060a0513d60a0511161083257610823818361219f565b610730565b635274afe760e01b608051526004526024608051fd5b600114156106d1565b5084846040516108ac81612137565b83815260a080516001600160a01b038781169184018281528682166040808701828152336060808a01828152608080518f90528a516007905280518690209b518c55965160018c018054918a166001600160a01b0319928316179055935160028c018054918a16918616919091179055516003909a0180549a909716999092169890981790945561010088015197909201518251918252945181019690965285019290925292859160008051602061237683398151915291a46002546001600160a01b031680610990575b5061098c906001805560405193849384612117565b0390f35b60405160a0516309c910f360e31b908201908152602482018590526001600160a01b03868116604484015284166064830152336084808401919091528252916109da60a48361219f565b60805192608051925191608051905af16109f26121dd565b50156109fe5783610977565b60405162461bcd60e51b815260a0516004820152601c60248201527b149959da5cdd1c9e481c9959da5cdd1c985d1a5bdb8819985a5b195960221b6044820152606490fd5b6001600160a01b0386163b1561014157604051636db5a92360e11b815260805190918290600490829034036001600160a01b038b165af18015610839571561064a57608051610a919161219f565b608051610141578561064a565b608051610aaa9161219f565b6080516101415786610641565b608051610ac39161219f565b60805161014157866105c9565b909192936043198682030182526040855163ffffffff60e01b815116835260018060a01b0360a0518201511660a0518401520151606060408301528051908160608401526080515b828110610b4c5750506080805182840182015260a051601f909201601f19169092019091019481019392600101910161059b565b60a05181830101516080828601015260a05101610b18565b610b71818360c0516122cc565b35906001600160e01b0319821682036101415760a051610b94828560c0516122cc565b0135916001600160a01b038316830361014157610bb4828560c0516122cc565b604081013590601e1981360301821215610141570180356001600160401b0381116101415760a05182019481360386136101415760405193610bf585612184565b6001600160e01b031916845260a0516001600160a01b039190911690840152610c1d816121c2565b91610c2b604051938461219f565b81835260a051369183010111610141578060019560a0518401376080519060a05190830101526040820152610c60828661226f565b52610c6b818561226f565b500161054a565b604051610c7e81612184565b608051815260805160a0518201526060604082015260a051828601015260a0510161053d565b608051610cb09161219f565b6080516101415787610511565b634e487b7160e01b6080515260216004526024608051fd5b868403605f19018152919350918435848112156101415760c05101803563ffffffff60e01b811680910361014157825260a0516001600160a01b0390610d1c9083016120d3565b1660a0518301526040810135601e19823603018112156101415760a05191018035929101906001600160401b038311610141578236038213610141578260019360809360606040850152816060850152848401378251838284010152601f801991011601019460a051019160a051019201859391949261036a565b60405162461bcd60e51b815260a0516004820152601b60248201527a496e73756666696369656e74207265776172642066756e64696e6760281b6044820152606490fd5b634e487b7160e01b6080515260116004526024608051fd5b60243560643502606435810460243514606435151761032157634e487b7160e01b6080515260116004526024608051fd5b3410610e3057826102ae565b60405162461bcd60e51b815260a05160048201526019602482015278496e73756666696369656e74206372656174696f6e2066656560381b6044820152606490fd5b6333b028a960e01b608051526004608051fd5b50600a81116102a1565b426004351115610eaf576004544201804211610ddb576004351115610298575b637d9533a960e11b608051526004608051fd5b6314414f4160e11b608051526004608051fd5b3461014157608051366003190112610141576020600554604051908152f35b3461014157602036600319011261014157600435610f10612224565b8015610f1f5760045560805180f35b60405162461bcd60e51b815260206004820152601060248201526f24b73b30b634b210323ab930ba34b7b760811b6044820152606490fd5b3461014157608051366003190112610141576002546040516001600160a01b039091168152602090f35b3461014157608051366003190112610141576040517f00000000000000000000000000000000000000000000000000000000000000006001600160a01b03168152602090f35b3461014157608051366003190112610141576020600454604051908152f35b34610141576020366003190112610141577f5de302eeb1c80d4fb0c0953b692353f09ddf431411b8eb2034d5e857695619126040600435611025612224565b600554908060055582519182526020820152a160805180f35b346101415760805136600319011261014157608051546040516001600160a01b039091168152602090f35b3461014157608051366003190112610141576040517f00000000000000000000000000000000000000000000000000000000000000006001600160a01b03168152602090f35b366003190160e081126101415760a0136101415760a4356001600160401b038111610141576110e29036906004016120e7565b60c4356001600160401b0381116101415736602382011215610141576004810135906001600160401b0382116101415760248260061b8201013681116101415761112a61224d565b6111338361220d565b92611141604051948561219f565b835260249190910190602083015b818310611c955750506003546064359391508310610ec2576004359283611c67575b81158015611c5d575b610e725760055480611c10575b50600654906000198214610ddb57600182016006556111c57f00000000000000000000000000000000000000000000000000000000000000006122ee565b926111ef7f00000000000000000000000000000000000000000000000000000000000000006122ee565b9660243580611bfa57835b600554943486340311610ddb5785340310611bb757604051846040820160208084015252606081018160608760051b82010186926080515b898110611af857505061124e925003601f19810183528261219f565b6020815191012091604051996112638b612168565b878b523360208c0152426001600160601b031660408c015260608b01526080808b0191909152805160a08b0152805160c08b015260443560e08b01526101008a0191909152516101208901526101408801526084356101608801526001600160a01b0385163b15610141576040805163254110d560e11b8152600481018690523360248201526001600160a01b038a811660448301527f0000000000000000000000000000000000000000000000000000000000000000811660648301528951608483015260208a01511660a4820152908801516001600160601b031660c4820152606088015160e4820152608088015161010482015260a088015161012482015260c088015161014482015260e08801516101648201526101008801516101848201526101208801516006811015610cbd576101a48201526101408801516101c48201526101608801516101e48201526080518161020481836001600160a01b038b165af1801561083957611ae6575b506113de8261220d565b916113ec604051938461219f565b808352601f196113fb8261220d565b016080515b818110611ab85750506080515b8181106119cc575050506001600160a01b0384163b15610141576040519063465859e960e01b82526024820160206004840152815180915260448301602060448360051b860101930191608051915b81831061193e57505060805192849250829003905081836001600160a01b0389165af1801561083957611925575b506001600160a01b0386163b156101415760405163c0c53b8b60e01b81526001600160a01b0384811660048301523360248301527f000000000000000000000000000000000000000000000000000000000000000081166044830152608051908290606490829084908c165af180156108395761190c575b508034036118b1575b506080515b835181101561171b576001600160a01b0361152b828661226f565b51511660208061153b848861226f565b51015160405190828201906323b872dd60e01b825233602484015230604484015260648301526064825261157060848361219f565b60805191519082855af11561083957608051513d6117125750803b155b61087e57506115d760206001600160a01b036115a9848861226f565b515116816115b7858961226f565b51015190604051808095819463095ea7b360e01b83528d600484016122b1565b0391608051905af18015610839576116f6575b506001600160a01b036115fd828661226f565b515116602061160c838761226f565b510151906001600160a01b0388163b156101415761164291604051809381926319c5aef560e11b835260805194600484016122b1565b038160805160018060a01b038c165af18015610839576116dd575b5060449060206001600160a01b03611675838861226f565b515160405163095ea7b360e01b81526001600160a01b038b16600482015260808051602483015251909586939092849291165af1918215610839576001926116bf575b5001611510565b6116d69060203d811161083257610823818361219f565b50876116b8565b6080516116e99161219f565b608051610141578661165d565b61170d9060203d811161083257610823818361219f565b6115ea565b6001141561158d565b50848460405161172a81612137565b8381526001600160a01b0385811660208084018281528684166040808701828152336060808a01828152608080518f90526007895280518690209b518c55965160018c018054918c166001600160a01b0319928316179055935160028c018054918c16918616919091179055516003909a0180549a9099169990921698909817909655610100880151979092015182519182529281019690965285015292859160008051602061237683398151915291a46002546001600160a01b031680611801575061098c906001805560405193849384612117565b6040516309c910f360e31b60208201908152602482018590526001600160a01b038681166044840152841660648301523360848084019190915282529161184960a48361219f565b60805192608051925191608051905af16118616121dd565b501561186d5783610977565b60405162461bcd60e51b815260206004820152601c60248201527b149959da5cdd1c9e481c9959da5cdd1c985d1a5bdb8819985a5b195960221b6044820152606490fd5b6001600160a01b0386163b1561014157604051636db5a92360e11b815260805190918290600490829034036001600160a01b038b165af18015610839571561150b576080516118ff9161219f565b608051610141578561150b565b6080516119189161219f565b6080516101415786611502565b6080516119319161219f565b608051610141578661148a565b909192936043198682030182526040855163ffffffff60e01b815116835260018060a01b0360208201511660208401520151606060408301528051908160608401526080515b8281106119b657505060808051828401820152601f909101601f1916909101019360209081019360010192910161145c565b8060208092840101516080828701015201611984565b6119d78183856122cc565b359063ffffffff60e01b82168092036101415760206119f78285876122cc565b01356001600160a01b038116929083900361014157611a178285876122cc565b604081013590601e1981360301821215610141570180356001600160401b03811161014157602082019481360386136101415760405193611a5785612184565b84526020840152611a67816121c2565b91611a75604051938461219f565b818352602082369201011161014157806001956020840137602060805191830101526040820152611aa6828761226f565b52611ab1818661226f565b500161140d565b602090604051611ac781612184565b6080518152608051838201526060604082015282828801015201611400565b608051611af29161219f565b886113d4565b858303605f1901825290925090833536899003605e1901811215610141578801803563ffffffff60e01b81168091036101415782526001600160a01b03611b41602083016120d3565b1660208301526040810135601e19823603018112156101415701602081019190356001600160401b0381116101415780360383136101415760808282602094936001966060604088970152816060850152848401378251838284010152601f801991011601019501930191019084929391611232565b60405162461bcd60e51b815260206004820152601b60248201527a496e73756666696369656e74207265776172642066756e64696e6760281b6044820152606490fd5b808402848104821485151715610ddb57936111fa565b3410611c1c5785611187565b60405162461bcd60e51b8152602060048201526019602482015278496e73756666696369656e74206372656174696f6e2066656560381b6044820152606490fd5b50600a821161117a565b42841115610eaf576004544201804211610ddb5784111561117157637d9533a960e11b608051526004608051fd5b604083360312610141576040805191908201906001600160401b03821183831017611ce0576040926020928452611ccb866120d3565b8152828601358382015281520192019161114f565b634e487b7160e01b6080515260416004526024608051fd5b346101415760805136600319011261014157611d12612224565b60805180546001600160a01b0319811682556001600160a01b03166000805160206123568339815191528280a360805180f35b3461014157608051366003190112610141576040517f00000000000000000000000000000000000000000000000000000000000000006001600160a01b03168152602090f35b34610141576020366003190112610141577f20d5b0af09ee8450f889cd800bede8b088181b117ecfaa09645063d056d6ac416040600435611dca612224565b600354908060035582519182526020820152a160805180f35b34610141576020366003190112610141576004356080515260076020526040806080512060018060a01b0360018201541690600260018060a01b039101541682519182526020820152f35b3461014157602036600319011261014157604051611e4b81612137565b608051815260805160208201526080516040820152606060805191015260043560805152600760205260806040815120604051611e8781612137565b815480825260018301546001600160a01b039081166020808501918252600286015483166040808701918252600390970154841660609687019081528751958652925184169185019190915251821694830194909452925190921690820152f35b3461014157602036600319011261014157611f016120b8565b611f09612224565b6001600160a01b03811615611f71576080519081908190819047905af1611f2e6121dd565b5015611f3a5760805180f35b60405162461bcd60e51b815260206004820152600f60248201526e151c985b9cd9995c8819985a5b1959608a1b6044820152606490fd5b60405162461bcd60e51b8152602060048201526011602482015270125b9d985b1a59081c9958da5c1a595b9d607a1b6044820152606490fd5b3461014157608051366003190112610141576040517f00000000000000000000000000000000000000000000000000000000000000006001600160a01b03168152602090f35b3461014157608051366003190112610141576040517f00000000000000000000000000000000000000000000000000000000000000006001600160a01b03168152602090f35b346101415760203660031901126101415761204f6120b8565b612057612224565b6001600160a01b0316801561208057600280546001600160a01b03191691909117905560805180f35b60405162461bcd60e51b815260206004820152601060248201526f496e76616c696420726567697374727960801b6044820152606490fd5b600435906001600160a01b03821682036120ce57565b600080fd5b35906001600160a01b03821682036120ce57565b9181601f840112156120ce578235916001600160401b0383116120ce576020808501948460051b0101116120ce57565b9081526001600160a01b0391821660208201529116604082015260600190565b608081019081106001600160401b0382111761215257604052565b634e487b7160e01b600052604160045260246000fd5b61018081019081106001600160401b0382111761215257604052565b606081019081106001600160401b0382111761215257604052565b601f909101601f19168101906001600160401b0382119082101761215257604052565b6001600160401b03811161215257601f01601f191660200190565b3d15612208573d906121ee826121c2565b916121fc604051938461219f565b82523d6000602084013e565b606090565b6001600160401b0381116121525760051b60200190565b6000546001600160a01b0316330361223857565b63118cdaa760e01b6000523360045260246000fd5b60026001541461225e576002600155565b633ee5aeb560e01b60005260046000fd5b80518210156122835760209160051b010190565b634e487b7160e01b600052603260045260246000fd5b908160209103126120ce575180151581036120ce5790565b6001600160a01b039091168152602081019190915260400190565b91908110156122835760051b81013590605e19813603018212156120ce570190565b6e5af43d82803e903d91602b57fd5bf390763d602d80600a3d3981f3363d3d373d3d3d363d7300000062ffffff8260881c161760005260781b17602052603760096000f0906001600160a01b0382161561234457565b63b06ebf3d60e01b60005260046000fdfe8be0079c531659141344cd1fd0a4f28419497f9722a3daafe3b4186f6b6457e03e808ec736d43f3ea790feba5c7ae19b574c7cf0309ca871c7ac4ddb2701f3e5a2646970667358221220222762323fafd8fe0359f4a7554b182e1fc3e21fed10d2edf466c96e6b9ca2d364736f6c634300081c0033",
  "linkReferences": {},
  "deployedLinkReferences": {}
}