{
  "_format": "hh-sol-artifact-1",
  "contractName": "TaskVault",
  "sourceName": "contracts/core/TaskVault.sol",
  "abi": [
    {
      "inputs": [],
      "name": "InsufficientBalance",
      "type": "error"
    },
    {
      "inputs": [],
      "name": "OnlyCreator",
      "type": "error"
    },
    {
      "inputs": [],
      "name": "OnlyTaskCore",
      "type": "error"
    },
    {
      "inputs": [],
      "name": "OnlyTaskLogic",
      "type": "error"
    },
    {
      "inputs": [],
      "name": "ReentrancyGuardReentrantCall",
      "type": "error"
    },
    {
      "inputs": [
        {
          "internalType": "address",
          "name": "token",
          "type": "address"
        }
      ],
      "name": "SafeERC20FailedOperation",
      "type": "error"
    },
    {
      "inputs": [],
      "name": "TaskNotCancelled",
      "type": "error"
    },
    {
      "inputs": [],
      "name": "TransferFailed",
      "type": "error"
    },
    {
      "anonymous": false,
      "inputs": [
        {
          "indexed": true,
          "internalType": "address",
          "name": "to",
          "type": "address"
        },
        {
          "indexed": false,
          "internalType": "uint256",
          "name": "nativeAmount",
          "type": "uint256"
        },
        {
          "components": [
            {
              "internalType": "address",
              "name": "token",
              "type": "address"
            },
            {
              "internalType": "uint256",
              "name": "amount",
              "type": "uint256"
            }
          ],
          "indexed": false,
          "internalType": "struct ITaskVault.TokenAmount[]",
          "name": "tokens",
          "type": "tuple[]"
        }
      ],
      "name": "FundsWithdrawn",
      "type": "event"
    },
    {
      "anonymous": false,
      "inputs": [
        {
          "indexed": true,
          "internalType": "address",
          "name": "from",
          "type": "address"
        },
        {
          "indexed": false,
          "internalType": "uint256",
          "name": "amount",
          "type": "uint256"
        }
      ],
      "name": "NativeDeposited",
      "type": "event"
    },
    {
      "anonymous": false,
      "inputs": [
        {
          "indexed": false,
          "internalType": "bool",
          "name": "suc",
          "type": "bool"
        }
      ],
      "name": "RewardExecute",
      "type": "event"
    },
    {
      "anonymous": false,
      "inputs": [
        {
          "indexed": true,
          "internalType": "address",
          "name": "executor",
          "type": "address"
        },
        {
          "indexed": false,
          "internalType": "uint256",
          "name": "amount",
          "type": "uint256"
        }
      ],
      "name": "RewardReleased",
      "type": "event"
    },
    {
      "anonymous": false,
      "inputs": [
        {
          "indexed": true,
          "internalType": "address",
          "name": "token",
          "type": "address"
        },
        {
          "indexed": true,
          "internalType": "address",
          "name": "adapter",
          "type": "address"
        },
        {
          "indexed": false,
          "internalType": "uint256",
          "name": "amount",
          "type": "uint256"
        },
        {
          "indexed": false,
          "internalType": "bool",
          "name": "success",
          "type": "bool"
        }
      ],
      "name": "TokenActionExecuted",
      "type": "event"
    },
    {
      "anonymous": false,
      "inputs": [
        {
          "indexed": true,
          "internalType": "address",
          "name": "token",
          "type": "address"
        },
        {
          "indexed": true,
          "internalType": "address",
          "name": "from",
          "type": "address"
        },
        {
          "indexed": false,
          "internalType": "uint256",
          "name": "amount",
          "type": "uint256"
        }
      ],
      "name": "TokenDeposited",
      "type": "event"
    },
    {
      "inputs": [],
      "name": "creator",
      "outputs": [
        {
          "internalType": "address",
          "name": "",
          "type": "address"
        }
      ],
      "stateMutability": "view",
      "type": "function"
    },
    {
      "inputs": [],
      "name": "depositNative",
      "outputs": [],
      "stateMutability": "payable",
      "type": "function"
    },
    {
      "inputs": [
        {
          "internalType": "address",
          "name": "token",
          "type": "address"
        },
        {
          "internalType": "uint256",
          "name": "amount",
          "type": "uint256"
        }
      ],
      "name": "depositToken",
      "outputs": [],
      "stateMutability": "nonpayable",
      "type": "function"
    },
    {
      "inputs": [
        {
          "internalType": "address",
          "name": "token",
          "type": "address"
        },
        {
          "internalType": "address",
          "name": "adapter",
          "type": "address"
        },
        {
          "internalType": "uint256",
          "name": "amount",
          "type": "uint256"
        },
        {
          "internalType": "bytes",
          "name": "actionData",
          "type": "bytes"
        }
      ],
      "name": "executeTokenAction",
      "outputs": [
        {
          "internalType": "bool",
          "name": "success",
          "type": "bool"
        },
        {
          "internalType": "bytes",
          "name": "result",
          "type": "bytes"
        }
      ],
      "stateMutability": "nonpayable",
      "type": "function"
    },
    {
      "inputs": [],
      "name": "getAvailableForRewards",
      "outputs": [
        {
          "internalType": "uint256",
          "name": "",
          "type": "uint256"
        }
      ],
      "stateMutability": "view",
      "type": "function"
    },
    {
      "inputs": [
        {
          "internalType": "address",
          "name": "token",
          "type": "address"
        }
      ],
      "name": "getAvailableTokenBalance",
      "outputs": [
        {
          "internalType": "uint256",
          "name": "",
          "type": "uint256"
        }
      ],
      "stateMutability": "view",
      "type": "function"
    },
    {
      "inputs": [],
      "name": "getNativeBalance",
      "outputs": [
        {
          "internalType": "uint256",
          "name": "",
          "type": "uint256"
        }
      ],
      "stateMutability": "view",
      "type": "function"
    },
    {
      "inputs": [
        {
          "internalType": "address",
          "name": "token",
          "type": "address"
        }
      ],
      "name": "getTokenBalance",
      "outputs": [
        {
          "internalType": "uint256",
          "name": "",
          "type": "uint256"
        }
      ],
      "stateMutability": "view",
      "type": "function"
    },
    {
      "inputs": [],
      "name": "getTrackedTokens",
      "outputs": [
        {
          "internalType": "address[]",
          "name": "",
          "type": "address[]"
        }
      ],
      "stateMutability": "view",
      "type": "function"
    },
    {
      "inputs": [
        {
          "internalType": "address",
          "name": "_taskCore",
          "type": "address"
        },
        {
          "internalType": "address",
          "name": "_creator",
          "type": "address"
        },
        {
          "internalType": "address",
          "name": "_rewardManager",
          "type": "address"
        }
      ],
      "name": "initialize",
      "outputs": [],
      "stateMutability": "nonpayable",
      "type": "function"
    },
    {
      "inputs": [
        {
          "internalType": "address",
          "name": "executor",
          "type": "address"
        },
        {
          "internalType": "uint256",
          "name": "amount",
          "type": "uint256"
        }
      ],
      "name": "releaseReward",
      "outputs": [],
      "stateMutability": "nonpayable",
      "type": "function"
    },
    {
      "inputs": [],
      "name": "rewardManager",
      "outputs": [
        {
          "internalType": "address",
          "name": "",
          "type": "address"
        }
      ],
      "stateMutability": "view",
      "type": "function"
    },
    {
      "inputs": [],
      "name": "taskCore",
      "outputs": [
        {
          "internalType": "address",
          "name": "",
          "type": "address"
        }
      ],
      "stateMutability": "view",
      "type": "function"
    },
    {
      "inputs": [],
      "name": "taskLogic",
      "outputs": [
        {
          "internalType": "address",
          "name": "",
          "type": "address"
        }
      ],
      "stateMutability": "view",
      "type": "function"
    },
    {
      "inputs": [],
      "name": "withdrawAll",
      "outputs": [
        {
          "internalType": "uint256",
          "name": "nativeAmount",
          "type": "uint256"
        },
        {
          "components": [
            {
              "internalType": "address",
              "name": "token",
              "type": "address"
            },
            {
              "internalType": "uint256",
              "name": "amount",
              "type": "uint256"
            }
          ],
          "internalType": "struct ITaskVault.TokenAmount[]",
          "name": "tokens",
          "type": "tuple[]"
        }
      ],
      "stateMutability": "nonpayable",
      "type": "function"
    },
    {
      "stateMutability": "payable",
      "type": "receive"
    }
  ],
  "bytecode": "60808060405234601a57600160005561138690816100208239f35b600080fdfe6080806040526004361015610058575b50361561001b57600080fd5b61002734600554611185565b6005556040513481527fb5d7700fb0cf415158b8db7cc7c39f0eab16a825c92e221404b4c8bb099b4bbb60203392a2005b60003560e01c90816302d05d3f1461105d575080630f4ef8a6146110345780631211947114610bb7578063338b5dea14610a365780633aecd0e3146109fc578063695def4c1461094c5780637eb917b81461092a578063853828b61461058c57806386dc11be1461056357806388a9d55414610545578063b2b9703a1461051c578063c0c53b8b146102ff578063db6b5246146102ad578063f541c812146101605763f87eb0431461010a573861000f565b3461015b57602036600319011261015b5760206101536001600160a01b03610130611081565b168060005260078352604060002054906000526008835260406000205490611162565b604051908152f35b600080fd5b3461015b57604036600319011261015b57610179611081565b60243560018060a01b036004541633141580610298575b6102875761019c6112b3565b6001600160a01b03821691821561024f576005549082821061023e57600080848194936101ca828496611162565b6005556101d982600654611185565b6006555af16101e6611213565b501561022d5760208161021c7f7a710f494850039a90f19432a11f8187b6226e1f50c3ad3e9b99e10e56c8609193600654611162565b600655604051908152a26001600055005b6312171d8360e31b60005260046000fd5b631e9acf1760e31b60005260046000fd5b60405162461bcd60e51b815260206004820152601060248201526f24b73b30b634b21032bc32b1baba37b960811b6044820152606490fd5b631792885560e11b60005260046000fd5b506003546001600160a01b0316331415610190565b600036600319011261015b5734156102cb5761002734600554611185565b60405162461bcd60e51b815260206004820152600c60248201526b16995c9bc819195c1bdcda5d60a21b6044820152606490fd5b3461015b57606036600319011261015b57610318611081565b610320611097565b6044356001600160a01b03811692919083900361015b57600b549160ff83166104e1576001600160a01b03169081156104a9576001600160a01b031692831561047257801561043557600493600160209460ff191617600b558260018060a01b0319600154161760015560018060a01b0319600254161760025560018060a01b031960035416176003556040519283809263d7dfa0dd60e01b82525afa908115610429576000916103ef575b50600480546001600160a01b0319166001600160a01b0392909216919091179055005b90506020813d602011610421575b8161040a602093836111ad565b8101031261015b5761041b90611274565b816103cc565b3d91506103fd565b6040513d6000823e3d90fd5b60405162461bcd60e51b815260206004820152601560248201527424b73b30b634b2103932bbb0b93226b0b730b3b2b960591b6044820152606490fd5b60405162461bcd60e51b815260206004820152600f60248201526e24b73b30b634b21031b932b0ba37b960891b6044820152606490fd5b60405162461bcd60e51b815260206004820152601060248201526f496e76616c6964207461736b436f726560801b6044820152606490fd5b60405162461bcd60e51b8152602060048201526013602482015272105b1c9958591e481a5b9a5d1a585b1a5e9959606a1b6044820152606490fd5b3461015b57600036600319011261015b576001546040516001600160a01b039091168152602090f35b3461015b57600036600319011261015b576020600554604051908152f35b3461015b57600036600319011261015b576004546040516001600160a01b039091168152602090f35b3461015b57600036600319011261015b576002546001600160a01b0316330361091957600154604051637a5b4f5960e01b81529061018090829060049082906001600160a01b03165afa801561042957600090610813575b6101209150015160068110156107fd576004600091036107ee576106066112b3565b61061560055460065490611162565b6009549161062283611288565b9261063060405194856111ad565b808452601f1961063f82611288565b01825b8181106107cb575050815b8181106106f2575050816106b5575b600254604051600192916001600160a01b0316907fce985d3f1ddcfc4d5e7de3aaef9d41f1eeba5d111f693745c519a4e65cda8857908061069e8888836110d0565b0390a2556106b1604051928392836110d0565b0390f35b6106c182600554611162565b600555808080808560018060a01b03600254165af16106de611213565b5061065c576312171d8360e31b8152600490fd5b806106fe600192611243565b838060a01b0391549060031b1c16808552600760205261072f60408620548287526008602052604087205490611162565b60405161073b81611192565b82815281602082015261074e848a61129f565b52610759838961129f565b5080610768575b50500161064d565b816107c4928752600760205260408720610783838254611162565b90556107bf858060a01b03600254166107b160405194859263a9059cbb60e01b6020850152602484016111dd565b03601f1981018452836111ad565b6112d5565b8680610760565b6020906040516107da81611192565b858152858382015282828901015201610642565b630c3d6fa160e11b8152600490fd5b634e487b7160e01b600052602160045260246000fd5b610180823d8211610911575b8161082d61018093836111ad565b810103126108f6576040519061018082016001600160401b038111838210176108fd576040528251825261086360208401611274565b602083015260408301516001600160601b03811681036108f9576040830152606083015160608301526080830151608083015260a083015160a083015260c083015160c083015260e083015160e08301526101008301516101008301526101208301519060068210156108f6575061012092610160918484015261014081015161014084015201516101608201526105e4565b80fd5b5080fd5b634e487b7160e01b82526041600452602482fd5b3d915061081f565b6308f78f9960e31b60005260046000fd5b3461015b57600036600319011261015b57602061015360055460065490611162565b3461015b57600036600319011261015b5760405180602060095492838152018092600960005260206000209060005b8181106109dd57505050816109919103826111ad565b6040519182916020830190602084525180915260408301919060005b8181106109bb575050500390f35b82516001600160a01b03168452859450602093840193909201916001016109ad565b82546001600160a01b031684526020909301926001928301920161097b565b3461015b57602036600319011261015b576001600160a01b03610a1d611081565b1660005260076020526020604060002054604051908152f35b3461015b57604036600319011261015b57610a4f611081565b60243590610a5b6112b3565b6001600160a01b0316610a6f811515611126565b8115610b845780600052600a60205260ff6040600020541615610b15575b610ac76040516323b872dd60e01b602082015233602482015230604482015283606482015260648152610ac16084826111ad565b826112d5565b8060005260076020526040600020610ae0838254611185565b90556040519182527ff1444b5cad7ce70cb018d1b8edc8618fe303f3c7f034d8d572a6e27facbf2bef60203393a36001600055005b600954600160401b811015610b6e57806001610b349201600955611243565b81546001600160a01b0360039290921b91821b19169083901b1790556000818152600a60205260409020805460ff19166001179055610a8d565b634e487b7160e01b600052604160045260246000fd5b60405162461bcd60e51b815260206004820152600b60248201526a16995c9bc8185b5bdd5b9d60aa1b6044820152606490fd5b3461015b57608036600319011261015b57610bd0611081565b610bd8611097565b604435906064356001600160401b03811161015b573660238201121561015b5760048101356001600160401b03811161015b57366024828401011161015b576004546001600160a01b03163314158061101f575b61028757610c386112b3565b6000946001600160a01b031692610c50841515611126565b6001600160a01b038116928315610fe857848752600760205285604088205410610fd95790869291858452600760205260408420610c8f888254611162565b9055858452600860205260408420610ca8888254611185565b905560405163095ea7b360e01b81529260208480610cca8b87600484016111dd565b0381888b5af1938415610fce578594610f85575b50602491818592604051948593018337810182815203925af193610d00611213565b9480610f7b575b15610f755750835184016040856020830192031261015b57610d2b602086016111d0565b604086015190956001600160401b03821161015b570181603f8201121561015b576020810151610d5a816111f8565b92610d6860405194856111ad565b8184526040838301011161015b57610d879160406020850191016110ad565b93915b60405192157fa0dca96055240ed1f147d56fc3e9550ec9e159863480016ce801399c43aebd7d6020821595868152a160405163095ea7b360e01b8152836004820152600060248201526020816044816000875af1801561042957610f3e575b508160005260086020526040600020610e03868254611162565b9055610e65575b60008051602061133183398151915260406060958151908152856020820152a36001600055604051928391825260406020830152610e5781518092816040860152602086860191016110ad565b601f01601f19168101030190f35b6040516370a0823160e01b815230600482015293602085602481855afa94851561042957600095610f09575b50604060008051602061133183398151915291606096846000526007602052610ecc8360002054866000526008602052846000205490611185565b808211610edf575b505095505050610e0a565b610ee891611162565b846000526007602052610f0083600020918254611185565b90558880610ed4565b94506020853d602011610f36575b81610f24602093836111ad565b8101031261015b579351936040610e91565b3d9150610f17565b6020813d602011610f6d575b81610f57602093836111ad565b8101031261015b57610f68906111d0565b610de9565b3d9150610f4a565b91610d8a565b5084511515610d07565b909193506020813d602011610fc6575b81610fa2602093836111ad565b81010312610fc2578493602492610fb986936111d0565b50915091610cde565b8480fd5b3d9150610f95565b6040513d87823e3d90fd5b631e9acf1760e31b8752600487fd5b60405162461bcd60e51b815260206004820152600f60248201526e24b73b30b634b21030b230b83a32b960891b6044820152606490fd5b506003546001600160a01b0316331415610c2c565b3461015b57600036600319011261015b576003546040516001600160a01b039091168152602090f35b3461015b57600036600319011261015b576002546001600160a01b03168152602090f35b600435906001600160a01b038216820361015b57565b602435906001600160a01b038216820361015b57565b60005b8381106110c05750506000910152565b81810151838201526020016110b0565b60606020916040810193815260408382015284518094520192019060005b8181106110fb5750505090565b825180516001600160a01b0316855260209081015181860152604090940193909201916001016110ee565b1561112d57565b60405162461bcd60e51b815260206004820152600d60248201526c24b73b30b634b2103a37b5b2b760991b6044820152606490fd5b9190820391821161116f57565b634e487b7160e01b600052601160045260246000fd5b9190820180921161116f57565b604081019081106001600160401b03821117610b6e57604052565b601f909101601f19168101906001600160401b03821190821017610b6e57604052565b5190811515820361015b57565b6001600160a01b039091168152602081019190915260400190565b6001600160401b038111610b6e57601f01601f191660200190565b3d1561123e573d90611224826111f8565b9161123260405193846111ad565b82523d6000602084013e565b606090565b60095481101561125e57600960005260206000200190600090565b634e487b7160e01b600052603260045260246000fd5b51906001600160a01b038216820361015b57565b6001600160401b038111610b6e5760051b60200190565b805182101561125e5760209160051b010190565b6002600054146112c4576002600055565b633ee5aeb560e01b60005260046000fd5b906000602091828151910182855af115610429576000513d61132757506001600160a01b0381163b155b6113065750565b635274afe760e01b60009081526001600160a01b0391909116600452602490fd5b600114156112ff56fe1e491ac538da52e14312c2a3863012df9b1b78697aeb71c8aab2c1afbc283799a26469706673582212208b106f0bd379ffdab75438ff2abaa382a382c1c8a049b812581d8f9de67f496064736f6c634300081c0033",
  "linkReferences": {},
  "deployedLinkReferences": {}
}