{
  "_format": "hh-sol-artifact-1",
  "contractName": "TaskCore",
  "sourceName": "contracts/core/TaskCore.sol",
  "abi": [
    {
      "anonymous": false,
      "inputs": [
        {
          "indexed": true,
          "internalType": "uint256",
          "name": "taskId",
          "type": "uint256"
        },
        {
          "indexed": true,
          "internalType": "address",
          "name": "creator",
          "type": "address"
        }
      ],
      "name": "TaskCancelled",
      "type": "event"
    },
    {
      "anonymous": false,
      "inputs": [
        {
          "indexed": true,
          "internalType": "uint256",
          "name": "taskId",
          "type": "uint256"
        },
        {
          "indexed": true,
          "internalType": "address",
          "name": "executor",
          "type": "address"
        },
        {
          "indexed": false,
          "internalType": "bool",
          "name": "success",
          "type": "bool"
        },
        {
          "indexed": false,
          "internalType": "uint256",
          "name": "reward",
          "type": "uint256"
        },
        {
          "indexed": false,
          "internalType": "uint256",
          "name": "gasUsed",
          "type": "uint256"
        }
      ],
      "name": "TaskExecuted",
      "type": "event"
    },
    {
      "anonymous": false,
      "inputs": [
        {
          "indexed": true,
          "internalType": "uint256",
          "name": "taskId",
          "type": "uint256"
        },
        {
          "indexed": false,
          "internalType": "uint256",
          "name": "oldReward",
          "type": "uint256"
        },
        {
          "indexed": false,
          "internalType": "uint256",
          "name": "newReward",
          "type": "uint256"
        }
      ],
      "name": "TaskRewardUpdated",
      "type": "event"
    },
    {
      "anonymous": false,
      "inputs": [
        {
          "indexed": true,
          "internalType": "uint256",
          "name": "taskId",
          "type": "uint256"
        },
        {
          "indexed": false,
          "internalType": "enum ITaskCore.TaskStatus",
          "name": "oldStatus",
          "type": "uint8"
        },
        {
          "indexed": false,
          "internalType": "enum ITaskCore.TaskStatus",
          "name": "newStatus",
          "type": "uint8"
        }
      ],
      "name": "TaskStatusChanged",
      "type": "event"
    },
    {
      "inputs": [],
      "name": "cancel",
      "outputs": [
        {
          "internalType": "uint256",
          "name": "refundAmount",
          "type": "uint256"
        }
      ],
      "stateMutability": "nonpayable",
      "type": "function"
    },
    {
      "inputs": [
        {
          "internalType": "bool",
          "name": "success",
          "type": "bool"
        }
      ],
      "name": "completeExecution",
      "outputs": [],
      "stateMutability": "nonpayable",
      "type": "function"
    },
    {
      "inputs": [],
      "name": "creator",
      "outputs": [
        {
          "internalType": "address",
          "name": "",
          "type": "address"
        }
      ],
      "stateMutability": "view",
      "type": "function"
    },
    {
      "inputs": [
        {
          "internalType": "address",
          "name": "executor",
          "type": "address"
        }
      ],
      "name": "executeTask",
      "outputs": [
        {
          "internalType": "bool",
          "name": "success",
          "type": "bool"
        }
      ],
      "stateMutability": "nonpayable",
      "type": "function"
    },
    {
      "inputs": [
        {
          "internalType": "uint256",
          "name": "index",
          "type": "uint256"
        }
      ],
      "name": "getAction",
      "outputs": [
        {
          "components": [
            {
              "internalType": "bytes4",
              "name": "selector",
              "type": "bytes4"
            },
            {
              "internalType": "address",
              "name": "protocol",
              "type": "address"
            },
            {
              "internalType": "bytes",
              "name": "params",
              "type": "bytes"
            }
          ],
          "internalType": "struct ITaskCore.Action",
          "name": "",
          "type": "tuple"
        }
      ],
      "stateMutability": "view",
      "type": "function"
    },
    {
      "inputs": [],
      "name": "getActions",
      "outputs": [
        {
          "components": [
            {
              "internalType": "bytes4",
              "name": "selector",
              "type": "bytes4"
            },
            {
              "internalType": "address",
              "name": "protocol",
              "type": "address"
            },
            {
              "internalType": "bytes",
              "name": "params",
              "type": "bytes"
            }
          ],
          "internalType": "struct ITaskCore.Action[]",
          "name": "",
          "type": "tuple[]"
        }
      ],
      "stateMutability": "view",
      "type": "function"
    },
    {
      "inputs": [],
      "name": "getActionsLength",
      "outputs": [
        {
          "internalType": "uint256",
          "name": "",
          "type": "uint256"
        }
      ],
      "stateMutability": "view",
      "type": "function"
    },
    {
      "inputs": [],
      "name": "getMetadata",
      "outputs": [
        {
          "components": [
            {
              "internalType": "uint256",
              "name": "id",
              "type": "uint256"
            },
            {
              "internalType": "address",
              "name": "creator",
              "type": "address"
            },
            {
              "internalType": "uint96",
              "name": "createdAt",
              "type": "uint96"
            },
            {
              "internalType": "uint256",
              "name": "expiresAt",
              "type": "uint256"
            },
            {
              "internalType": "uint256",
              "name": "maxExecutions",
              "type": "uint256"
            },
            {
              "internalType": "uint256",
              "name": "executionCount",
              "type": "uint256"
            },
            {
              "internalType": "uint256",
              "name": "lastExecutionTime",
              "type": "uint256"
            },
            {
              "internalType": "uint256",
              "name": "recurringInterval",
              "type": "uint256"
            },
            {
              "internalType": "uint256",
              "name": "rewardPerExecution",
              "type": "uint256"
            },
            {
              "internalType": "enum ITaskCore.TaskStatus",
              "name": "status",
              "type": "uint8"
            },
            {
              "internalType": "bytes32",
              "name": "actionsHash",
              "type": "bytes32"
            },
            {
              "internalType": "bytes32",
              "name": "seedCommitment",
              "type": "bytes32"
            }
          ],
          "internalType": "struct ITaskCore.TaskMetadata",
          "name": "",
          "type": "tuple"
        }
      ],
      "stateMutability": "view",
      "type": "function"
    },
    {
      "inputs": [
        {
          "internalType": "uint256",
          "name": "_id",
          "type": "uint256"
        },
        {
          "internalType": "address",
          "name": "_creator",
          "type": "address"
        },
        {
          "internalType": "address",
          "name": "_vault",
          "type": "address"
        },
        {
          "internalType": "address",
          "name": "_logic",
          "type": "address"
        },
        {
          "components": [
            {
              "internalType": "uint256",
              "name": "id",
              "type": "uint256"
            },
            {
              "internalType": "address",
              "name": "creator",
              "type": "address"
            },
            {
              "internalType": "uint96",
              "name": "createdAt",
              "type": "uint96"
            },
            {
              "internalType": "uint256",
              "name": "expiresAt",
              "type": "uint256"
            },
            {
              "internalType": "uint256",
              "name": "maxExecutions",
              "type": "uint256"
            },
            {
              "internalType": "uint256",
              "name": "executionCount",
              "type": "uint256"
            },
            {
              "internalType": "uint256",
              "name": "lastExecutionTime",
              "type": "uint256"
            },
            {
              "internalType": "uint256",
              "name": "recurringInterval",
              "type": "uint256"
            },
            {
              "internalType": "uint256",
              "name": "rewardPerExecution",
              "type": "uint256"
            },
            {
              "internalType": "enum ITaskCore.TaskStatus",
              "name": "status",
              "type": "uint8"
            },
            {
              "internalType": "bytes32",
              "name": "actionsHash",
              "type": "bytes32"
            },
            {
              "internalType": "bytes32",
              "name": "seedCommitment",
              "type": "bytes32"
            }
          ],
          "internalType": "struct ITaskCore.TaskMetadata",
          "name": "_metadata",
          "type": "tuple"
        }
      ],
      "name": "initialize",
      "outputs": [],
      "stateMutability": "nonpayable",
      "type": "function"
    },
    {
      "inputs": [],
      "name": "isExecutable",
      "outputs": [
        {
          "internalType": "bool",
          "name": "",
          "type": "bool"
        }
      ],
      "stateMutability": "view",
      "type": "function"
    },
    {
      "inputs": [],
      "name": "logic",
      "outputs": [
        {
          "internalType": "address",
          "name": "",
          "type": "address"
        }
      ],
      "stateMutability": "view",
      "type": "function"
    },
    {
      "inputs": [],
      "name": "metadata",
      "outputs": [
        {
          "internalType": "uint256",
          "name": "id",
          "type": "uint256"
        },
        {
          "internalType": "address",
          "name": "creator",
          "type": "address"
        },
        {
          "internalType": "uint96",
          "name": "createdAt",
          "type": "uint96"
        },
        {
          "internalType": "uint256",
          "name": "expiresAt",
          "type": "uint256"
        },
        {
          "internalType": "uint256",
          "name": "maxExecutions",
          "type": "uint256"
        },
        {
          "internalType": "uint256",
          "name": "executionCount",
          "type": "uint256"
        },
        {
          "internalType": "uint256",
          "name": "lastExecutionTime",
          "type": "uint256"
        },
        {
          "internalType": "uint256",
          "name": "recurringInterval",
          "type": "uint256"
        },
        {
          "internalType": "uint256",
          "name": "rewardPerExecution",
          "type": "uint256"
        },
        {
          "internalType": "enum ITaskCore.TaskStatus",
          "name": "status",
          "type": "uint8"
        },
        {
          "internalType": "bytes32",
          "name": "actionsHash",
          "type": "bytes32"
        },
        {
          "internalType": "bytes32",
          "name": "seedCommitment",
          "type": "bytes32"
        }
      ],
      "stateMutability": "view",
      "type": "function"
    },
    {
      "inputs": [],
      "name": "pause",
      "outputs": [],
      "stateMutability": "nonpayable",
      "type": "function"
    },
    {
      "inputs": [],
      "name": "resume",
      "outputs": [],
      "stateMutability": "nonpayable",
      "type": "function"
    },
    {
      "inputs": [
        {
          "components": [
            {
              "internalType": "bytes4",
              "name": "selector",
              "type": "bytes4"
            },
            {
              "internalType": "address",
              "name": "protocol",
              "type": "address"
            },
            {
              "internalType": "bytes",
              "name": "params",
              "type": "bytes"
            }
          ],
          "internalType": "struct ITaskCore.Action[]",
          "name": "actions",
          "type": "tuple[]"
        }
      ],
      "name": "setActions",
      "outputs": [],
      "stateMutability": "nonpayable",
      "type": "function"
    },
    {
      "inputs": [],
      "name": "taskId",
      "outputs": [
        {
          "internalType": "uint256",
          "name": "",
          "type": "uint256"
        }
      ],
      "stateMutability": "view",
      "type": "function"
    },
    {
      "inputs": [
        {
          "internalType": "uint256",
          "name": "newReward",
          "type": "uint256"
        }
      ],
      "name": "updateReward",
      "outputs": [],
      "stateMutability": "payable",
      "type": "function"
    },
    {
      "inputs": [],
      "name": "vault",
      "outputs": [
        {
          "internalType": "address",
          "name": "",
          "type": "address"
        }
      ],
      "stateMutability": "view",
      "type": "function"
    }
  ],
  "bytecode": "60808060405234601557611484908161001b8239f35b600080fdfe608080604052600436101561001357600080fd5b60003560e01c90816302d05d3f1461101d57508063046f7da214610fa75780633322b23d14610f89578063392f37e914610ef5578063425c8abd14610e41578063465859e914610b805780634a8221aa14610904578063504d080b146107f95780637a5b4f59146106875780638456cb591461060b5780639486b566146105e6578063b27559c81461051a578063b6e7687314610478578063d7dfa0dd1461044f578063e78c65aa14610431578063e7c5df84146102c8578063ea8a1af0146101135763fbfa77cf146100e557600080fd5b3461010e57600036600319011261010e57600b546040516001600160a01b039091168152602090f35b600080fd5b3461010e57600036600319011261010e5761013960018060a01b03600d541633146110d8565b60ff60085416600681101561023c5760028114610292578015908115610287575b50156102525760ff6008541661017060046111bb565b600e54906101816040518092611041565b6040816004602060008051602061140f833981519152940152a260035460008161021657505060015b60075481810291818304149015171561020057600e54600d54604051602093909290916001600160a01b0316907f76be7f7b12bf790225259ca3b7ffb98f222f79af3c4c074e88e0c97af6f14025600080a38152f35b634e487b7160e01b600052601160045260246000fd5b600454820391821161022857506101aa565b634e487b7160e01b81526011600452602490fd5b634e487b7160e01b600052602160045260246000fd5b60405162461bcd60e51b815260206004820152600d60248201526c10d85b9b9bdd0818d85b98d95b609a1b6044820152606490fd5b60019150148161015a565b60405162461bcd60e51b815260206004820152600e60248201526d5461736b20657865637574696e6760901b6044820152606490fd5b3461010e57602036600319011261010e57600435801515810361010e576102fa60018060a01b03600c54163314611398565b60ff60085416600681101561023c576002036103fc57156103c557600454600019811461020057600101806004554260055560035480151591826103ba575b5050156103ad5760ff6008541661035060036111bb565b600e54906103616040518092611041565b6040816003602060008051602061140f833981519152940152a25b600e5460075490604051916001835260208301526000604083015260008051602061142f83398151915260603293a3005b6103b56113d1565b61037c565b101590508180610339565b6103cd6113d1565b600e546040519060008252600060208301526000604083015260008051602061142f83398151915260603293a3005b60405162461bcd60e51b815260206004820152600d60248201526c4e6f7420657865637574696e6760981b6044820152606490fd5b3461010e57600036600319011261010e576020601054604051908152f35b3461010e57600036600319011261010e57600c546040516001600160a01b039091168152602090f35b3461010e57602036600319011261010e5760043560606040805161049b816111f0565b600081526000602082015201526010548110156104df576104c76104c16104db9261114c565b5061122e565b604051918291602083526020830190611064565b0390f35b60405162461bcd60e51b8152602060048201526013602482015272496e646578206f7574206f6620626f756e647360681b6044820152606490fd5b3461010e57602036600319011261010e5761053361104e565b5061054960018060a01b03600c54163314611398565b60ff60085416600681101561023c576105628115611113565b61056a61130a565b156105b057600260ff19600854161760085560008051602061140f8339815191526040600e549261059d82518092611041565b60026020820152a2602060405160018152f35b60405162461bcd60e51b815260206004820152600e60248201526d4e6f742065786563757461626c6560901b6044820152606490fd5b3461010e57600036600319011261010e57602061060161130a565b6040519015158152f35b3461010e57600036600319011261010e5761063160018060a01b03600d541633146110d8565b60ff60085416600681101561023c5761064a9015611113565b60ff6008541661065a60016111bb565b600e549061066b6040518092611041565b6040816001602060008051602061140f833981519152940152a2005b3461010e57600036600319011261010e5760006101606040516106a9816111d4565b8281528260208201528260408201528260608201528260808201528260a08201528260c08201528260e082015282610100820152826101208201528261014082015201526040516106f9816111d4565b6000548152600154906020810160018060a01b0383168152604082019260a01c83526002549260608301938452600354608084019081526004549060a0850191825260055460c0860190815260065460e0870190815260075491610100880192835260ff6008541694610120890194600687101561023c576101809a6107e9978752600954986101408c01998a52600a549a6101608d019b8c526040519c518d5260018060a01b0390511660208d015260018060601b0390511660408c01525160608b01525160808a01525160a08901525160c08801525160e08701525161010086015251610120850190611041565b5161014083015251610160820152f35b3461010e57600036600319011261010e576010546001600160401b0381116108ee576040519061082f60208260051b018361120b565b808252601060009081526020830191907f1b6847dc741a1b0cd08d278845f9d819d87b734759afb55fe2de5cb82a9ae672835b8383106108d057848660405191829160208301906020845251809152604083019060408160051b85010192916000905b8282106108a157505050500390f35b919360019193955060206108c08192603f198a82030186528851611064565b9601920192018594939192610892565b600260206001926108e08561122e565b815201920192019190610862565b634e487b7160e01b600052604160045260246000fd5b3461010e5761020036600319011261010e576004356024356001600160a01b0381169081900361010e576044356001600160a01b0381169081900361010e576064356001600160a01b038116929083900361010e5761018036608319011261010e57600f5460ff8116610b45578115610b0e578215610ad9578315610aa45760ff1916600117600f55600e849055600d80546001600160a01b0319908116929092179055600b8054821692909217909155600c805490911691909117905560843560005560a4356001600160a01b0381169081810361010e5750600180546001600160a01b03191691909117905560c4356001600160601b038116810361010e57600180546001600160a01b031660a09290921b6001600160a01b03191691909117905560e435600255610104356003556101243560045561014435600555610164356006908155610184356007556101a4359081101561010e57610a68906111bb565b6101c4356009556101e435600a5560008051602061140f833981519152604060ff60085416610aa1825191600083526020830190611041565ba2005b60405162461bcd60e51b815260206004820152600d60248201526c496e76616c6964206c6f67696360981b6044820152606490fd5b60405162461bcd60e51b815260206004820152600d60248201526c125b9d985b1a59081d985d5b1d609a1b6044820152606490fd5b60405162461bcd60e51b815260206004820152600f60248201526e24b73b30b634b21031b932b0ba37b960891b6044820152606490fd5b60405162461bcd60e51b8152602060048201526013602482015272105b1c9958591e481a5b9a5d1a585b1a5e9959606a1b6044820152606490fd5b3461010e57602036600319011261010e576004356001600160401b03811161010e573660238201121561010e5760048101356001600160401b03811161010e573660248260051b8401011161010e57601054610e065790600091608219823603015b81841015610e045760009360248160051b8501013582811215610e00578401601054600160401b811015610dec57806001610c20920160105561114c565b610dd85760248201356001600160e01b031981168103610dd057815463ffffffff19811660e09290921c9182178355604484013592916001600160a01b0384168403610dd4576001600160c01b03199091161760209290921b600160201b600160c01b03169190911781556001019060648101356042193683900301811215610dd057016024018035906001600160401b038211610dd0578136036020820113610dd057610cce8354611181565b601f8111610d8b575b5087601f8311600114610d1e5797829160019697989992610d10575b5050600019600383901b1c191690841b1790555b01929190610be2565b602092500101358880610cf3565b90601f19831684835260208320925b818110610d71575090600196979899848895949310610d54575b505050811b019055610d07565b0160200135600019600384901b60f8161c19169055888080610d47565b999260206001819282878701013581550194019a01610d2d565b83895260208920601f840160051c81019160208510610dc6575b601f0160051c01905b818110610dbb5750610cd7565b898155600101610dae565b9091508190610da5565b8780fd5b8980fd5b634e487b7160e01b87526004879052602487fd5b634e487b7160e01b87526041600452602487fd5b8580fd5b005b60405162461bcd60e51b81526020600482015260136024820152721058dd1a5bdb9cc8185b1c9958591e481cd95d606a1b6044820152606490fd5b602036600319011261010e57600435610e6560018060a01b03600d541633146110d8565b60ff60085416600681101561023c57610e7e9015611113565b8015610ebf577fc9a872890ea8825b816a0b0785d006c4a2a82440525afc713f00ed632febe151604060075483600755600e549382519182526020820152a2005b60405162461bcd60e51b815260206004820152600e60248201526d125b9d985b1a59081c995dd85c9960921b6044820152606490fd5b3461010e57600036600319011261010e57610180600054600154600254610f7b600354600454600554600654906007549260ff600854169460095497600a54996040519b8c5260018060a01b03811660208d015260a01c60408c015260608b015260808a015260a089015260c088015260e0870152610100860152610120850190611041565b610140830152610160820152f35b3461010e57600036600319011261010e576020600e54604051908152f35b3461010e57600036600319011261010e57610fcd60018060a01b03600d541633146110d8565b60ff60085416600681101561023c57600103610feb57610e046113d1565b60405162461bcd60e51b815260206004820152600a602482015269139bdd081c185d5cd95960b21b6044820152606490fd5b3461010e57600036600319011261010e57600d546001600160a01b03168152602090f35b90600682101561023c5752565b600435906001600160a01b038216820361010e57565b80516001600160e01b03191682526020808201516001600160a01b0316908301526040908101516060918301829052805191830182905292919060005b8181106110c2575060809293506000838284010152601f8019910116010190565b80602080928701015160808286010152016110a1565b156110df57565b60405162461bcd60e51b815260206004820152600c60248201526b27b7363c9031b932b0ba37b960a11b6044820152606490fd5b1561111a57565b60405162461bcd60e51b815260206004820152600a6024820152694e6f742061637469766560b01b6044820152606490fd5b60105481101561116b57601060005260206000209060011b0190600090565b634e487b7160e01b600052603260045260246000fd5b90600182811c921680156111b1575b602083101461119b57565b634e487b7160e01b600052602260045260246000fd5b91607f1691611190565b600681101561023c5760ff801960085416911617600855565b61018081019081106001600160401b038211176108ee57604052565b606081019081106001600160401b038211176108ee57604052565b601f909101601f19168101906001600160401b038211908210176108ee57604052565b9060405161123b816111f0565b60018193805463ffffffff60e01b8160e01b168452828060a01b039060201c1660208401520190604051809260009080549061127682611181565b80855291600181169081156112e357506001146112a3575b50506040929161129f91038461120b565b0152565b6000908152602081209092505b8183106112c757505081016020018161129f61128e565b60209193508060019154838589010152019101909184926112b0565b60ff191660208681019190915292151560051b8501909201925083915061129f905061128e565b60ff60085416600681101561023c5761137157600254801515908161138e575b50611371576003548015159081611381575b506113715760065480151580611376575b611358575b50600190565b6005549081018091116102005742106113715738611352565b600090565b50600554151561134d565b905060045410153861133c565b905042113861132a565b1561139f57565b60405162461bcd60e51b815260206004820152600a6024820152694f6e6c79206c6f67696360b01b6044820152606490fd5b60ff600854166113e160006111bb565b600e54906113f26040518092611041565b6040816000602060008051602061140f833981519152940152a256fe221cf2cc78e24c3ccc2559bb5e6edda3f0133ab39e26a0226bcecb01a8a9233abe9a018f7d3ecde405aff6b68bd5f75cc16e1ce2db740ef34423cad332b6b3a7a2646970667358221220c781883205baffb3ee228547e84edee16ef649f08290717274cbaa6f5ceb181564736f6c634300081c0033",
  "linkReferences": {},
  "deployedLinkReferences": {}
}