{
  "_format": "hh-sol-artifact-1",
  "contractName": "TaskFactory",
  "sourceName": "contracts/core/TaskFactory.sol",
  "abi": [
    {
      "inputs": [
        {
          "internalType": "address",
          "name": "_taskCoreImpl",
          "type": "address"
        },
        {
          "internalType": "address",
          "name": "_taskVaultImpl",
          "type": "address"
        },
        {
          "internalType": "address",
          "name": "_taskLogic",
          "type": "address"
        },
        {
          "internalType": "address",
          "name": "_executorHub",
          "type": "address"
        },
        {
          "internalType": "address",
          "name": "_actionRegistry",
          "type": "address"
        },
        {
          "internalType": "address",
          "name": "_rewardManager",
          "type": "address"
        },
        {
          "internalType": "address",
          "name": "_owner",
          "type": "address"
        }
      ],
      "stateMutability": "nonpayable",
      "type": "constructor"
    },
    {
      "inputs": [],
      "name": "DeploymentFailed",
      "type": "error"
    },
    {
      "inputs": [],
      "name": "FailedDeployment",
      "type": "error"
    },
    {
      "inputs": [
        {
          "internalType": "uint256",
          "name": "balance",
          "type": "uint256"
        },
        {
          "internalType": "uint256",
          "name": "needed",
          "type": "uint256"
        }
      ],
      "name": "InsufficientBalance",
      "type": "error"
    },
    {
      "inputs": [],
      "name": "InsufficientCreationFee",
      "type": "error"
    },
    {
      "inputs": [],
      "name": "InvalidActions",
      "type": "error"
    },
    {
      "inputs": [],
      "name": "InvalidExpiration",
      "type": "error"
    },
    {
      "inputs": [],
      "name": "InvalidReward",
      "type": "error"
    },
    {
      "inputs": [
        {
          "internalType": "address",
          "name": "owner",
          "type": "address"
        }
      ],
      "name": "OwnableInvalidOwner",
      "type": "error"
    },
    {
      "inputs": [
        {
          "internalType": "address",
          "name": "account",
          "type": "address"
        }
      ],
      "name": "OwnableUnauthorizedAccount",
      "type": "error"
    },
    {
      "inputs": [],
      "name": "ReentrancyGuardReentrantCall",
      "type": "error"
    },
    {
      "inputs": [
        {
          "internalType": "address",
          "name": "token",
          "type": "address"
        }
      ],
      "name": "SafeERC20FailedOperation",
      "type": "error"
    },
    {
      "anonymous": false,
      "inputs": [
        {
          "indexed": false,
          "internalType": "uint256",
          "name": "oldFee",
          "type": "uint256"
        },
        {
          "indexed": false,
          "internalType": "uint256",
          "name": "newFee",
          "type": "uint256"
        }
      ],
      "name": "CreationFeeUpdated",
      "type": "event"
    },
    {
      "anonymous": false,
      "inputs": [
        {
          "indexed": false,
          "internalType": "uint256",
          "name": "oldMin",
          "type": "uint256"
        },
        {
          "indexed": false,
          "internalType": "uint256",
          "name": "newMin",
          "type": "uint256"
        }
      ],
      "name": "MinTaskRewardUpdated",
      "type": "event"
    },
    {
      "anonymous": false,
      "inputs": [
        {
          "indexed": true,
          "internalType": "address",
          "name": "previousOwner",
          "type": "address"
        },
        {
          "indexed": true,
          "internalType": "address",
          "name": "newOwner",
          "type": "address"
        }
      ],
      "name": "OwnershipTransferred",
      "type": "event"
    },
    {
      "anonymous": false,
      "inputs": [
        {
          "indexed": true,
          "internalType": "uint256",
          "name": "taskId",
          "type": "uint256"
        },
        {
          "indexed": true,
          "internalType": "address",
          "name": "creator",
          "type": "address"
        },
        {
          "indexed": true,
          "internalType": "address",
          "name": "taskCore",
          "type": "address"
        },
        {
          "indexed": false,
          "internalType": "address",
          "name": "taskVault",
          "type": "address"
        },
        {
          "indexed": false,
          "internalType": "uint256",
          "name": "reward",
          "type": "uint256"
        },
        {
          "indexed": false,
          "internalType": "uint256",
          "name": "maxExecutions",
          "type": "uint256"
        }
      ],
      "name": "TaskCreated",
      "type": "event"
    },
    {
      "inputs": [],
      "name": "actionRegistry",
      "outputs": [
        {
          "internalType": "address",
          "name": "",
          "type": "address"
        }
      ],
      "stateMutability": "view",
      "type": "function"
    },
    {
      "inputs": [
        {
          "components": [
            {
              "internalType": "uint256",
              "name": "expiresAt",
              "type": "uint256"
            },
            {
              "internalType": "uint256",
              "name": "maxExecutions",
              "type": "uint256"
            },
            {
              "internalType": "uint256",
              "name": "recurringInterval",
              "type": "uint256"
            },
            {
              "internalType": "uint256",
              "name": "rewardPerExecution",
              "type": "uint256"
            },
            {
              "internalType": "bytes32",
              "name": "seedCommitment",
              "type": "bytes32"
            }
          ],
          "internalType": "struct ITaskFactory.TaskParams",
          "name": "params",
          "type": "tuple"
        },
        {
          "components": [
            {
              "internalType": "bytes4",
              "name": "selector",
              "type": "bytes4"
            },
            {
              "internalType": "address",
              "name": "protocol",
              "type": "address"
            },
            {
              "internalType": "bytes",
              "name": "params",
              "type": "bytes"
            }
          ],
          "internalType": "struct ITaskFactory.ActionParams[]",
          "name": "actions",
          "type": "tuple[]"
        }
      ],
      "name": "createTask",
      "outputs": [
        {
          "internalType": "uint256",
          "name": "taskId",
          "type": "uint256"
        },
        {
          "internalType": "address",
          "name": "taskCore",
          "type": "address"
        },
        {
          "internalType": "address",
          "name": "taskVault",
          "type": "address"
        }
      ],
      "stateMutability": "payable",
      "type": "function"
    },
    {
      "inputs": [
        {
          "components": [
            {
              "internalType": "uint256",
              "name": "expiresAt",
              "type": "uint256"
            },
            {
              "internalType": "uint256",
              "name": "maxExecutions",
              "type": "uint256"
            },
            {
              "internalType": "uint256",
              "name": "recurringInterval",
              "type": "uint256"
            },
            {
              "internalType": "uint256",
              "name": "rewardPerExecution",
              "type": "uint256"
            },
            {
              "internalType": "bytes32",
              "name": "seedCommitment",
              "type": "bytes32"
            }
          ],
          "internalType": "struct ITaskFactory.TaskParams",
          "name": "params",
          "type": "tuple"
        },
        {
          "components": [
            {
              "internalType": "bytes4",
              "name": "selector",
              "type": "bytes4"
            },
            {
              "internalType": "address",
              "name": "protocol",
              "type": "address"
            },
            {
              "internalType": "bytes",
              "name": "params",
              "type": "bytes"
            }
          ],
          "internalType": "struct ITaskFactory.ActionParams[]",
          "name": "actions",
          "type": "tuple[]"
        },
        {
          "components": [
            {
              "internalType": "address",
              "name": "token",
              "type": "address"
            },
            {
              "internalType": "uint256",
              "name": "amount",
              "type": "uint256"
            }
          ],
          "internalType": "struct ITaskFactory.TokenDeposit[]",
          "name": "deposits",
          "type": "tuple[]"
        }
      ],
      "name": "createTaskWithTokens",
      "outputs": [
        {
          "internalType": "uint256",
          "name": "taskId",
          "type": "uint256"
        },
        {
          "internalType": "address",
          "name": "taskCore",
          "type": "address"
        },
        {
          "internalType": "address",
          "name": "taskVault",
          "type": "address"
        }
      ],
      "stateMutability": "payable",
      "type": "function"
    },
    {
      "inputs": [],
      "name": "creationFee",
      "outputs": [
        {
          "internalType": "uint256",
          "name": "",
          "type": "uint256"
        }
      ],
      "stateMutability": "view",
      "type": "function"
    },
    {
      "inputs": [],
      "name": "executorHub",
      "outputs": [
        {
          "internalType": "address",
          "name": "",
          "type": "address"
        }
      ],
      "stateMutability": "view",
      "type": "function"
    },
    {
      "inputs": [
        {
          "internalType": "uint256",
          "name": "taskId",
          "type": "uint256"
        }
      ],
      "name": "getTask",
      "outputs": [
        {
          "components": [
            {
              "internalType": "uint256",
              "name": "taskId",
              "type": "uint256"
            },
            {
              "internalType": "address",
              "name": "taskCore",
              "type": "address"
            },
            {
              "internalType": "address",
              "name": "taskVault",
              "type": "address"
            },
            {
              "internalType": "address",
              "name": "creator",
              "type": "address"
            }
          ],
          "internalType": "struct ITaskFactory.DeployedTask",
          "name": "",
          "type": "tuple"
        }
      ],
      "stateMutability": "view",
      "type": "function"
    },
    {
      "inputs": [
        {
          "internalType": "uint256",
          "name": "taskId",
          "type": "uint256"
        }
      ],
      "name": "getTaskAddresses",
      "outputs": [
        {
          "internalType": "address",
          "name": "taskCore",
          "type": "address"
        },
        {
          "internalType": "address",
          "name": "taskVault",
          "type": "address"
        }
      ],
      "stateMutability": "view",
      "type": "function"
    },
    {
      "inputs": [],
      "name": "globalRegistry",
      "outputs": [
        {
          "internalType": "address",
          "name": "",
          "type": "address"
        }
      ],
      "stateMutability": "view",
      "type": "function"
    },
    {
      "inputs": [],
      "name": "maxTaskDuration",
      "outputs": [
        {
          "internalType": "uint256",
          "name": "",
          "type": "uint256"
        }
      ],
      "stateMutability": "view",
      "type": "function"
    },
    {
      "inputs": [],
      "name": "minTaskReward",
      "outputs": [
        {
          "internalType": "uint256",
          "name": "",
          "type": "uint256"
        }
      ],
      "stateMutability": "view",
      "type": "function"
    },
    {
      "inputs": [],
      "name": "nextTaskId",
      "outputs": [
        {
          "internalType": "uint256",
          "name": "",
          "type": "uint256"
        }
      ],
      "stateMutability": "view",
      "type": "function"
    },
    {
      "inputs": [],
      "name": "owner",
      "outputs": [
        {
          "internalType": "address",
          "name": "",
          "type": "address"
        }
      ],
      "stateMutability": "view",
      "type": "function"
    },
    {
      "inputs": [],
      "name": "renounceOwnership",
      "outputs": [],
      "stateMutability": "nonpayable",
      "type": "function"
    },
    {
      "inputs": [],
      "name": "rewardManager",
      "outputs": [
        {
          "internalType": "address",
          "name": "",
          "type": "address"
        }
      ],
      "stateMutability": "view",
      "type": "function"
    },
    {
      "inputs": [
        {
          "internalType": "uint256",
          "name": "_fee",
          "type": "uint256"
        }
      ],
      "name": "setCreationFee",
      "outputs": [],
      "stateMutability": "nonpayable",
      "type": "function"
    },
    {
      "inputs": [
        {
          "internalType": "address",
          "name": "_globalRegistry",
          "type": "address"
        }
      ],
      "name": "setGlobalRegistry",
      "outputs": [],
      "stateMutability": "nonpayable",
      "type": "function"
    },
    {
      "inputs": [
        {
          "internalType": "uint256",
          "name": "_duration",
          "type": "uint256"
        }
      ],
      "name": "setMaxTaskDuration",
      "outputs": [],
      "stateMutability": "nonpayable",
      "type": "function"
    },
    {
      "inputs": [
        {
          "internalType": "uint256",
          "name": "_minReward",
          "type": "uint256"
        }
      ],
      "name": "setMinTaskReward",
      "outputs": [],
      "stateMutability": "nonpayable",
      "type": "function"
    },
    {
      "inputs": [],
      "name": "taskCoreImplementation",
      "outputs": [
        {
          "internalType": "address",
          "name": "",
          "type": "address"
        }
      ],
      "stateMutability": "view",
      "type": "function"
    },
    {
      "inputs": [],
      "name": "taskLogic",
      "outputs": [
        {
          "internalType": "address",
          "name": "",
          "type": "address"
        }
      ],
      "stateMutability": "view",
      "type": "function"
    },
    {
      "inputs": [],
      "name": "taskVaultImplementation",
      "outputs": [
        {
          "internalType": "address",
          "name": "",
          "type": "address"
        }
      ],
      "stateMutability": "view",
      "type": "function"
    },
    {
      "inputs": [
        {
          "internalType": "address",
          "name": "newOwner",
          "type": "address"
        }
      ],
      "name": "transferOwnership",
      "outputs": [],
      "stateMutability": "nonpayable",
      "type": "function"
    },
    {
      "inputs": [
        {
          "internalType": "address",
          "name": "recipient",
          "type": "address"
        }
      ],
      "name": "withdrawFees",
      "outputs": [],
      "stateMutability": "nonpayable",
      "type": "function"
    },
    {
      "stateMutability": "payable",
      "type": "receive"
    }
  ],
  "bytecode": "6101403461036057601f6121b138819003918201601f19168301916001600160401b038311848410176103655780849260e094604052833981010312610360576100488161037b565b6100546020830161037b565b6100606040840161037b565b61006c6060850161037b565b916100796080860161037b565b9361008660a0870161037b565b956001600160a01b039061009c9060c00161037b565b16801561034a57600080546001600160a01b031981168317825560405192916001600160a01b03909116907f8be0079c531659141344cd1fd0a4f28419497f9722a3daafe3b4186f6b6457e09080a36001805566038d7ea4c680006003556301e1338060045560006005556001600160a01b0382161561031457506001600160a01b038216156102da576001600160a01b038316156102a5576001600160a01b03841615610272576001600160a01b0385161561023a576001600160a01b038616156101f55760805260a05260c05260e0526101005261012052604051611e21908161039082396080518181816102ab01528181610ea8015261182e015260a0518181816102d501528181610ed20152611abf015260c05181818161040c01528181610d8f0152611013015260e05181610caf015261010051816101eb01526101205181818161051f015281816111220152611a7a0152f35b60405162461bcd60e51b815260206004820152601660248201527f496e76616c696420726577617264206d616e61676572000000000000000000006044820152606490fd5b60405162461bcd60e51b815260206004820152601060248201526f496e76616c696420726567697374727960801b6044820152606490fd5b60405162461bcd60e51b815260206004820152600b60248201526a24b73b30b634b210343ab160a91b6044820152606490fd5b60405162461bcd60e51b815260206004820152600d60248201526c496e76616c6964206c6f67696360981b6044820152606490fd5b60405162461bcd60e51b8152602060048201526012602482015271125b9d985b1a59081d985d5b1d081a5b5c1b60721b6044820152606490fd5b62461bcd60e51b8152602060048201526011602482015270125b9d985b1a590818dbdc99481a5b5c1b607a1b6044820152606490fd5b631e4fbdf760e01b600052600060045260246000fd5b600080fd5b634e487b7160e01b600052604160045260246000fd5b51906001600160a01b03821682036103605756fe6080604052600436101561001b575b361561001957600080fd5b005b6000803560e01c8062ac1d8a14611aee57806302c47a8914611aa95780630f4ef8a614611a64578063164e68de146119a95780631d65e77e146118fc5780632e813202146118b35780634be5270d1461185d578063645e6d5914611818578063715018a6146117d0578063852bd26b14610dbe57806386dc11be14610d795780638da5cb5b14610d52578063b7d8622514610cfc578063c0be15ec14610cde578063cce2095414610c99578063daa8bfdd14610c70578063dc4590be14610c0f578063dce0b4e414610bf1578063e4828b7e1461021a578063e4e39678146101d5578063f0992c97146101b7578063f2fde38b146101435763fdc3d8d714610123575061000e565b346101405780600319360112610140576020600654604051908152f35b80fd5b50346101405760203660031901126101405761015d611b6e565b610165611c9c565b6001600160a01b031680156101a35781546001600160a01b03198116821783556001600160a01b0316600080516020611dac8339815191528380a380f35b631e4fbdf760e01b82526004829052602482fd5b50346101405780600319360112610140576020600354604051908152f35b50346101405780600319360112610140576040517f00000000000000000000000000000000000000000000000000000000000000006001600160a01b03168152602090f35b50366003190160c0811261075d5760a0136101405760a4356001600160401b03811161075d5761024e903690600401611b9d565b610256611cc5565b6040516020916102668383611c3a565b84825260035460643510610be257600435610bb3575b80158015610ba9575b610b9a5760055480610b4d575b506006546000198114610b3957600181016006556102cf7f0000000000000000000000000000000000000000000000000000000000000000611d44565b906102f97f0000000000000000000000000000000000000000000000000000000000000000611d44565b92602435610b0557606435965b600554973489340311610af15788340310610aae5790604051809282604083018a8085015252606082019260608160051b8401019180948d915b8383106109ec575050505061035e925003601f198101835282611c3a565b858151910120956040519661037288611c1e565b8288523387890152426001600160601b031660408901526004356060890152602435608089015260a0880189905260c0880189905260443560e089015260643561010089015261012088018990526101408801526084356101608801526001600160a01b0383163b156109e8576040805163254110d560e11b8152600481018490523360248201526001600160a01b0386811660448301527f00000000000000000000000000000000000000000000000000000000000000008116606483015289516084830152888a01511660a4820152908801516001600160601b031660c4820152606088015160e4820152608088015161010482015260a088015161012482015260c088015161014482015260e088015161016482015261010088015161018482015261012088015160068110156109d4576101a48201526101408801516101c48201526101608801516101e4820152889190828161020481836001600160a01b038a165af19081156107615783916109bf575b50506001600160a01b0385163b1561075d5760405163c0c53b8b60e01b81526001600160a01b0385811660048301523360248301527f00000000000000000000000000000000000000000000000000000000000000008116604483015283908290606490829084908b165af19081156107615783916109aa575b5050803403610946575b505b84518110156107b1576001600160a01b036105898287611ce7565b515116868981610599858a611ce7565b510151604051838101916323b872dd60e01b83523360248301523060448301526064820152606481526105cd608482611c3a565b519082855af1156107a65788513d61079d5750803b155b61078b5750879081876106306001600160a01b03610602858b611ce7565b51511682610610868c611ce7565b51015160405194858094819363095ea7b360e01b83528d60048401611d29565b03925af1801561076157610770575b506001600160a01b036106528288611ce7565b515116876106608389611ce7565b510151906001600160a01b0387163b1561076c576040516319c5aef560e11b815291849183918291610696919060048401611d29565b0381836001600160a01b038b165af1908115610761578391610748575b508790506001600160a01b036106c98389611ce7565b515160405163095ea7b360e01b81526001600160a01b038916600482015260248101869052948592604492849291165af191821561073d57600192610710575b500161056e565b61072f90883d8a11610736575b6107278183611c3a565b810190611d11565b5038610709565b503d61071d565b6040513d8b823e3d90fd5b8161075291611c3a565b61075d5781386106b3565b5080fd5b6040513d85823e3d90fd5b8380fd5b61078690883d8a11610736576107278183611c3a565b61063f565b635274afe760e01b8952600452602488fd5b600114156105e4565b6040513d8a823e3d90fd5b50828588886040516107c281611bed565b8581526001600160a01b0387811685830181815287831660408086018281523360608089018281528e8c5260078d52848c2099518a55955160018a018054918a166001600160a01b0319928316179055925160028a018054918a1691851691909117905594516003909801805498909716979091169690961790945561010086015160809096015184519182528189019690965292830194909452928791600080516020611dcc8339815191529190a46002546001600160a01b03168061089f575b50505061089b906001805560405193849384611bcd565b0390f35b6040516309c910f360e31b848201908152602482018790526001600160a01b0388811660448401528616606483015233608480840191909152825283929183906108ea60a482611c3a565b51925af16108f6611c5d565b5015610903578080610884565b6064906040519062461bcd60e51b82526004820152601c60248201527b149959da5cdd1c9e481c9959da5cdd1c985d1a5bdb8819985a5b195960221b6044820152fd5b6001600160a01b0385163b1561075d57604051636db5a92360e11b81529082908290600490829034036001600160a01b038a165af1801561099f571561056c578161099091611c3a565b61099b57863861056c565b8680fd5b6040513d84823e3d90fd5b816109b491611c3a565b61075d578138610562565b816109c991611c3a565b61075d5781386104e8565b634e487b7160e01b8a52602160045260248afd5b8780fd5b919390929450605f198782030183528d8635605e198436030181121561075d578301803563ffffffff60e01b8116809103610aaa5783528d6001600160a01b03610a37838301611b89565b16908401526040810135601e1982360301811215610aaa5701803591908e016001600160401b03831161075d57823603811361075d57838f938493816080946060604060019a015281606086015285850137838284010152601f8019910116010197019301930190928694929593610340565b8280fd5b60405162461bcd60e51b815260048101889052601b60248201527a496e73756666696369656e74207265776172642066756e64696e6760281b6044820152606490fd5b634e487b7160e01b8a52601160045260248afd5b60243560643502606435810460243514606435151715610b255796610306565b634e487b7160e01b89526011600452602489fd5b634e487b7160e01b86526011600452602486fd5b3410610b595738610292565b60405162461bcd60e51b8152600481018490526019602482015278496e73756666696369656e74206372656174696f6e2066656560381b6044820152606490fd5b6333b028a960e01b8552600485fd5b50600a8111610285565b426004351115610bd3576004544201804211610b3957600435111561027c575b637d9533a960e11b8552600485fd5b6314414f4160e11b8552600485fd5b50346101405780600319360112610140576020600554604051908152f35b503461014057602036600319011261014057600435610c2c611c9c565b8015610c385760045580f35b60405162461bcd60e51b815260206004820152601060248201526f24b73b30b634b210323ab930ba34b7b760811b6044820152606490fd5b50346101405780600319360112610140576002546040516001600160a01b039091168152602090f35b50346101405780600319360112610140576040517f00000000000000000000000000000000000000000000000000000000000000006001600160a01b03168152602090f35b50346101405780600319360112610140576020600454604051908152f35b5034610140576020366003190112610140577f5de302eeb1c80d4fb0c0953b692353f09ddf431411b8eb2034d5e857695619126040600435610d3c611c9c565b600554908060055582519182526020820152a180f35b5034610140578060031936011261014057546040516001600160a01b039091168152602090f35b50346101405780600319360112610140576040517f00000000000000000000000000000000000000000000000000000000000000006001600160a01b03168152602090f35b50366003190160e0811261075d5760a0136101405760a4356001600160401b03811161075d57610df2903690600401611b9d565b60c435906001600160401b03821161076c573660238301121561076c576004820135916001600160401b0383116117cc5760248360061b82010136811161154257610e3b611cc5565b60208460051b0193610e506040519586611c3a565b84526024602085019201915b81831061176e575050506003546064351061175f57600435611730575b80158015611726575b61171757600554806116ca575b5060065460001981146116b65760018101600655610ecc7f0000000000000000000000000000000000000000000000000000000000000000611d44565b90610ef67f0000000000000000000000000000000000000000000000000000000000000000611d44565b9260243561168257606435955b600554963488340311610b25578734031061163f576040518281936040830160208085015252606082019260608260051b8401019181948c92605e19813603015b838510611583575050505050610f63925003601f198101835282611c3a565b602081519101209460405195610f7887611c1e565b828752336020880152426001600160601b031660408801526004356060880152602435608088015260a0870188905260c0870188905260443560e088015260643561010088015261012087018890526101408701526084356101608701526001600160a01b0383163b1561099b576040805163254110d560e11b8152600481018490523360248201526001600160a01b0386811660448301527f0000000000000000000000000000000000000000000000000000000000000000811660648301528851608483015260208901511660a4820152908701516001600160601b031660c4820152606087015160e4820152608087015161010482015260a087015161012482015260c087015161014482015260e0870151610164820152610100870151610184820152610120870151600681101561156f576101a48201526101408701516101c48201526101608701516101e4820152878161020481836001600160a01b0389165af180156107a65761155b575b5086906001600160a01b0385163b1561075d5760405163c0c53b8b60e01b81526001600160a01b0385811660048301523360248301527f00000000000000000000000000000000000000000000000000000000000000008116604483015283908290606490829084908b165af1908115610761578391611546575b50508034036114ed575b505b845181101561135e576001600160a01b0361118c8287611ce7565b5151166020888161119d858a611ce7565b510151604051838101916323b872dd60e01b83523360248301523060448301526064820152606481526111d1608482611c3a565b519082855af1156113535787513d61134a5750803b155b611338575086908160206112076001600160a01b03610602858b611ce7565b03925af180156107615761131c575b506001600160a01b036112298288611ce7565b51511660206112388389611ce7565b510151906001600160a01b0387163b1561076c576040516319c5aef560e11b81529184918391829161126e919060048401611d29565b0381836001600160a01b038b165af1908115610761578391611307575b50602090506001600160a01b036112a28389611ce7565b515160405163095ea7b360e01b81526001600160a01b038916600482015260248101869052948592604492849291165af19182156107a6576001926112e9575b5001611171565b6113009060203d8111610736576107278183611c3a565b50386112e2565b8161131191611c3a565b61075d57813861128b565b6113339060203d8111610736576107278183611c3a565b611216565b635274afe760e01b8852600452602487fd5b600114156111e8565b6040513d89823e3d90fd5b5082868660405161136e81611bed565b8481526001600160a01b0386811660208084018281528784166040808701828152336060808a018281528e8d5260078852848d209a518b55955160018b018054918b166001600160a01b0319928316179055925160028b018054918b1691851691909117905594516003909901805499909816989091169790971790955561010087015160809097015185519182529281019690965292850152928691600080516020611dcc83398151915291a46002546001600160a01b031680611444575b505061089b906001805560405193849384611bcd565b6040516309c910f360e31b60208201908152602482018690526001600160a01b03878116604484015285166064830152336084808401919091528252839291839061149060a482611c3a565b51925af161149c611c5d565b50156114a957838061142e565b60405162461bcd60e51b815260206004820152601c60248201527b149959da5cdd1c9e481c9959da5cdd1c985d1a5bdb8819985a5b195960221b6044820152606490fd5b6001600160a01b0385163b1561075d57604051636db5a92360e11b81529082908290600490829034036001600160a01b038a165af1801561099f571561116f578161153791611c3a565b61154257853861116f565b8580fd5b8161155091611c3a565b61075d578138611165565b8761156891989298611c3a565b95386110ea565b634e487b7160e01b89526021600452602489fd5b919395509193605f198882030184528d87358381121561075d578401803563ffffffff60e01b8116809103610aaa5783526001600160a01b036115c860208301611b89565b1660208401526040810135601e1982360301811215610aaa5701803591906020016001600160401b03831161075d57823603811361075d5783836020949385946080946060604060019a015281606086015285850137838284010152601f8019910116010198019401950192959391879591610f44565b60405162461bcd60e51b815260206004820152601b60248201527a496e73756666696369656e74207265776172642066756e64696e6760281b6044820152606490fd5b602435606435026064358104602435146064351517156116a25795610f03565b634e487b7160e01b88526011600452602488fd5b634e487b7160e01b85526011600452602485fd5b34106116d65738610e8f565b60405162461bcd60e51b8152602060048201526019602482015278496e73756666696369656e74206372656174696f6e2066656560381b6044820152606490fd5b6333b028a960e01b8452600484fd5b50600a8111610e82565b4260043511156117505760045442018042116116b6576004351115610e79575b637d9533a960e11b8452600484fd5b6314414f4160e11b8452600484fd5b60408336031261099b57604080519081016001600160401b038111828210176117b8579160209160409384526117a386611b89565b81528286013583820152815201920191610e5c565b634e487b7160e01b89526041600452602489fd5b8480fd5b50346101405780600319360112610140576117e9611c9c565b80546001600160a01b03198116825581906001600160a01b0316600080516020611dac8339815191528280a380f35b50346101405780600319360112610140576040517f00000000000000000000000000000000000000000000000000000000000000006001600160a01b03168152602090f35b5034610140576020366003190112610140577f20d5b0af09ee8450f889cd800bede8b088181b117ecfaa09645063d056d6ac41604060043561189d611c9c565b600354908060035582519182526020820152a180f35b503461014057602036600319011261014057600435815260076020908152604091829020600181015460029091015483516001600160a01b039283168152911691810191909152f35b5034610140576020366003190112610140576040816080926060835161192181611bed565b82815282602082015282858201520152600435815260076020522060405161194881611bed565b815480825260018301546001600160a01b039081166020808501918252600286015483166040808701918252600390970154841660609687019081528751958652925184169185019190915251821694830194909452925190921690820152f35b5034610140576020366003190112610140576119c3611b6e565b6119cb611c9c565b6001600160a01b03811615611a2b57818080809347905af16119eb611c5d565b50156119f45780f35b60405162461bcd60e51b815260206004820152600f60248201526e151c985b9cd9995c8819985a5b1959608a1b6044820152606490fd5b60405162461bcd60e51b8152602060048201526011602482015270125b9d985b1a59081c9958da5c1a595b9d607a1b6044820152606490fd5b50346101405780600319360112610140576040517f00000000000000000000000000000000000000000000000000000000000000006001600160a01b03168152602090f35b50346101405780600319360112610140576040517f00000000000000000000000000000000000000000000000000000000000000006001600160a01b03168152602090f35b503461014057602036600319011261014057611b08611b6e565b611b10611c9c565b6001600160a01b03168015611b3657600280546001600160a01b03191691909117905580f35b60405162461bcd60e51b815260206004820152601060248201526f496e76616c696420726567697374727960801b6044820152606490fd5b600435906001600160a01b0382168203611b8457565b600080fd5b35906001600160a01b0382168203611b8457565b9181601f84011215611b84578235916001600160401b038311611b84576020808501948460051b010111611b8457565b9081526001600160a01b0391821660208201529116604082015260600190565b608081019081106001600160401b03821117611c0857604052565b634e487b7160e01b600052604160045260246000fd5b61018081019081106001600160401b03821117611c0857604052565b601f909101601f19168101906001600160401b03821190821017611c0857604052565b3d15611c97573d906001600160401b038211611c085760405191611c8b601f8201601f191660200184611c3a565b82523d6000602084013e565b606090565b6000546001600160a01b03163303611cb057565b63118cdaa760e01b6000523360045260246000fd5b600260015414611cd6576002600155565b633ee5aeb560e01b60005260046000fd5b8051821015611cfb5760209160051b010190565b634e487b7160e01b600052603260045260246000fd5b90816020910312611b8457518015158103611b845790565b6001600160a01b039091168152602081019190915260400190565b6e5af43d82803e903d91602b57fd5bf390763d602d80600a3d3981f3363d3d373d3d3d363d7300000062ffffff8260881c161760005260781b17602052603760096000f0906001600160a01b03821615611d9a57565b63b06ebf3d60e01b60005260046000fdfe8be0079c531659141344cd1fd0a4f28419497f9722a3daafe3b4186f6b6457e03e808ec736d43f3ea790feba5c7ae19b574c7cf0309ca871c7ac4ddb2701f3e5a264697066735822122007a75cdb97c88fc4d56edbc65ca1a68316dc21e3a44b3e23a784e72838bcfc7864736f6c634300081c0033",
  "linkReferences": {},
  "deployedLinkReferences": {}
}