{
  "_format": "hh-sol-artifact-1",
  "contractName": "UniswapV2USDCETHBuyLimitAdapter",
  "sourceName": "contracts/adapters/UniswapV2USDCETHBuyLimitAdapter.sol",
  "abi": [
    {
      "inputs": [
        {
          "internalType": "address",
          "name": "_usdc",
          "type": "address"
        },
        {
          "internalType": "address",
          "name": "_weth",
          "type": "address"
        },
        {
          "internalType": "address",
          "name": "_router",
          "type": "address"
        },
        {
          "internalType": "address",
          "name": "_priceFeed",
          "type": "address"
        }
      ],
      "stateMutability": "nonpayable",
      "type": "constructor"
    },
    {
      "inputs": [
        {
          "internalType": "string",
          "name": "reason",
          "type": "string"
        }
      ],
      "name": "ExecutionFailed",
      "type": "error"
    },
    {
      "inputs": [],
      "name": "OnlyActionRegistry",
      "type": "error"
    },
    {
      "inputs": [],
      "name": "OnlyVault",
      "type": "error"
    },
    {
      "inputs": [],
      "name": "ProtocolNotSupported",
      "type": "error"
    },
    {
      "inputs": [
        {
          "internalType": "address",
          "name": "token",
          "type": "address"
        }
      ],
      "name": "SafeERC20FailedOperation",
      "type": "error"
    },
    {
      "anonymous": false,
      "inputs": [
        {
          "indexed": true,
          "internalType": "address",
          "name": "vault",
          "type": "address"
        },
        {
          "indexed": true,
          "internalType": "address",
          "name": "protocol",
          "type": "address"
        },
        {
          "indexed": false,
          "internalType": "bool",
          "name": "success",
          "type": "bool"
        },
        {
          "indexed": false,
          "internalType": "bytes",
          "name": "result",
          "type": "bytes"
        }
      ],
      "name": "ActionExecuted",
      "type": "event"
    },
    {
      "inputs": [],
      "name": "ETH_USD_PRICE_FEED",
      "outputs": [
        {
          "internalType": "address",
          "name": "",
          "type": "address"
        }
      ],
      "stateMutability": "view",
      "type": "function"
    },
    {
      "inputs": [],
      "name": "UNISWAP_ROUTER",
      "outputs": [
        {
          "internalType": "address",
          "name": "",
          "type": "address"
        }
      ],
      "stateMutability": "view",
      "type": "function"
    },
    {
      "inputs": [],
      "name": "USDC",
      "outputs": [
        {
          "internalType": "address",
          "name": "",
          "type": "address"
        }
      ],
      "stateMutability": "view",
      "type": "function"
    },
    {
      "inputs": [],
      "name": "WETH",
      "outputs": [
        {
          "internalType": "address",
          "name": "",
          "type": "address"
        }
      ],
      "stateMutability": "view",
      "type": "function"
    },
    {
      "inputs": [
        {
          "internalType": "bytes",
          "name": "params",
          "type": "bytes"
        }
      ],
      "name": "canExecute",
      "outputs": [
        {
          "internalType": "bool",
          "name": "",
          "type": "bool"
        },
        {
          "internalType": "string",
          "name": "",
          "type": "string"
        }
      ],
      "stateMutability": "view",
      "type": "function"
    },
    {
      "inputs": [
        {
          "internalType": "address",
          "name": "vault",
          "type": "address"
        },
        {
          "internalType": "bytes",
          "name": "params",
          "type": "bytes"
        }
      ],
      "name": "execute",
      "outputs": [
        {
          "internalType": "bool",
          "name": "success",
          "type": "bool"
        },
        {
          "internalType": "bytes",
          "name": "result",
          "type": "bytes"
        }
      ],
      "stateMutability": "nonpayable",
      "type": "function"
    },
    {
      "inputs": [
        {
          "internalType": "bytes",
          "name": "params",
          "type": "bytes"
        }
      ],
      "name": "getTokenRequirements",
      "outputs": [
        {
          "internalType": "address[]",
          "name": "tokens",
          "type": "address[]"
        },
        {
          "internalType": "uint256[]",
          "name": "amounts",
          "type": "uint256[]"
        }
      ],
      "stateMutability": "pure",
      "type": "function"
    },
    {
      "inputs": [
        {
          "internalType": "address",
          "name": "protocol",
          "type": "address"
        }
      ],
      "name": "isProtocolSupported",
      "outputs": [
        {
          "internalType": "bool",
          "name": "",
          "type": "bool"
        }
      ],
      "stateMutability": "view",
      "type": "function"
    },
    {
      "inputs": [],
      "name": "name",
      "outputs": [
        {
          "internalType": "string",
          "name": "",
          "type": "string"
        }
      ],
      "stateMutability": "pure",
      "type": "function"
    }
  ],
  "bytecode": "610100346101e257601f6116d738819003918201601f19168301916001600160401b038311848410176101e7578084926080946040528339810103126101e257610048816101fd565b90610055602082016101fd565b61006d6060610066604085016101fd565b93016101fd565b926001600160a01b038116156101ae576001600160a01b0382161561017a576001600160a01b03831615610144576001600160a01b0384161561010a5760805260a05260c05260e0526040516114c5908161021282396080518181816102a6015261070c015260a0518181816101780152610749015260c051818181609f0152818160ee01526106cf015260e0518181816101330152610f510152f35b60405162461bcd60e51b8152602060048201526012602482015271125b9d985b1a59081c1c9a58d9481999595960721b6044820152606490fd5b60405162461bcd60e51b815260206004820152600e60248201526d24b73b30b634b2103937baba32b960911b6044820152606490fd5b60405162461bcd60e51b815260206004820152600c60248201526b092dcecc2d8d2c840ae8aa8960a31b6044820152606490fd5b60405162461bcd60e51b815260206004820152600c60248201526b496e76616c6964205553444360a01b6044820152606490fd5b600080fd5b634e487b7160e01b600052604160045260246000fd5b51906001600160a01b03821682036101e25756fe6080604052600436101561001257600080fd5b60003560e01c806306fdde03146103735780631cff79cd146103315780636c5be56b146102d557806389a3027114610290578063a53a180c146101a7578063ad5c464814610162578063b0f0abe91461011d578063d8264920146100d85763f7a7c56d1461007f57600080fd5b346100d35760203660031901126100d357602061009a61041a565b6040517f00000000000000000000000000000000000000000000000000000000000000006001600160a01b039081169216919091148152f35b600080fd5b346100d35760003660031901126100d3576040517f00000000000000000000000000000000000000000000000000000000000000006001600160a01b03168152602090f35b346100d35760003660031901126100d3576040517f00000000000000000000000000000000000000000000000000000000000000006001600160a01b03168152602090f35b346100d35760003660031901126100d3576040517f00000000000000000000000000000000000000000000000000000000000000006001600160a01b03168152602090f35b346100d35760203660031901126100d3576004356001600160401b0381116100d3576101da6101e2913690600401610444565b8101906104e7565b60408051916101f182846104ae565b60018352601f1982019081366020860137606083519161021185846104ae565b60018352602083019336853760208101516001600160a01b03166102348761057c565b5201516102408261057c565b5260206102568451958587968752860190610471565b9184830382860152519182815201919060005b818110610277575050500390f35b8251845285945060209384019390920191600101610269565b346100d35760003660031901126100d3576040517f00000000000000000000000000000000000000000000000000000000000000006001600160a01b03168152602090f35b346100d35760203660031901126100d3576004356001600160401b0381116100d35761030861030e913690600401610444565b90610f2c565b9061032d604051928392151583526040602084015260408301906103f5565b0390f35b346100d35760403660031901126100d35761034a61041a565b602435906001600160401b0382116100d35761036d61030e923690600401610444565b916106ab565b346100d35760003660031901126100d35761032d604080519061039681836104ae565b601f82527f556e69737761705632555344434554484275794c696d697441646170746572006020830152519182916020835260208301906103f5565b60005b8381106103e55750506000910152565b81810151838201526020016103d5565b9060209161040e815180928185528580860191016103d2565b601f01601f1916010190565b600435906001600160a01b03821682036100d357565b35906001600160a01b03821682036100d357565b9181601f840112156100d3578235916001600160401b0383116100d357602083818601950101116100d357565b906020808351928381520192019060005b81811061048f5750505090565b82516001600160a01b0316845260209384019390920191600101610482565b601f909101601f19168101906001600160401b038211908210176104d157604052565b634e487b7160e01b600052604160045260246000fd5b908160e09103126100d3576040519060e08201906001600160401b038211838310176104d15760c09160405261051c81610430565b835261052a60208201610430565b602084015261053b60408201610430565b6040840152606081013560608401526080810135608084015261056060a08201610430565b60a0840152013560c082015290565b519081151582036100d357565b8051156105895760200190565b634e487b7160e01b600052603260045260246000fd5b8051600110156105895760400190565b6020818303126100d3578051906001600160401b0382116100d357019080601f830112156100d3578151916001600160401b0383116104d1578260051b9060208201936105ff60405195866104ae565b84526020808501928201019283116100d357602001905b8282106106235750505090565b8151815260209182019101610616565b600060443d1061069a576040513d600319016004823e8051916001600160401b0383113d6024850111176106a5578183018051909390916001600160401b03831161069d573d8401600319018584016020011161069d575061069a929101602001906104ae565b90565b949350505050565b92915050565b9092916060936106bd828201826104e7565b80519095906001600160a01b039081167f000000000000000000000000000000000000000000000000000000000000000090911603610ee1576020860180519091906001600160a01b039081167f000000000000000000000000000000000000000000000000000000000000000090911603610e9b576040870180519091906001600160a01b039081167f000000000000000000000000000000000000000000000000000000000000000090911603610e5557870190815115610e16576080880194855115610dd35760a0890180519095906001600160a01b031615610d8d5760c08a01805115610d4b57516402540be4008110908115610d3b575b50610cea578160446000926040519485938492636c5be56b60e01b845260206004850152816024850152848401378181018301859052601f01601f19168101030181305afa908115610b8d576000908192610c33575b5015610bed575060018060a01b0383511660206000845198604051838101916323b872dd60e01b835260018060a01b03169a8b60248301523060448301526064820152606481526108616084826104ae565b519082855af115610b8d576000513d610be45750803b155b610bd057508251885160405163095ea7b360e01b81526001600160a01b039182166004820152600060248201819052909260209284926044928492165af18015610b8d57610b99575b5082518851835160405163095ea7b360e01b81526001600160a01b03928316600482015260248101919091529160209183916044918391600091165af18015610b8d57610b56575b506040519261091a6060856104ae565b600284526040366020860137516001600160a01b03166109398461057c565b52516001600160a01b031661094d8361059f565b5286519051935192516001600160a01b0390811693911690426103848101908110610b40576109aa956000958692604051988997889687956338ed173960e01b87526004870152602486015260a0604486015260a4850190610471565b916064840152608483015203925af160009181610b1b575b50610a9f5750600060033d11610a8d575b6308c379a014610a43575b604090600080516020611470833981519152610a3a835195610a0085886104ae565b600b87526a14ddd85c0819985a5b195960aa1b602088015260018060a01b03905116938051918291600083528060208401528201886103f5565b0390a360009190565b610a4b610633565b80610a5657506109de565b9260018060a01b0390511690600080516020611470833981519152604051600081526040602082015280610a3a60408201886103f5565b5060046000803e60005160e01c6109d3565b610aa89061059f565b519260018060a01b0390511690600080516020611470833981519152610afa60405186602082015260208152610adf6040826104ae565b604051918291600183526040602084015260408301906103f5565b0390a360405191602083015260208252610b156040836104ae565b60019190565b610b399192503d806000833e610b3181836104ae565b8101906105af565b90386109c2565b634e487b7160e01b600052601160045260246000fd5b6020813d602011610b85575b81610b6f602093836104ae565b810103126100d357610b809061056f565b61090a565b3d9150610b62565b6040513d6000823e3d90fd5b6020813d602011610bc8575b81610bb2602093836104ae565b810103126100d357610bc39061056f565b6108c2565b3d9150610ba5565b635274afe760e01b60005260045260246000fd5b60011415610879565b97516040805160008152602081018290526001600160a01b039283169890921696506000805160206114708339815191529550909350839250610a3a91508201886103f5565b9091503d8083833e610c4581836104ae565b810191604082840312610ccb57610c5b8261056f565b602083015190926001600160401b038211610ce6570183601f82011215610ce2578051916001600160401b038311610cce5760405194610ca5601f8501601f1916602001876104ae565b83865260208484010111610ccb575090610cc591602080860191016103d2565b3861080f565b80fd5b634e487b7160e01b81526041600452602490fd5b5080fd5b8280fd5b60405163f00364b160e01b815260206004820152602260248201527f496e76616c6964206d617850726963655553443a206f7574206f6620626f756e604482015261647360f01b6064820152608490fd5b6509184e72a000915011386107b9565b60405163f00364b160e01b8152602060048201526019602482015278496e76616c6964206d617850726963655553443a207a65726f60381b6044820152606490fd5b60405163f00364b160e01b815260206004820152601f60248201527f496e76616c696420726563697069656e743a207a65726f2061646472657373006044820152606490fd5b60405163f00364b160e01b815260206004820152601a602482015279496e76616c6964206d696e416d6f756e744f75743a207a65726f60301b6044820152606490fd5b60405163f00364b160e01b8152602060048201526016602482015275496e76616c696420616d6f756e74496e3a207a65726f60501b6044820152606490fd5b60405163f00364b160e01b815260206004820152601e60248201527f496e76616c696420746f6b656e4f75743a206d757374206265205745544800006044820152606490fd5b60405163f00364b160e01b815260206004820152601d60248201527f496e76616c696420746f6b656e496e3a206d75737420626520555344430000006044820152606490fd5b60405163f00364b160e01b815260206004820152600e60248201526d24b73b30b634b2103937baba32b960911b6044820152606490fd5b51906001600160501b03821682036100d357565b610f3b906060928101906104e7565b604051633fabe5a360e21b81529160a0836004817f00000000000000000000000000000000000000000000000000000000000000006001600160a01b03165afa908115610b8d57600090819482918394611417575b50504203428111610b4057610e10106113e2576001600160501b039081169116106113ad57600082131561136f576402540be40082108015611360575b6113215760c081015182116112ec576020810180516001600160a01b03163b156112ab576040820180516001600160a01b03163b156112695761108e600060018060a01b0385511693606086019485516060956040519361102e88866104ae565b60028552601f198801366020870137516001600160a01b03166110508561057c565b52516001600160a01b03166110648461059f565b5260405180958194829363d06ca61f60e01b84526004840152604060248401526044830190610471565b03915afa6000918161124c575b506110e35750505050506000906040516110b66040826104ae565b602081527f526f75746572206572726f723a2070616972206d6179206e6f74206578697374602082015290565b6110ee60809161059f565b5193015183106111f8575051670de0b6b3a7640000810290808204670de0b6b3a76400001490151715610b4057600082156111e4575004606481029080820460641490151715610b4057606982028215838204606914811715610b4057605f8402938404605f141715610b40576064900481119182156111d6575b50506111a0576001906040516111806040826104ae565b601081526f526561647920746f206578656375746560801b602082015290565b6000906040516111b16040826104ae565b60158152740a0e4d2c6ca40d2dae0c2c6e840e8dede40d0d2ced605b1b602082015290565b606491925004113880611169565b634e487b7160e01b81526012600452602490fd5b939250505060009161120d60405191826104ae565b602981527f496e73756666696369656e74206c69717569646974793a20736c697070616765602082015268040e8dede40d0d2ced60bb1b604082015290565b6112629192503d806000833e610b3181836104ae565b903861109b565b5050505060009060405161127e6040826104ae565b602081527f496e76616c696420746f6b656e4f75743a206e6f74206120636f6e7472616374602082015290565b5050506000906040516112bf6040826104ae565b601f81527f496e76616c696420746f6b656e496e3a206e6f74206120636f6e747261637400602082015290565b50506000906040516112ff6040826104ae565b601281527108aa89040e0e4d2c6ca40e8dede40d0d2ced60731b602082015290565b50506000906040516113346040826104ae565b601c81527b496e76616c69642070726963653a206f7574206f6620626f756e647360201b602082015290565b506509184e72a0008211610fcd565b50506000906040516113826040826104ae565b601b81527a496e76616c69642070726963653a206e6f6e2d706f73697469766560281b602082015290565b50506000906040516113c06040826104ae565b6012815271141c9a58d94819995959081a5b9d985b1a5960721b602082015290565b505050506000906040516113f76040826104ae565b601081526f50726963652066656564207374616c6560801b602082015290565b935094505060a0843d60a011611467575b8161143560a093836104ae565b81010312610ccb575061144783610f18565b9061145d60806020860151928601519501610f18565b9190933880610f90565b3d915061142856fe1f92ef25aeecc310b452a1367dc5386413b9e2a8ef881251566fae23cd7e73f5a26469706673582212207f88bc1327aad827ba7563e45843b5378dfb6ad8459980765a58ed8c620dce0f64736f6c634300081c0033",
  "linkReferences": {},
  "deployedLinkReferences": {}
}